:100000000C940B010C94FF040C94D8040C9432054E
:100010000C9432050C9432050C9433010C9433018A
:100020000C9433010C9433010C9433010C94330180
:100030000C9433010C9433010C9433010C94330170
:100040000C948E040C9433010C9433010C94330102
:100050000C9433010C9433010C9433010C94330150
:100060000C9433010C943301570E5C0EA30EAE0EAC
:10007000D70E1E0F410F570F00000000240027006D
:100080002A0000000000250028002B0025005265F2
:100090006D61696E696E67006D6C2F6D00466C6FE7
:1000A00077205370656564006D6C00436F6E7375E7
:1000B0006D7074696F6E00524354204675656C0014
:1000C00020204675656C2053656E736F7200205258
:1000D0004354204A65746920546F6F6C73000000AC
:1000E000000023002600290004040404040404047E
:1000F00002020202020203030303030301020408D3
:100100001020408001020408102001020408102081
:1001100000000008000201000003040700000000C6
:100120000000000020204675656C2053656E736FDB
:10013000720020524354204A65746920546F6F6CDA
:100140007300527374205570446E2053617665209D
:100150003E005265736574206F72205361766500AE
:100160004368616E676520446E204E657874203E5A
:1001700000596573004E6F004469672E52657365C0
:10018000743A2000527374204C655269204E657891
:1001900074203E002A0043616C6962722E3A20008E
:1001A000527374204C655269204E657874203E006D
:1001B0006D6C0054616E6B206361703A2000527365
:1001C0007420446E2020204E657874203E005265D5
:1001D00073657420436F6E73756D70742E006D6C53
:1001E0002F6D00466C6F773A20006D6C00436F6E88
:1001F000733A200020204675656C2053656E736F3E
:10020000720020524354204A65746920546F6F6C09
:100210007300F611EC1111241FBECFEFD8E0DEBF42
:10022000CDBF11E0A0E0B1E0EAEDFAE202C0059036
:100230000D92AC31B107D9F722E0ACE1B1E001C0D9
:100240001D92A134B207E1F711E0CAE0D1E004C089
:100250002197FE010E94FA14C930D107C9F70E9404
:10026000190B0C9460150C9400008091650190911D
:100270006601A0916701B09168010196A11DB11DB1
:100280008093650190936601A0936701B093680124
:100290000895CF92DF92EF92FF920F931F93CF9327
:1002A000DF936C017A018B01C0E0D0E0CE15DF0551
:1002B00089F0D8016D918D01D601ED91FC910190ED
:1002C000F081E02DC6010995892B11F47E0102C051
:1002D0002196ECCFC701DF91CF911F910F91FF9035
:1002E000EF90DF90CF900895833081F028F4813033
:1002F00099F08230A1F008958730A9F08830B9F0E4
:100300008430D1F4809180008F7D03C08091800083
:100310008F7780938000089584B58F7702C084B56D
:100320008F7D84BD08958091B0008F7703C0809148
:10033000B0008F7D8093B00008951F93CF93DF931B
:10034000282F30E0F901E05FFE4F8491F901E4507D
:10035000FF4FD491F901E851FF4FC491CC23C9F06C
:10036000162F81110E947401EC2FF0E0EE0FFF1F99
:10037000EE57FF4FA591B4918FB7F894111105C0B6
:100380009C91ED2FE095E92302C0EC91ED2BEC93CD
:100390008FBFDF91CF911F910895CF93DF9390E0AE
:1003A000FC01E450FF4F2491FC01E851FF4F849180
:1003B000882361F190E0880F991FFC01E858FF4FF6
:1003C000C591D491FC01EE57FF4FA591B4916111F5
:1003D00009C09FB7F8948881209582238883EC9187
:1003E0002E230BC0623061F49FB7F8943881822FBE
:1003F000809583238883EC912E2B2C939FBF06C07E
:100400008FB7F894E8812E2B28838FBFDF91CF918F
:1004100008953FB7F8948091330190913401A091F1
:100420003501B091360126B5A89B05C02F3F19F0C4
:100430000196A11DB11D3FBFBA2FA92F982F882764
:10044000820F911DA11DB11DBC01CD0142E0660FBF
:10045000771F881F991F4A95D1F708958F929F9211
:10046000AF92BF92CF92DF92EF92FF920E94090269
:100470004B015C0188ECC82ED12CE12CF12C0E94A0
:100480000902DC01CB0188199909AA09BB09883E38
:100490009340A105B10558F021E0C21AD108E10846
:1004A000F10888EE880E83E0981EA11CB11CC114CF
:1004B000D104E104F10419F7FF90EF90DF90CF90A1
:1004C000BF90AF909F908F90089508950895DC019C
:1004D0005196ED91FC915297908150968C91809518
:1004E00089238083089520916B0130916C01281736
:1004F000390771F49091690180916A01981741F070
:10050000E0916901F0E0E25EFE4F808190E00895A5
:100510008FEF9FEF0895089520916B0130916C014A
:100520002817390769F480916A012091690190E0E8
:100530004096821B910960E170E00E94C714089503
:1005400080E090E0089520916B0130916C012817B4
:100550003907B9F49091690180916A01981789F07F
:10056000E0916901F0E0E25EFE4F80812091690137
:1005700030E02F5F3F4F2F7033272093690190E0C9
:1005800008958FEF9FEF0895E0916B01F0916C015A
:10059000E817F90769F4A389B4899C918589809546
:1005A00089238C9310926C0110926B0181E0089565
:1005B00080E00895CF93DF938DE691E00E94C4021E
:1005C000CDE6D1E061E08C850E94CD0161E08C85B3
:1005D000DF91CF910C949D0180918A0190918B01C4
:1005E000892B31F180916B0190916C0121E08D3666
:1005F0009207F1F0009711F00E94C40280918401EB
:100600008E7F8093840110926A01109269018DE6B9
:1006100091E090936C0180936B01E0918001F091E7
:100620008101908180918201892B808381E00895EE
:1006300080E00895089580E090E008950F931F935F
:10064000CF93DF938C01EB010E943512A8E1B2E059
:1006500090E020E2981740F4A8014F5F5F4FF80147
:1006600004910C938A0101C02C939F5F11969031E5
:1006700089F7CE010E943512A8E2B2E090E020E2B4
:10068000981740F4AE014F5F5F4FFE01C491CC93C9
:10069000EA0101C02C939F5F1196903189F7DF9199
:1006A000CF911F910F910895CF93DF93FC0101909B
:1006B0000020E9F73197E81B20E030E0F0E2A901E3
:1006C00048575F4F2E1748F4EA01C057DE4FDC0150
:1006D000A20FB31FAC91A88304C0DA01A057BE4F8C
:1006E000FC932F5F3F4F2031310549F7FB0101900B
:1006F0000020E9F73197E61B80E090E040E29C01A2
:1007000028563F4F8E1748F4E901C057DE4FDB01F2
:10071000A80FB91F5C91588304C0D901A057BE4FE0
:100720004C9301968031910551F7DF91CF91089557
:10073000CF92DF92EF92FF920F931F93CF93DF93AD
:10074000EB017B0124E0E20EF11C8B016C01C61A67
:10075000D70AC601800F911F0E947312F80181937E
:100760008F01EE15FF05A9F7CE01DF91CF911F9103
:100770000F91FF90EF90DF90CF900895CF92DF928E
:10078000EF92FF920F931F93CF93DF93EC0189A118
:100790009AA1009729F421E030E03B832A8371C0BD
:1007A0000FB7F8948F8D98A1892B91F028E030E055
:1007B00090E081E0482F462309F09F5F880F215089
:1007C0003109C1F7888D81119F5F192F109501C0E4
:1007D00010E0F62ECE010E94670289A19AA101972E
:1007E000F1F788E0C82ED12CEE24E3948E2D8F21D2
:1007F00039F0E989FA8990818889892B808303C03F
:10080000CE010E94670289A19AA10197F1F7EE0C2F
:1008100081E0C81AD10851F78E89882389F0888D24
:10082000882339F0E989FA8990818889892B808326
:1008300003C0CE010E94670289A19AA10197F1F736
:100840008F8D98A1892B81F010FF07C0E989FA8963
:1008500090818889892B808303C0CE010E94670222
:100860008F8D98A10197F1F7E989FA89908188899C
:10087000892B80830FBF8D8D9E8D0197F1F781E0CD
:1008800090E0DF91CF911F910F91FF90EF90DF905B
:10089000CF9008950E945015AF92BF92CF92DF92F1
:1008A000EF92FF920F931F93CF93DF931F92CDB7D9
:1008B000DEB75C017B018B016C0184E0C80ED11CAA
:1008C000F80161918F01C50169830E9473126981EA
:1008D000681719F0C5010E947B12FFEFAF1ABF0A1B
:1008E000AC14BD0469F7C7010F90DF91CF911F9140
:1008F0000F91FF90EF90DF90CF90BF90AF90089551
:100900000C947B122FB7F89460912F0170913001F5
:1009100080913101909132012FBF08951F920F9263
:100920000FB60F9211242F933F938F939F93AF9302
:10093000BF9380912F0190913001A0913101B0912E
:10094000320130912E0123E0230F2D3720F4019640
:10095000A11DB11D05C026E8230F0296A11DB11DE2
:1009600020932E0180932F0190933001A0933101A9
:10097000B09332018091330190913401A0913501FF
:10098000B09136010196A11DB11D80933301909362
:100990003401A0933501B0933601BF91AF919F917F
:1009A0008F913F912F910F900FBE0F901F90189530
:1009B0001F920F920FB60F9211242F933F934F93D4
:1009C0005F936F937F938F939F93AF93BF93EF93B7
:1009D000FF93E0910201F09103010995FF91EF91DE
:1009E000BF91AF919F918F917F916F915F914F9147
:1009F0003F912F910F900FBE0F901F9018951F924F
:100A00000F920FB60F9211242F933F934F935F9342
:100A10006F937F938F939F93AF93BF93EF93FF93C6
:100A2000E0910001F09101010995FF91EF91BF91D3
:100A3000AF919F918F917F916F915F914F913F9176
:100A40002F910F900FBE0F901F901895862798E05A
:100A500027E087FF03C0880F822701C0880F9150CD
:100A6000C1F708951F920F920FB60F9211242F9382
:100A70003F934F935F936F937F938F939F93AF9326
:100A8000BF93CF93DF93EF93FF93E0916B01F091CE
:100A90006C01309709F467C0C685D78588812585A4
:100AA000822309F060C0818D928D0197F1F7438D0B
:100AB000548D68E070E030E081E0DA011197F1F7E1
:100AC0009881922311F0382B03C0982F90953923E9
:100AD000880F6150710989F780916A0190E0019651
:100AE0008F70992760916901681749F0A0916A0198
:100AF000B0E0A25EBE4F3C9380936A0103C0878939
:100B00008160878B86898823F1F0CA010197F1F70C
:100B10008881282381E090E0A0E0B0E004C0880F45
:100B2000991FAA1FBB1F2A95D2F740911C01509113
:100B30001D0160E070E0842B952BA62BB72B9093C2
:100B40001D0180931C01878D90A1009711F00197E2
:100B5000F1F7858D968D0197F1F7A389B4899C9162
:100B60008589892B8C93FF91EF91DF91CF91BF9174
:100B7000AF919F918F917F916F915F914F913F9135
:100B80002F910F900FBE0F901F9018950F931F93EA
:100B9000CF93C82F0DE611E0F801608F682FC801D0
:100BA0000E94BE03F801108E8C2FCF911F910F91E0
:100BB0000895AF92BF92CF92DF92EF92FF920F9380
:100BC0001F93CF93DF931F92CDB7DEB75C017B01FC
:100BD0008B016C0182E0C80ED11CF80161918F017C
:100BE000C50169830E9473126981681719F0C501F4
:100BF0000E947B12FFEFAF1ABF0AAC14BD0469F765
:100C0000C7010F90DF91CF911F910F91FF90EF904F
:100C1000DF90CF90BF90AF9008952F923F924F9268
:100C20005F926F927F928F929F92AF92BF92CF927C
:100C3000DF92EF92FF920F931F93CF93DF9300D039
:100C400000D01F92CDB7DEB75C012A013B0120E046
:100C500030E0A901C301B2010E94F61287FF05C06E
:100C600020E030E040E05FEB04C020E030E040E016
:100C70005FE3C301B2010E948A126B017C0120E094
:100C800030E0A901C301B2010E94F61287FF04C03F
:100C9000F7FAF094F7F8F094812C912C8DEC89837D
:100CA0009CEC9A838CEC282E9DE3392E20E030E0DA
:100CB00040E251E469817A81C1010E945A146D8336
:100CC0007B83182F092FA7019601902F0E94F612FF
:100CD000181654F0EFEF8E1A9E0AFD81F9838B816E
:100CE0008A83212E302EE2CF20E030E0A901C3011B
:100CF000B2010E94F61287FF08C08DE2F5018083E1
:100D000081E090E09C838B8302C01C821B82811453
:100D1000910459F4EB81FC81EA0DFB1D80E3808393
:100D2000EB81FC813196FC83EB8300E010E0081539
:100D30001905B9F129813A81A101C701B6010E94C3
:100D4000FB120E946D132B013C016B817C81600FB3
:100D5000711F6A0D7B1D4AE0C2010E943E12B20162
:100D6000550C880B990B0E94A51329813A81A1018A
:100D70000E945A149B01AC01C701B6010E9489125E
:100D80006B017C0120E030E040E251E469817A812E
:100D9000C1010E94FB1269837A831C010F5F1F4F00
:100DA000C6CF0A0D1B1DEB81FC81E00FF11F1082E5
:100DB000C5010F900F900F900F900F90DF91CF9182
:100DC0001F910F91FF90EF90DF90CF90BF90AF9069
:100DD0009F908F907F906F905F904F903F902F905B
:100DE00008952F923F924F925F926F927F928F92CF
:100DF0009F92AF92BF92CF92DF92EF92FF920F93AA
:100E00001F93CF93DF93C0903A02D0903B02E090C3
:100E10003C02F0903D020E948204209112022223A3
:100E2000E9F060E08EE70E94C60561E082E90E9479
:100E3000C60561E083E20E94C60561E0809112026E
:100E40000E94C60580910801882311F0815003C0DB
:100E50001092120286E08093080170C324EFC20E44
:100E600021E0D21EE11CF11C11E0C616D706E806EF
:100E7000F90608F010E060E08EE70E94C60561E028
:100E80008FE90E94C605111170C080911302A091D4
:100E90009001B0919101E82FF0E0EE0FFF1FEE50AE
:100EA000FE4F20813181232B49F48F5F282F30E0C2
:100EB0002A173B0784F31092130202C08093130297
:100EC00060911302F6E0E0E026E030E0E12C40E043
:100ED00050E070E0CA01860F971F8A179B07A4F5A0
:100EE000009709F1E394880F991FFC01EE52FE4F21
:100EF00080818F718830A1F0813019F4C901039687
:100F000015C0811103C0C901029610C0853019F4C3
:100F1000C90104960BC0893019F0C901019606C0B9
:100F2000C901059603C0C9012F2F3E2F4F5F5F4FA8
:100F30004031510551F08B31910514F0EA9404C011
:100F4000F22FE32F9C01C6CFC901C82FC06481E0F6
:100F5000809385016C2F8DE691E00E94BE0360E0D6
:100F60008C2F0E942605C82F1DC0E0914002F0E0A2
:100F7000EE0FFF1FED52FE4F8081C82FCF7182957B
:100F800086958770C80FC85F81E0809385016C2FBC
:100F90008DE691E00E94BE0360E08C2F0E94260542
:100FA000C82FE12CD1E0D093850161E18DE691E07D
:100FB0000E94BE036C2F81E10E942605C82FD093AA
:100FC000850164EA8DE691E00E94BE036C2F84EAFD
:100FD0000E942605C82FD093850162E08DE691E03E
:100FE0000E94BE036C2F82E00E942605C82FD0937A
:100FF000850167E08DE691E00E94BE036C2F87E0DB
:101000000E942605C82FD093850160E08DE691E00F
:101010000E94BE03109285016C2F80E00E9426057D
:10102000F82E1111EAC1C09113026E2C6C0E2091A2
:10103000900130919101C61551F0772473947C0E84
:10104000709213020C2F10E00217130754F08091D6
:10105000130290E0821793070CF46CC210921302F3
:1010600069C2CC2309F4C7C1E0913E02F0913F026E
:101070000995C295C07F680131E2C30ED11CC6013B
:10108000880F991FFC01E057FE4F5F0180818F712F
:1010900090E08530910509F4BEC0F4F5009709F49D
:1010A00095C0019709F0A7C1000F111FF801EE507C
:1010B000FE4F0190F081E02D00811181C160D0933D
:1010C00085016C2F8DE691E00E94BE036F2D8C2F61
:1010D0000E942605C82F1F79F501208122952695AB
:1010E000277030E0322F22273295330F307E022BCB
:1010F000132BD0938501602F8DE691E00E94BE03F3
:101100006C2F802F0E942605082F912F9F79F501C3
:10111000C081C07EC92B74C08830910521F0099729
:1011200009F4C2C068C1C860D09385016C2F8DE6F8
:1011300091E00E94BE036F2D8C2F0E942605C82FC0
:10114000000F111FF801EE50FE4F0190F081E02DCD
:1011500080819181A281B3816C017D01FFE9FF2231
:10116000D09385016C2D8DE691E00E94BE036C2F1B
:101170008C2D0E942605C82F2D2C3E2C4F2C55243B
:1011800047FC5A94D0938501622D8DE691E00E9430
:10119000BE036C2F822D0E942605C82F17015524EF
:1011A00037FC5094452CD0938501622D8DE691E05B
:1011B0000E94BE036C2F822D0E942605182F9F2DA2
:1011C0009F79F501C081C07EC92B62C0000F111F3D
:1011D000F801EE50FE4F0190F081E02D1081D09388
:1011E00085016C2F8DE691E00E94BE036F2D8C2F40
:1011F0000E942605082F1F79F501C081C07EC12BF2
:10120000D09385016C2F8DE691E00E94BE03109271
:101210008501602F47C0C560D09385016C2F8DE696
:1012200091E00E94BE03109285016F2D8C2F0E94C9
:101230002605F82E000F111FF801EE50FE4F019009
:10124000F081E02D118102819081F50120812295AC
:1012500026952770213011F0C0E001C0C0E4C92BF1
:10126000D0938501602F8DE691E00E94BE036F2D23
:10127000802F0E942605082FD0938501612F8DE6CF
:1012800091E00E94BE03602F812F0E942605182F37
:10129000D09385016C2F8DE691E00E94BE031092E1
:1012A0008501612F8C2FA4C0C960D09385016C2F5C
:1012B0008DE691E00E94BE036F2D8C2F0E942605C3
:1012C000C82F000F111FF801EE50FE4F0190F08162
:1012D000E02D80809180A280B38020E030E0A901E1
:1012E000C501B4010E94551418161CF4C501B401BF
:1012F00003C0C501B40190580E9474138B0180E0B3
:1013000090E00E94A3139B01AC01C501B4010E94AF
:1013100089122AE939E949E15FE30E945A1420E081
:1013200030E543EC57E40E945A141B012C0120E0E5
:1013300030E0A9010E94551418161CF4C201B10135
:1013400003C0C201B10190580E947413562EF72EAB
:10135000812F8170F601EE0FFF1FE057FE4F908145
:10136000929596959770913011F090E001C090E2BF
:10137000192F182B20E030E0A901C501B4010E940B
:10138000F612881F8827881F8295880F880F807C17
:10139000182BD0938501652D8DE691E00E94BE0348
:1013A0006C2F852D0E942605C82FD09385016F2DA7
:1013B0008DE691E00E94BE036C2F8F2D0E942605C2
:1013C000C82FD0938501602F8DE691E00E94BE0367
:1013D0006C2F802F0E942605C82FD0938501612F86
:1013E0008DE691E00E94BE03109285016C2F812F43
:1013F0000E942605F82EC72D1ACEC0914002D09328
:1014000085016C2F8DE691E00E94BE036F2D8C2F1D
:101410000E942605B82E0C2F10E06801CC0CDD1CB4
:1014200096012D523E4F4901F9012081922F9F7163
:10143000F8E09F9F70011124229526952770E22ADB
:10144000D09385016E2D8DE691E00E94BE0310922F
:1014500085016B2D8E2D0E942605F82EF601EE5685
:10146000FE4FD081AD2EB180772473942A2D2D1B91
:1014700030E0F40180818F7190E028173907A4F4DF
:10148000F501E490709285016E2D8DE691E00E9449
:10149000BE03109285016F2D8E2D0E942605F82E19
:1014A000FFEFAF1ABF0AE2CF000F111FD801AE54F1
:1014B000BE4FDC910D2F11961C9196012D523E4F7F
:1014C0006901BB24B394202F2D1B30E0F6018081ED
:1014D00082958695877090E0281739079CF4F8016B
:1014E000E490B09285016E2D8DE691E00E94BE03DE
:1014F000109285016F2D8E2D0E942605F82E0F5F0C
:101500001F4FE1CFCF5FC09340028C2F90E020911E
:101510009001309191018217930714F010924002CC
:101520000E94820460933A0270933B0280933C02D3
:1015300090933D0261E08F2D0E94C605E0913E022E
:10154000F0913F02099560E08EEF0E94C605C8E168
:10155000D2E01C2F105E61E089910E94C6051C1329
:10156000FACF60E08FEF0E94C60581E0DF91CF9156
:101570001F910F91FF90EF90DF90CF90BF90AF90B1
:101580009F908F907F906F905F904F903F902F90A3
:101590000895CF92DF92FF920F931F93CF93DF9323
:1015A000209190013091910120313105CCF56B01F2
:1015B00089010F5F1F4FF801EE0FFF1FE057FE4F2D
:1015C00091838083F901EE0FFF1FEE54FE4F71836C
:1015D0006083F901EE0FFF1FEE50FE4F1182108263
:1015E000220F331FE901CE52DE4F18820E943512BE
:1015F000982F9F718981807EF82EF92AC6010E945A
:1016000035128295880F807E9F2D9F71F92EF82AC2
:10161000F98210939101009390018FEF800F01C028
:101620008FEFDF91CF911F910F91FF90DF90CF90BF
:101630000895CF93DF93CDB7DEB7E2970FB6F89456
:10164000DEBF0FBECDBF789484B5826084BD84B503
:10165000816084BD85B5826085BD85B5816085BDAD
:1016600080916E00816080936E0010928100809165
:1016700081008260809381008091810081608093ED
:101680008100809180008160809380008091B10012
:1016900084608093B1008091B00081608093B0003D
:1016A00080917A00846080937A0080917A008260D1
:1016B00080937A0080917A00816080937A00809193
:1016C0007A00806880937A001092C10061E08DE01A
:1016D0000E94CD0161E08DE00E949D0161E083E008
:1016E0000E94CD0160E083E00E949D0180913B015A
:1016F00090913C01909305018093040160EC70E0AF
:101700008EEC90E00E941E0387EB90E09093930193
:10171000809392011092B3011092B2011092F301E2
:101720001092F2011092D20188E08093D30181E0FF
:1017300090E0909391018093900161E083E00E949A
:101740009D0161E083E00E94CD01FFEFEF2EF0E00C
:10175000FF2EF701849180937D010BEE10E0F801DC
:10176000849190E0880F991F8E579F4FFC0125911F
:10177000349130937F0120937E0160E083E00E94EA
:10178000CD0161E083E00E949D0183E080937901B7
:10179000F701E490E0927A01F8010491E02FF0E083
:1017A000EE0FFF1FE252FF4F8591949190937C01C1
:1017B00080937B0181E08093830185E991E09093A0
:1017C0008F0180938E0129EB30E0309387012093C5
:1017D000860123E931E0309389012093880146E5B1
:1017E00054E050938B0140938A0130938D012093F4
:1017F0008C01209168002460209368002DE630E081
:10180000309381012093800128E020938201019789
:10181000F1F70E94EC020E94DA0262E082E00E948C
:10182000CD0185E391E090930101809300018091C7
:1018300069008C7F816080936900E89A62E085E0AE
:101840000E94CD0180E090E00E947312813051F13E
:1018500061E080E090E00E94800460E081E090E040
:101860000E94800460E082E090E00E9480041A827E
:101870001982BE016F5F7F4F8AE090E00E94D90518
:101880001A821982BE016F5F7F4F84E190E00E944F
:10189000D9051A821982BE016F5F7F4F8EE190E0F9
:1018A0000E94D90581E090E00E94731290E090932D
:1018B00038018093370182E090E00E947312082F74
:1018C00010E010934C0100934B0169E571E08AE050
:1018D00090E00E94980361E671E084E190E00E944C
:1018E00098030130110531F465E671E08EE190E076
:1018F0000E94980368EA70E08BEA90E00E94C90AAF
:10190000803188F490E0FC01EE0FFF1FEE50FE4F97
:101910002DE531E031832083880F991FFC01EE52C1
:10192000FE4F88E0808368E970E08DE990E00E94D6
:10193000C90A803188F490E0FC01EE0FFF1FEE50E1
:10194000FE4F2DE431E031832083880F991FFC0185
:10195000EE52FE4F88E080836CE870E08EE890E005
:101960000E94C90A803188F490E0FC01EE0FFF1F4D
:10197000EE50FE4F26E031E031832083880F991F1F
:10198000FC01EE52FE4F81E080830E94F10660E090
:101990008DE00E949D0124E6222E312C01E010E012
:1019A0002091650130916601409167015091680175
:1019B000A8EEB3E00E940015209161013091620110
:1019C00040916301509164010E94DB1457FD09C0EE
:1019D00020935D0130935E0140935F01509360015D
:1019E00008C010925D0110925E0110925F0110928A
:1019F00060016091590170915A0180915B01909151
:101A00005C011616170618061906C4F580905D01CC
:101A100090905E01A0905F01B090600118141904CD
:101A20001A041B045CF50E94A5136B017C01C5011F
:101A3000B4010E94A5139B01AC01C701B6010E942D
:101A4000FB129B01AC0160E070E088EC92E40E9424
:101A5000FB129B01AC0160E070E088EC92E40E9414
:101A600089120E946D1377FD05C070930701609382
:101A7000060104C010920701109206010E94820420
:101A80008090550190905601A0905701B090580158
:101A900075016401F8EECF0EF3E0DF1EE11CF11CCE
:101AA000C616D706E806F90640F40E948204693893
:101AB00073418105910508F002C480914D01909118
:101AC0004E01A0914F01B0915001B7FF08C0109294
:101AD0004D0110924E0110924F0110925001E09072
:101AE0004B01F0904C0181E0E816F10499F58091EA
:101AF0004D0190914E01A0914F01B09150011816E7
:101B000019061A061B0634F580915D0190915E015D
:101B1000A0915F01B0916001181619061A061B0604
:101B2000CCF4F0924A01E0924901109248011092DF
:101B300047010E948204DC01CB018856954CAF4FCF
:101B4000BF4F8093430190934401A0934501B0930C
:101B5000460104C010924A01109249010E94820479
:101B600060933F0170934001809341019093420143
:101B7000E1E0EE16F10419F52091490130914A0196
:101B8000232BE9F42091470130914801232BB9F42C
:101B90008090430190904401A0904501B09046018F
:101BA00086169706A806B90654F465E671E08EE13C
:101BB00090E00E944C04F0924801E092470180912D
:101BC0004B0190914C01019709F053C0E5E1F1E020
:101BD0008491E1E0F1E0E490EDEEF0E0F490FF209C
:101BE000A1F081110E947401EF2DF0E0EE0FFF1FB4
:101BF000E252FF4FA591B4918C91E82231E020E0B0
:101C000009F430E0832F922F02C080E090E090939F
:101C10003E0180933D012091490130914A01232BDF
:101C200041F5892B31F510926501109266011092F1
:101C300067011092680110925101109252011092A6
:101C400053011092540110925D0110925E011092A6
:101C50005F0110926001309207012092060165E653
:101C600071E08EE190E00E944C04109348010093D3
:101C70004701E0913B01F0913C01E730F10521F093
:101C800010923A011092390180910401909105015E
:101C90008E179F0721F0F0930501E0930401E830CF
:101CA000F10508F00AC1EC5CFF4F0C94FA1464EFE4
:101CB00071E082E092E0FFC01A8A19826DEE71E055
:101CC000CE0142960E942A121BA260915D01709182
:101CD0005E0180915F01909160010E94A513AB01AC
:101CE000BC01CE0183960E940D06BE016D5D7F4F43
:101CF000CE0142960E9455156AEE71E0CE014296E1
:101D00000E942A1263EE71E0CE0101960E942A120F
:101D10001BA260914D0170914E0180914F019091F5
:101D200050010E94A513AB01BC01CE0183960E9415
:101D30000D06BE016D5D7F4FCE0101960E945515C7
:101D40006EED71E0A8C01A8A19826EEC71E0CE01C6
:101D500042960E942A126EEB71E09DC01A8A198287
:101D600063EB71E0CE0142960E942A121BA26091A1
:101D7000590170915A0180915B0190915C010E9420
:101D8000A513AB01BC01CE0183960E940D06BE01D6
:101D90006D5D7F4FCE0142960E94551560EB71E05C
:101DA000CE0142960E942A1260EA71E074C01A8A3B
:101DB000198266E971E0CE0142960E942A121BA2A6
:101DC0008091370190913801892BC1F460916501B0
:101DD0007091660180916701909168010E94A5133E
:101DE000AB01BC01CE0183960E940D06BE016D5D64
:101DF0007F4FCE0142960E9455151DC06091610132
:101E00007091620180916301909164010E94A51319
:101E1000AB01BC01CE0183960E940D06BE016D5D33
:101E20007F4FCE0142960E94551564E971E0CE01C4
:101E300042960E942A1264E871E02DC01A8A198223
:101E400068E771E0CE0142960E942A1280914B0110
:101E500090914C01892B31F465E771E0CE014296F7
:101E60000E942A1280914B0190914C01019731F40C
:101E700061E771E0CE0142960E942A1260E671E0AD
:101E80000AC01A8A198262E571E0CE0142960E9468
:101E90002A1262E471E0CE0101960E942A12BE016C
:101EA0006F5F7F4FCE0142960E94540306C064E2EA
:101EB00071E082E391E00E941E038DE691E00E94B2
:101EC000C4020E94DA020E94F10660E0809179016A
:101ED0000E94CD0161E0809179010E949D010E94E4
:101EE000EC020E94EC020E9482044B015C01F4E6C9
:101EF0008F0E911CA11CB11CE12CF12C0E948204BC
:101F0000681579058A059B0580F58DE691E00E94AC
:101F10008C021816190694F78DE691E00E948C0247
:101F20001816190614F0712C1AC08DE691E00E9463
:101F3000A302782E8091390287112FC2C09014021B
:101F4000D0901502E0901602F09017020E948204D1
:101F5000C616D706E806F90608F41FC2E4CFE72C38
:101F6000F12CE114F10451F231C220EFE216F10438
:101F700009F49DC1E114F10409F499C180E9E8165E
:101F8000F10409F437C15CF4E0E6EE16F10409F45B
:101F900070C1F0E7EF16F10409F462C088C120EDCA
:101FA000E216F10409F470C080EEE816F10431F095
:101FB00090EBE916F10409F07AC18AC080913B01E7
:101FC00090913C018730910509F471C186309105EB
:101FD00009F044C08091650190916601A09167016C
:101FE000B09168018093610190936201A0936301B5
:101FF000B093640161E080E090E00E94800461E0C1
:1020000081E090E00E94800460914B0182E090E0CA
:102010000E94800469E571E08AE090E00E944C042F
:102020008091370190913801892B09F01CC1809172
:10203000650190916601A0916701B091680180935C
:10204000610190936201A0936301B093640161E622
:1020500071E084E190E00E944C0405C10196C5C086
:1020600080913B0190913C018336910521F41092BF
:102070003C0110923B0180913B0190913C01009703
:1020800009F415C10197B1C080913B0190913C01C9
:102090008330910569F48091590190915A01A09182
:1020A0005B01B0915C018C599F4FAF4FBF4FB4C0E3
:1020B000049709F0FCC08091650190916601A091A0
:1020C0006701B09168018C599F4FAF4FBF4FBBC0A4
:1020D00080913B0190913C01029791F480914B01DA
:1020E00090914C01892B61F4109265011092660168
:1020F000109267011092680110933C0100933B011C
:1021000080913B0190913C010297C1F5E0904B0119
:10211000F0904C01F1E0EF16F10481F58091490156
:1021200090914A01892B51F5109265011092660138
:1021300010926701109268011092510110925201A1
:10214000109253011092540110925D0110925E01A1
:1021500010925F01109260013092070120920601F7
:1021600065E671E08EE190E00E944C04F092480137
:10217000E0924701F0923C01E0923B0180913B01EB
:1021800090913C018330910569F4809159019091BF
:102190005A01A0915B01B0915C0188519C4FAF4FF7
:1021A000BF4F3AC08430910569F4809165019091E8
:1021B0006601A0916701B091680188519C4FAF4FB3
:1021C000BF4F41C08530910509F071C020914B018E
:1021D00030914C01232B29F410934C0100934B01B7
:1021E00004C010924C0110924B0190933C018093DB
:1021F0003B015DC080913B0190913C018330910592
:10220000A1F48091590190915A01A0915B01B09184
:102210005C01C296A11DB11D8093590190935A0192
:10222000A0935B01B0935C0142C084309105A1F49E
:102230008091650190916601A0916701B09168015C
:102240000A96A11DB11D8093650190936601A0932C
:102250006701B093680127C0069749F560E080E008
:1022600090E00E9480040E942E02E0E0F0E00995D8
:102270001EC080913B0190913C018330910549F44F
:102280001092590110925A0110925B0110925C0158
:102290000EC0049761F410926501109266011092CD
:1022A000670110926801109238011092370180E0A6
:1022B00090E0892B09F474CB0E9400006CCB0E9443
:1022C00082046B017C0160916501709166018091CF
:1022D000510190915201681B790B072E000C880B5D
:1022E000990B0E94A5132B013C0160916101709133
:1022F000620180916301909164010E94A51320E026
:1023000030E04AE754E40E94FB129B01AC01C30198
:10231000B2010E94FB1220E030E040E752E40E944C
:102320005A142B013C01B60168197909072E000CDB
:10233000880B990B0E94A51320E030E04AE754E493
:102340000E94FB129B01AC01C301B2010E94FB126F
:102350000E946D1360934D0170934E0180934F0165
:10236000909350010E94820460935501709356012E
:102370008093570190935801809165019091660177
:10238000A0916701B091680180935101909352012F
:10239000A0935301B093540190CB0E948204DC01BE
:1023A000CB0180579E4FAF4FBF4F80931402909345
:1023B0001502A0931602B09317027092390290EFA3
:1023C0007912CDCD80EFE82EF12C98CDE0EFEE160E
:1023D000F10409F0D3CD6BCF8DE091E090936E01C5
:1023E00080936D018DE691E00C94C402EDE6F1E07E
:1023F0001382128288EE93E0A0E0B0E0848395839C
:10240000A683B7838DE091E091838083A4E8B1E057
:102410008C918E7F8C93128E118E148E138E168E4D
:10242000158E12A211A2109214021092150210928F
:10243000160210921702109212021092910110923D
:1024400090011092130286E692E090933F028093EF
:102450003E020895FB01DC010D900020E9F7119781
:1024600005900D920020E1F70895FC0105900020F1
:10247000E9F7809590958E0F9F1F0895BB274A30EE
:1024800031F4992322F4BDE2909581959F4F0C94ED
:102490004A12BB27FB015527AA27880F991FAA1F9D
:1024A000A41710F0A41B83955051B9F7A05DAA336F
:1024B00008F0A95DA193009779F7B111B19311923A
:1024C000CB010C946312DC01FC01672F719177231F
:1024D000E1F7329704C07C916D9370836291AE17DF
:1024E000BF07C8F30895F999FECF92BD81BDF89A50
:1024F000992780B50895262FF999FECF1FBA92BD6E
:1025000081BD20BD0FB6F894FA9AF99A0FBE0196D4
:1025100008955058BB27AA270E94A1120C941B149F
:102520000E940D1438F00E94141420F039F49F3FDB
:1025300019F426F40C940A140EF4E095E7FB0C94BD
:102540000414E92F0E942C1458F3BA17620773077A
:102550008407950720F079F4A6F50C944E140EF438
:10256000E0950B2EBA2FA02D0B01B90190010C01A3
:10257000CA01A0011124FF27591B99F0593F50F4BB
:10258000503E68F11A16F040A22F232F342F442713
:10259000585FF3CF469537952795A795F04053950B
:1025A000C9F77EF41F16BA0B620B730B840BBAF0DB
:1025B0009150A1F0FF0FBB1F661F771F881FC2F746
:1025C0000EC0BA0F621F731F841F48F4879577955A
:1025D0006795B795F7959E3F08F0B0CF9395880F14
:1025E00008F09927EE0F9795879508950E94E013BC
:1025F00008F481E008950E940F130C941B140E94AC
:10260000141458F00E940D1440F029F45F3F29F093
:102610000C94041451110C944F140C940A140E943D
:102620002C1468F39923B1F3552391F3951B550BA3
:10263000BB27AA2762177307840738F09F5F5F4F95
:10264000220F331F441FAA1FA9F335D00E2E3AF0D4
:10265000E0E832D091505040E695001CCAF72BD0EC
:10266000FE2F29D0660F771F881FBB1F261737073D
:102670004807AB07B0E809F0BB0B802DBF01FF276F
:1026800093585F4F3AF09E3F510578F00C94041434
:102690000C944F145F3FE4F3983ED4F386957795FE
:1026A0006795B795F7959F5FC9F7880F911D969528
:1026B000879597F90895E1E0660F771F881FBB1F84
:1026C000621773078407BA0720F0621B730B840B31
:1026D000BA0BEE1F88F7E09508950E947413689472
:1026E000B1110C944F1408950E94341488F09F5730
:1026F00098F0B92F9927B751B0F0E1F0660F771F26
:10270000881F991F1AF0BA95C9F714C0B13091F01B
:102710000E944E14B1E008950C944E14672F782F48
:102720008827B85F39F0B93FCCF3869577956795E0
:10273000B395D9F73EF490958095709561957F4F4C
:102740008F4F9F4F0895E89409C097FB3EF49095F2
:102750008095709561957F4F8F4F9F4F9923A9F07A
:10276000F92F96E9BB279395F69587957795679509
:10277000B795F111F8CFFAF4BB0F11F460FF1BC04D
:102780006F5F7F4F8F4F9F4F16C0882311F096E9E0
:1027900011C0772321F09EE8872F762F05C066238E
:1027A00071F096E8862F70E060E02AF09A95660F47
:1027B000771F881FDAF7880F9695879597F9089500
:1027C000990F0008550FAA0BE0E8FEEF1616170642
:1027D000E807F907C0F012161306E407F50798F0AA
:1027E000621B730B840B950B39F40A2661F0232BC3
:1027F000242B252B21F408950A2609F4A140A6953F
:102800008FEF811D811D089597F99F6780E870E023
:1028100060E008959FEF80EC089500240A94161656
:10282000170618060906089500240A9412161306BE
:10283000140605060895092E0394000C11F488234C
:1028400052F0BB0F40F4BF2B11F460FF04C06F5F68
:102850007F4F8F4F9F4F089557FD9058440F551F3E
:1028600059F05F3F71F04795880F97FB991F61F012
:102870009F3F79F087950895121613061406551F89
:10288000F2CF4695F1DF08C0161617061806991FF5
:10289000F1CF86957105610508940895E894BB27EA
:1028A00066277727CB0197F908950E94E01308F473
:1028B0008FEF08950E946D140C941B140E940D1448
:1028C00038F00E94141420F0952311F00C94041495
:1028D0000C940A1411240C944F140E942C1470F3BD
:1028E000959FC1F3950F50E0551F629FF001729FB5
:1028F000BB27F00DB11D639FAA27F00DB11DAA1FC4
:10290000649F6627B00DA11D661F829F2227B00D10
:10291000A11D621F739FB00DA11D621F839FA00D9B
:10292000611D221F749F3327A00D611D231F849FEB
:10293000600D211D822F762F6A2F11249F57504042
:102940009AF0F1F088234AF0EE0FFF1FBB1F661FBD
:10295000771F881F91505040A9F79E3F510580F086
:102960000C9404140C944F145F3FE4F3983ED4F39A
:10297000869577956795B795F795E7959F5FC1F72A
:10298000FE2B880F911D9695879597F9089597FBD3
:10299000072E16F4009407D077FD09D00E940B157E
:1029A00007FC05D03EF4909581959F4F0895709552
:1029B00061957F4F0895052E97FB1EF400940E94A9
:1029C000F21457FD07D00E941F1507FC03D04EF4E8
:1029D0000C94F21450954095309521953F4F4F4FF0
:1029E0005F4F089590958095709561957F4F8F4FBB
:1029F0009F4F0895EE0FFF1F0590F491E02D09946D
:102A00000E944115A59F900DB49F900DA49F800D2D
:102A1000911D11240895AA1BBB1B51E107C0AA1FD9
:102A2000BB1FA617B70710F0A61BB70B881F991F6F
:102A30005A95A9F780959095BC01CD010895A1E222
:102A40001A2EAA1BBB1BFD010DC0AA1FBB1FEE1F28
:102A5000FF1FA217B307E407F50720F0A21BB30B73
:102A6000E40BF50B661F771F881F991F1A9469F7EF
:102A700060957095809590959B01AC01BD01CF014B
:102A80000895A29FB001B39FC001A39F700D811D47
:102A90001124911DB29F700D811D1124911D089567
:102AA00081E090E0F8940C946015FB01DC010D903E
:102AB0000020E9F7119701900D920020E1F70895A9
:102AC00011E0CAE0D1E004C0FE010E94FA14219690
:0A2AD000CB30D107C9F7F894FFCF0F
:102ADA0065026502010064000600000000BE0349A9
:0C2AEA00011B038B028C02A3027302008C
:00000001FF
