:100000000C94DD000C9402040C94DB030C94350476
:100010000C9435040C9435040C9405010C940501E2
:100020000C9405010C9405010C9405010C94050138
:100030000C9405010C9405010C9405010C94050128
:100040000C9491030C9405010C9405010C9405018A
:100050000C9405010C9405010C9405010C94050108
:100060000C9405010C9405010000000024002700F9
:100070002A0000000008000201000003040700003D
:1000800000000000000000000000230026002900FE
:1000900000000000250028002B00040404040404D0
:1000A0000404020202020202030303030303010227
:1000B00004081020408001020408102001020408F6
:1000C00010206D6C2F6D00466C6F77205370656546
:1000D00064006D6C00436F6E73756D7074696F6E44
:1000E00000524354204675656C0020204675656CAF
:1000F0002053656E736F720020524354204A65741A
:100100006920546F6F6C730020204675656C205316
:10011000656E736F720020524354204A65746920E3
:10012000546F6F6C73005072657373203C20546F72
:1001300020457869740053657474696E6773205341
:10014000746F72656421005072657373203E207471
:100150006F2053617665006D6C0043616C6962725B
:100160002E3A20005072657373205570202620446B
:100170006E00526573657420436F6E73756D707495
:100180002E006D6C2F7300466C6F773A20006D6CFB
:1001900000436F6E733A200020204675656C205333
:1001A000656E736F720020524354204A6574692053
:1001B000546F6F6C7300150E0B0E11241FBECFEF22
:1001C000D8E0DEBFCDBF11E0A0E0B1E0E2E6F2E2B0
:1001D00002C005900D92AE31B107D9F722E0AEE131
:1001E000B1E001C01D92A532B207E1F710E0CCEDFD
:1001F000D0E004C02197FE010E940E11CB3DD10733
:10020000C9F70E94140A0C9424110C9400008091E8
:100210004B0190914C01019690934C0180934B01BE
:100220000895CF92DF92EF92FF920F931F93CF9397
:10023000DF936C017A018B01C0E0D0E0CE15DF05C1
:1002400089F0D8016D918D01D601ED91FC9101905D
:10025000F081E02DC6010995892B11F47E0102C0C1
:100260002196ECCFC701DF91CF911F910F91FF90A5
:10027000EF90DF90CF90089590E0FC01EE58FF4F93
:100280003491FC01E255FF4F2491FC01E656FF4FEB
:10029000E491EE2309F43BC0332339F1333091F07C
:1002A00038F43130A9F0323001F584B58F7D12C0B9
:1002B000373091F03830A1F03430B9F480918000BB
:1002C0008F7D03C0809180008F77809380000DC068
:1002D00084B58F7784BD09C08091B0008F7703C04B
:1002E0008091B0008F7D8093B000F0E0EE0FFF1F93
:1002F000E057FF4FA591B4918FB7F894EC9161113D
:1003000003C020952E2301C02E2B2C938FBF089560
:10031000CF93DF9390E0FC01E255FF4F2491FC0165
:10032000E656FF4F8491882361F190E0880F991F72
:10033000FC01E859FF4FC591D491FC01E057FF4FF4
:10034000A591B491611109C09FB7F8948881209557
:1003500082238883EC912E230BC0623061F49FB717
:10036000F8943881822F809583238883EC912E2BFB
:100370002C939FBF06C08FB7F894E8812E2B28835B
:100380008FBFDF91CF91089508950895DC015196B4
:10039000ED91FC915297908150968C918095892394
:1003A0008083089520914F0130915001281739071B
:1003B00071F490914D0180914E01981741F0E091B8
:1003C0004D01F0E0E05EFE4F808190E008958FEFF8
:1003D0009FEF0895089520914F0130915001281703
:1003E000390769F480914E0120914D0190E04096CB
:1003F000821B910960E170E00E94E610089580E0A0
:1004000090E0089520914F0130915001281739074D
:10041000B9F490914D0180914E01981789F0E091C7
:100420004D01F0E0E05EFE4F808120914D0130E013
:100430002F5F3F4F2F70332720934D0190E0089599
:100440008FEF9FEF0895E0914F01F0915001E81771
:10045000F90769F4A389B4899C91858980958923DA
:100460008C931092500110924F0181E0089580E02A
:100470000895CF93DF9381E591E00E942302C1E5C7
:10048000D1E061E08C850E94880161E08C85DF917C
:10049000CF910C943C0180916E0190916F01892B5A
:1004A00031F180914F019091500121E08135920707
:1004B000F1F0009711F00E942302809168018E7F75
:1004C0008093680110924E0110924D0181E591E0F8
:1004D0009093500180934F01E0916401F091650188
:1004E000908180916601892B808381E0089580E06E
:1004F0000895089580E090E008950F931F93CF939F
:10050000DF938C01EB010E94540EACEFB1E090E060
:1005100020E2981740F4A8014F5F5F4FF801049163
:100520000C938A0101C02C939F5F1196903189F73B
:10053000CE010E94540EACE0B2E090E020E29817A9
:1005400040F4AE014F5F5F4FFE01C491CC93EA01CE
:1005500001C02C939F5F1196903189F7DF91CF9165
:100560001F910F910895CF93DF93FC01019000201C
:10057000E9F73197E81B20E030E0F0E2A9014857A5
:100580005F4F2E1748F4EA01CC58DE4FDC01A20F72
:10059000B31FAC91A88304C0DA01AC58BE4FFC93E2
:1005A0002F5F3F4F2031310549F7FB0101900020BB
:1005B000E9F73197E61B80E090E040E29C01285685
:1005C0003F4F8E1748F4E901CC58DE4FDB01A80FEE
:1005D000B91F5C91588304C0D901AC58BE4F4C93ED
:1005E00001968031910551F7DF91CF910895CF9217
:1005F000DF92EF92FF920F931F93CF93DF93EC0163
:1006000089A19AA1009729F421E030E03B832A8355
:1006100071C00FB7F8948F8D98A1892B91F028E0C5
:1006200030E090E081E0482F462309F09F5F880F7B
:1006300021503109C1F7888D81119F5F192F1095C5
:1006400001C010E0F62ECE010E94C60189A19AA138
:100650000197F1F788E0C82ED12CEE24E3948E2D7B
:100660008F2139F0E989FA8990818889892B8083E3
:1006700003C0CE010E94C60189A19AA10197F1F79A
:10068000EE0C81E0C81AD10851F78E89882389F0D1
:10069000888D882339F0E989FA8990818889892BA6
:1006A000808303C0CE010E94C60189A19AA101974F
:1006B000F1F78F8D98A1892B81F010FF07C0E98990
:1006C000FA8990818889892B808303C0CE010E949A
:1006D000C6018F8D98A10197F1F7E989FA89908178
:1006E0008889892B80830FBF8D8D9E8D0197F1F7AF
:1006F00081E090E0DF91CF911F910F91FF90EF90FB
:10070000DF90CF9008950E9414112FB7F894609154
:1007100035017091360180913701909138012FBFDA
:1007200008951F920F920FB60F9211242F933F93AB
:100730008F939F93AF93BF93809135019091360132
:10074000A0913701B09138013091340123E0230F9B
:100750002D3720F40196A11DB11D05C026E8230FF9
:100760000296A11DB11D2093340180933501909311
:100770003601A0933701B0933801809130019091F8
:100780003101A0913201B09133010196A11DB11D3B
:100790008093300190933101A0933201B0933301E3
:1007A000BF91AF919F918F913F912F910F900FBE6D
:1007B0000F901F9018951F920F920FB60F92112451
:1007C0002F933F934F935F936F937F938F939F9359
:1007D000AF93BF93EF93FF93E0910201F091030178
:1007E0000995FF91EF91BF91AF919F918F917F916B
:1007F0006F915F914F913F912F910F900FBE0F908E
:100800001F9018951F920F920FB60F9211242F93DD
:100810003F934F935F936F937F938F939F93AF9388
:10082000BF93EF93FF93E0910001F09101010995CF
:10083000FF91EF91BF91AF919F918F917F916F91B8
:100840005F914F913F912F910F900FBE0F901F908E
:100850001895862798E027E087FF03C0880F822736
:1008600001C0880F9150C1F708951F920F920FB6E3
:100870000F9211242F933F934F935F936F937F9326
:100880008F939F93AF93BF93CF93DF93EF93FF9398
:10089000E0914F01F0915001309709F467C0C6858F
:1008A000D78588812585822309F060C0818D928D4E
:1008B0000197F1F7438D548D68E070E030E081E0FE
:1008C000DA011197F1F79881922311F0382B03C0C8
:1008D000982F90953923880F6150710989F780917D
:1008E0004E0190E001968F70992760914D01681735
:1008F00049F0A0914E01B0E0A05EBE4F3C938093C2
:100900004E0103C087898160878B86898823F1F037
:10091000CA010197F1F78881282381E090E0A0E0E7
:10092000B0E004C0880F991FAA1FBB1F2A95D2F7F9
:1009300040911E0150911F0160E070E0842B952BC7
:10094000A62BB72B90931F0180931E01878D90A13A
:10095000009711F00197F1F7858D968D0197F1F7CA
:10096000A389B4899C918589892B8C93FF91EF9100
:10097000DF91CF91BF91AF919F918F917F916F91B7
:100980005F914F913F912F910F900FBE0F901F904D
:1009900018950F931F93CF93C82F01E511E0F8012D
:1009A000608F682FC8010E94F702F801108E8C2F0B
:1009B000CF911F910F910895EF92FF920F931F9384
:1009C000CF93DF931F92CDB7DEB707E011E0EE249F
:1009D000E394F12CF80161918F01C70169830E94B2
:1009E000920E6981681719F0C7010E949A0EFFEFF5
:1009F000EF1AFF0A85E0E816F10461F787E091E05D
:100A00000F90DF91CF911F910F91FF90EF9008957C
:100A10002F923F924F925F926F927F928F929F920E
:100A2000AF92BF92CF92DF92EF92FF920F931F93FC
:100A3000CF93DF9300D000D01F92CDB7DEB75C011B
:100A40002A013B0120E030E0A901C301B2010E946C
:100A5000150F87FF05C020E030E040E05FEB04C0E9
:100A600020E030E040E05FE3C301B2010E94A90E44
:100A70006B017C0120E030E0A901C301B2010E94BA
:100A8000150F87FF04C0F7FAF094F7F8F094812C63
:100A9000912C8DEC89839CEC9A838CEC282E9DE321
:100AA000392E20E030E040E251E469817A81C101D1
:100AB0000E9479106D837B83182F092FA70196015F
:100AC000902F0E94150F181654F0EFEF8E1A9E0A01
:100AD000FD81F9838B818A83212E302EE2CF20E0A5
:100AE00030E0A901C301B2010E94150F87FF08C0C1
:100AF0008DE2F501808381E090E09C838B8302C0CE
:100B00001C821B828114910459F4EB81FC81EA0D53
:100B1000FB1D80E38083EB81FC813196FC83EB83BA
:100B200000E010E008151905B9F129813A81A10109
:100B3000C701B6010E941A0F0E948C0F2B013C01C5
:100B40006B817C81600F711F6A0D7B1D4AE0C201C1
:100B50000E945D0EB201550C880B990B0E94C40FC8
:100B600029813A81A1010E9479109B01AC01C70142
:100B7000B6010E94A80E6B017C0120E030E040E24B
:100B800051E469817A81C1010E941A0F69837A83D5
:100B90001C010F5F1F4FC6CF0A0D1B1DEB81FC818F
:100BA000E00FF11F1082C5010F900F900F900F9072
:100BB0000F90DF91CF911F910F91FF90EF90DF90F9
:100BC000CF90BF90AF909F908F907F906F905F90ED
:100BD0004F903F902F9008952F923F924F925F92A7
:100BE0006F927F928F929F92AF92BF92CF92DF923D
:100BF000EF92FF920F931F93CF93DF93C0901E024B
:100C0000D0901F02E0902002F09021020E94850304
:100C10002091F6012223E9F060E08EE70E94C904EA
:100C200061E082E90E94C90461E083E20E94C90494
:100C300061E08091F6010E94C90480910601882339
:100C400011F0815003C01092F60186E080930601F6
:100C500070C324EFC20E21E0D21EE11CF11C11E092
:100C6000C616D706E806F90608F010E060E08EE741
:100C70000E94C90461E08FE90E94C904111170C08B
:100C80008091F701A0917401B0917501E82FF0E017
:100C9000EE0FFF1FEA52FE4F20813181232B49F4D2
:100CA0008F5F282F30E02A173B0784F31092F7015B
:100CB00002C08093F7016091F701F6E0E0E026E0E2
:100CC00030E0E12C40E050E070E0CA01860F971F51
:100CD0008A179B07A4F5009709F1E394880F991FE1
:100CE000FC01EA54FE4F80818F718830A1F0813081
:100CF00019F4C901039615C0811103C0C9010296F8
:100D000010C0853019F4C90104960BC0893019F060
:100D1000C901019606C0C901059603C0C9012F2F5C
:100D20003E2F4F5F5F4F4031510551F08B319105A0
:100D300014F0EA9404C0F22FE32F9C01C6CFC9013E
:100D4000C82FC06481E0809369016C2F81E591E038
:100D50000E94F70260E08C2F0E942904C82F1DC05A
:100D6000E0912402F0E0EE0FFF1FE954FE4F808176
:100D7000C82FCF71829586958770C80FC85F81E0B4
:100D8000809369016C2F81E591E00E94F70260E099
:100D90008C2F0E942904C82FE12CD1E0D093690147
:100DA00061E181E591E00E94F7026C2F81E10E94F0
:100DB0002904C82FD093690164EA81E591E00E947B
:100DC000F7026C2F84EA0E942904C82FD09369018E
:100DD00062E081E591E00E94F7026C2F82E00E94C0
:100DE0002904C82FD093690166E081E591E00E9453
:100DF000F7026C2F86E00E942904C82FD093690166
:100E000060E081E591E00E94F702109269016C2F89
:100E100080E00E942904F82E1111EAC1C091F70167
:100E20006E2C6C0E2091740130917501C61551F035
:100E3000772473947C0E7092F7010C2F10E0021748
:100E4000130754F08091F70190E0821793070CF498
:100E50006CC21092F70169C2CC2309F4C7C1E091BA
:100E60002202F09123020995C295C07F680131E208
:100E7000C30ED11CC601880F991FFC01EC58FE4F10
:100E80005F0180818F7190E08530910509F4BEC0CB
:100E9000F4F5009709F495C0019709F0A7C1000F78
:100EA000111FF801EA52FE4F0190F081E02D008100
:100EB0001181C160D09369016C2F81E591E00E949E
:100EC000F7026F2D8C2F0E942904C82F1F79F5017E
:100ED000208122952695277030E0322F22273295E7
:100EE000330F307E022B132BD0936901602F81E5E5
:100EF00091E00E94F7026C2F802F0E942904082F96
:100F0000912F9F79F501C081C07EC92B74C08830B4
:100F1000910521F0099709F4C2C068C1C860D09357
:100F200069016C2F81E591E00E94F7026F2D8C2FF3
:100F30000E942904C82F000F111FF801EA52FE4F2A
:100F40000190F081E02D80819181A281B3816C01BB
:100F50007D01FFE9FF22D09369016C2D81E591E0CD
:100F60000E94F7026C2F8C2D0E942904C82F2D2C73
:100F70003E2C4F2C552447FC5A94D0936901622D86
:100F800081E591E00E94F7026C2F822D0E942904D6
:100F9000C82F1701552437FC5094452CD093690174
:100FA000622D81E591E00E94F7026C2F822D0E9454
:100FB0002904182F9F2D9F79F501C081C07EC92B70
:100FC00062C0000F111FF801EA52FE4F0190F0813C
:100FD000E02D1081D09369016C2F81E591E00E9492
:100FE000F7026F2D8C2F0E942904082F1F79F5011D
:100FF000C081C07EC12BD09369016C2F81E591E047
:101000000E94F70210926901602F47C0C560D0931B
:1010100069016C2F81E591E00E94F702109269014D
:101020006F2D8C2F0E942904F82E000F111FF8013C
:10103000EA52FE4F0190F081E02D118102819081F2
:10104000F5012081229526952770213011F0C0E00E
:1010500001C0C0E4C92BD0936901602F81E591E004
:101060000E94F7026F2D802F0E942904082FD09331
:101070006901612F81E591E00E94F702602F812FC5
:101080000E942904182FD09369016C2F81E591E00B
:101090000E94F70210926901612F8C2FA4C0C960D1
:1010A000D09369016C2F81E591E00E94F7026F2DCA
:1010B0008C2F0E942904C82F000F111FF801EA523B
:1010C000FE4F0190F081E02D80809180A280B3805E
:1010D00020E030E0A901C501B4010E947410181687
:1010E0001CF4C501B40103C0C501B40190580E94AD
:1010F000930F8B0180E090E00E94C20F9B01AC0136
:10110000C501B4010E94A80E2AE939E949E15FE36B
:101110000E94791020E030E543EC57E40E947910FA
:101120001B012C0120E030E0A9010E947410181668
:101130001CF4C201B10103C0C201B10190580E9468
:10114000930F562EF72E812F8170F601EE0FFF1FA1
:10115000EC58FE4F9081929596959770913011F0D2
:1011600090E001C090E2192F182B20E030E0A90197
:10117000C501B4010E94150F881F8827881F82951A
:10118000880F880F807C182BD0936901652D81E52D
:1011900091E00E94F7026C2F852D0E942904C82F30
:1011A000D09369016F2D81E591E00E94F7026C2FC9
:1011B0008F2D0E942904C82FD0936901602F81E5EB
:1011C00091E00E94F7026C2F802F0E942904C82F03
:1011D000D0936901612F81E591E00E94F70210929E
:1011E00069016C2F812F0E942904F82EC72D1ACE79
:1011F000C0912402D09369016C2F81E591E00E9497
:10120000F7026F2D8C2F0E942904B82E0C2F10E0AE
:101210006801CC0CDD1C960129543E4F4901F901AF
:101220002081922F9F71F8E09F9F700111242295D9
:1012300026952770E22AD09369016E2D81E591E011
:101240000E94F702109269016B2D8E2D0E942904D5
:10125000F82EF601EA58FE4FD081AD2EB1807724EA
:1012600073942A2D2D1B30E0F40180818F7190E062
:1012700028173907A4F4F501E490709269016E2DE6
:1012800081E591E00E94F702109269016F2D8E2D89
:101290000E942904F82EFFEFAF1ABF0AE2CF000F19
:1012A000111FD801AA56BE4FDC910D2F11961C912B
:1012B000960129543E4F6901BB24B394202F2D1B66
:1012C00030E0F601808182958695877090E028173E
:1012D00039079CF4F801E490B09269016E2D81E524
:1012E00091E00E94F702109269016F2D8E2D0E94ED
:1012F0002904F82E0F5F1F4FE1CFCF5FC093240268
:101300008C2F90E020917401309175018217930722
:1013100014F0109224020E94850360931E027093C1
:101320001F02809320029093210261E08F2D0E9482
:10133000C904E0912202F0912302099560E08EEF4A
:101340000E94C904CCEFD1E01C2F105E61E08991AE
:101350000E94C9041C13FACF60E08FEF0E94C904F9
:1013600081E0DF91CF911F910F91FF90EF90DF907F
:10137000CF90BF90AF909F908F907F906F905F9035
:101380004F903F902F900895CF92DF92FF920F934E
:101390001F93CF93DF932091740130917501203119
:1013A0003105CCF56B0189010F5F1F4FF801EE0F7E
:1013B000FF1FEC58FE4F91838083F901EE0FFF1F52
:1013C000EA56FE4F71836083F901EE0FFF1FEA5268
:1013D000FE4F11821082220F331FE901CA54DE4FE3
:1013E00018820E94540E982F9F718981807EF82E5A
:1013F000F92AC6010E94540E8295880F807E9F2D87
:101400009F71F92EF82AF9821093750100937401E7
:101410008FEF800F01C08FEFDF91CF911F910F9160
:10142000FF90DF90CF900895CF93DF93CDB7DEB7D5
:10143000E0970FB6F894DEBF0FBECDBF789484B5A9
:10144000826084BD84B5816084BD85B5826085BDC0
:1014500085B5816085BD80916E00816080936E004E
:101460001092810080918100826080938100809140
:1014700081008160809381008091800081608093F1
:1014800080008091B10084608093B1008091B000B1
:1014900081608093B00080917A00846080937A00AC
:1014A00080917A00826080937A0080917A008160D6
:1014B00080937A0080917A00806880937A001092FD
:1014C000C10061E08DE00E94880161E08DE00E9432
:1014D0003C0161E083E00E94880160E083E00E94BB
:1014E0003C0180913B0190913C01909305018093D8
:1014F00004016AEE70E088EF90E00E947D0281EEC8
:1015000090E090937701809376011092970110926A
:1015100096011092D7011092D6011092B60188E080
:101520008093B70181E090E09093750180937401FE
:1015300061E083E00E943C0161E083E00E94880159
:1015400071EBE72E70E0F72EF70184918093610133
:101550000DE910E0F801849190E0880F991F805701
:101560009F4FFC01259134913093630120936201D8
:1015700060E083E00E94880161E083E00E943C011A
:1015800083E080935D01F701E490E0925E01F80151
:101590000491E02FF0E0EE0FFF1FEA57FF4F859117
:1015A00094919093600180935F0181E08093670143
:1015B00085E991E0909373018093720129EB30E00B
:1015C00030936B0120936A0123E931E030936D0180
:1015D00020936C0146E554E050936F0140936E01F7
:1015E0003093710120937001209168002460209352
:1015F00068002DE630E0309365012093640128E017
:10160000209366010197F1F70E944B020E94390274
:1016100062E082E00E94880187E091E090930101FE
:1016200080930001809169008C7F816080936900C4
:10163000E89A80E090E00E94920E813039F00E949A
:10164000DC0461E080E090E00E949A0E67E0E62E04
:1016500061E0F62E01E010E0C8010E94920EF70151
:1016600081937F010F5F1F4F05301105A9F762EDD0
:1016700070E085ED90E00E94C409803188F490E02C
:10168000FC01EE0FFF1FEA52FE4F27E431E03183E9
:101690002083880F991FFC01EA54FE4F88E0808365
:1016A00062EC70E087EC90E00E94C409803188F41D
:1016B00090E0FC01EE0FFF1FEA52FE4F2DE331E0F8
:1016C00031832083880F991FFC01EA54FE4F88E084
:1016D00080830E94EC0560E08DE00E943C0183E67F
:1016E000282E312C00914B0110914C01B801012E94
:1016F000000C880B990B0E94C40F20E030E040ECF6
:1017000051E40E941A0F6B017C0120910701309176
:1017100008014091090150910A0160E070E08AE7F8
:1017200094E40E941A0F9B01AC01C701B6010E940C
:1017300079100E948C0F6093470170934801809349
:10174000490190934A010E94850380904301909043
:101750004401A0904501B090460175016401F8EE86
:10176000CF0EF3E0DF1EE11CF11CC616D706E8061B
:10177000F90640F40E94850369387341810591059B
:1017800008F0C6C180913B0190913C0185309105E4
:1017900021F010923A011092390120910401309108
:1017A00005012817390721F0909305018093040162
:1017B0008230910509F483C00CF04DC0009709F404
:1017C00079C0019709F0A2C019A2198A61E971E0F4
:1017D000CE0181960E94490E198260914701709155
:1017E00048018091490190914A010E94C40FAB01C8
:1017F000BC01CE0101960E940805BE016F5F7F4FBC
:10180000CE0181960E9419116EE871E0CE01819699
:101810000E94490E67E871E0CE0141960E94490E90
:10182000198260913D0170913E0180913F0190913C
:1018300040010E94C40FAB01BC01CE0101960E9481
:101840000805BE016F5F7F4FCE0141960E941911BE
:1018500062E871E049C08530910509F451C08336D2
:101860009105C1F1039709F051C019A2198A6AE5DF
:1018700071E0CE0181960E94490E198240910701C4
:10188000509108016091090170910A01CE01019601
:101890000E940805BE016F5F7F4FCE0181960E94B6
:1018A000191167E571E0CE0181960E94490E67E447
:1018B00071E01AC068E971E086EA91E025C019A2DA
:1018C000198A62E771E0CE0181960E94490E64E6B2
:1018D00071E00AC019A2198A66E371E0CE0181960F
:1018E0000E94490E66E271E0CE0141960E94490EC7
:1018F000BE016F5E7F4FCE0181960E94B30206C08B
:1019000068E071E086E191E00E947D0281E591E06E
:101910000E9423020E9439020E94EC0560E080913F
:101920005D010E94880161E080915D010E943C019F
:101930000E944B020E944B020E9485036B017C01B6
:10194000E4E6CE0ED11CE11CF11C00E010E00E9488
:1019500085036C157D058E059F0578F581E591E081
:101960000E94EB011816190694F781E591E00E9498
:10197000EB011816190614F000E01AC081E591E099
:101980000E940202082F80911D02801327C18090BF
:10199000F8019090F901A090FA01B090FB010E942B
:1019A000850386169706A806B90608F417C1E4CF82
:1019B00010E00115110559F229C1003F110509F484
:1019C0009FC00115110509F49BC00039110509F4E8
:1019D00058C044F40036110509F476C000371105EB
:1019E00001F18EC0003D1105A1F1003E110529F065
:1019F000003B110509F084C038C080913B019091F3
:101A00003C018530910509F47BC08330910539F4A0
:101A10000E94DC0430923C0120923B0171C001968F
:101A200013C080913B0190913C018336910521F4D4
:101A300010923C0110923B0180913B0190913C013E
:101A4000009709F45DC0019790933C0180933B019E
:101A500057C080913B0190913C01039709F050C021
:101A600020E030E040E85FE324C080913B019091AA
:101A70003C01039709F044C020E030E040E85FE318
:101A80002DC080913B0190913C01029741F410924E
:101A90004C0110924B0130923C0120923B0180910D
:101AA0003B0190913C01039759F520E030E040E282
:101AB00051E46091070170910801809109019091B2
:101AC0000A010E94A90E14C080913B0190913C0133
:101AD0000397B1F420E030E040E251E46091070167
:101AE000709108018091090190910A010E94A80E4D
:101AF00060930701709308018093090190930A0194
:101B000080E090E0892B09F4EDCD0E940000EACD41
:101B10000E9485036B017C0160914B0170914C0127
:101B20008091410190914201681B790B072E000CB6
:101B3000880B990B0E94C40F20E030E040EC51E488
:101B40000E941A0F20E030E040E752E40E94791032
:101B50002B013C01B60168197909072E000C880B8E
:101B6000990B0E94C40F20E030E04AE754E40E9441
:101B70001A0F9B01AC01C301B2010E941A0F6B0145
:101B80007C01209107013091080140910901509199
:101B90000A0160E070E08AE794E40E941A0F9B015A
:101BA000AC01C701B6010E9479100E948C0F6093AE
:101BB0003D0170933E0180933F01909340010E944C
:101BC0008503609343017093440180934501909392
:101BD00046011093420100934101D4CD0E94850338
:101BE000DC01CB0180579E4FAF4FBF4F8093F80170
:101BF0009093F901A093FA01B093FB0100931D02A9
:101C0000003F09F0D5CE00EF10E0A1CE003F110556
:101C100009F0DBCE75CF8FE091E090935201809375
:101C2000510181E591E00C942302E1E5F1E013829A
:101C3000128288EE93E0A0E0B0E084839583A683CF
:101C4000B7838FE091E091838083A8E6B1E08C9127
:101C50008E7F8C93128E118E148E138E168E158E8F
:101C600012A211A21092F8011092F9011092FA0139
:101C70001092FB011092F6011092750110927401FE
:101C80001092F70185EC91E0909323028093220259
:101C90000895FB01DC010D900020E9F711970590F4
:101CA0000D920020E1F70895FC0105900020E9F76E
:101CB000809590958E0F9F1F0895BB274A3031F471
:101CC000992322F4BDE2909581959F4F0C94690E63
:101CD000BB27FB015527AA27880F991FAA1FA41706
:101CE00010F0A41B83955051B9F7A05DAA3308F0FA
:101CF000A95DA193009779F7B111B1931192CB012E
:101D00000C94820EDC01FC01672F71917723E1F7BF
:101D1000329704C07C916D9370836291AE17BF07B8
:101D2000C8F30895F999FECF92BD81BDF89A99271D
:101D300080B50895262FF999FECF1FBA92BD81BDB7
:101D400020BD0FB6F894FA9AF99A0FBE019608953D
:101D50005058BB27AA270E94C00E0C943A100E942C
:101D60002C1038F00E94331020F039F49F3F19F402
:101D700026F40C9429100EF4E095E7FB0C94231044
:101D8000E92F0E944B1058F3BA17620773078407B4
:101D9000950720F079F4A6F50C946D100EF4E095FB
:101DA0000B2EBA2FA02D0B01B90190010C01CA0115
:101DB000A0011124FF27591B99F0593F50F4503EC0
:101DC00068F11A16F040A22F232F342F4427585FB2
:101DD000F3CF469537952795A795F0405395C9F7CA
:101DE0007EF41F16BA0B620B730B840BBAF0915082
:101DF000A1F0FF0FBB1F661F771F881FC2F70EC021
:101E0000BA0F621F731F841F48F4879577956795F3
:101E1000B795F7959E3F08F0B0CF9395880F08F0DF
:101E20009927EE0F9795879508950E94FF0F08F464
:101E300081E008950E942E0F0C943A100E943310F6
:101E400058F00E942C1040F029F45F3F29F00C94C8
:101E5000231051110C946E100C9429100E944B10F9
:101E600068F39923B1F3552391F3951B550BBB27C9
:101E7000AA2762177307840738F09F5F5F4F220F0E
:101E8000331F441FAA1FA9F335D00E2E3AF0E0E805
:101E900032D091505040E695001CCAF72BD0FE2F4F
:101EA00029D0660F771F881FBB1F261737074807E3
:101EB000AB07B0E809F0BB0B802DBF01FF2793589B
:101EC0005F4F3AF09E3F510578F00C9423100C942C
:101ED0006E105F3FE4F3983ED4F38695779567954F
:101EE000B795F7959F5FC9F7880F911D96958795D0
:101EF00097F90895E1E0660F771F881FBB1F6217EF
:101F000073078407BA0720F0621B730B840BBA0BAC
:101F1000EE1F88F7E09508950E94930F6894B11121
:101F20000C946E1008950E94531088F09F5798F0FB
:101F3000B92F9927B751B0F0E1F0660F771F881FCE
:101F4000991F1AF0BA95C9F714C0B13091F00E94E8
:101F50006D10B1E008950C946D10672F782F8827CD
:101F6000B85F39F0B93FCCF3869577956795B3950F
:101F7000D9F73EF490958095709561957F4F8F4F7E
:101F80009F4F0895E89409C097FB3EF49095809583
:101F9000709561957F4F8F4F9F4F9923A9F0F92F2F
:101FA00096E9BB279395F695879577956795B795AD
:101FB000F111F8CFFAF4BB0F11F460FF1BC06F5F93
:101FC0007F4F8F4F9F4F16C0882311F096E911C0A5
:101FD000772321F09EE8872F762F05C0662371F0C6
:101FE00096E8862F70E060E02AF09A95660F771FDA
:101FF000881FDAF7880F9695879597F90895990FB6
:102000000008550FAA0BE0E8FEEF16161706E807C2
:10201000F907C0F012161306E407F50798F0621BE3
:10202000730B840B950B39F40A2661F0232B242BB8
:10203000252B21F408950A2609F4A140A6958FEFD7
:10204000811D811D089597F99F6780E870E060E029
:1020500008959FEF80EC089500240A941616170641
:1020600018060906089500240A9412161306140689
:1020700005060895092E0394000C11F4882352F0EC
:10208000BB0F40F4BF2B11F460FF04C06F5F7F4FA4
:102090008F4F9F4F089557FD9058440F551F59F08B
:1020A0005F3F71F04795880F97FB991F61F09F3F45
:1020B00079F087950895121613061406551FF2CF6E
:1020C0004695F1DF08C0161617061806991FF1CFBE
:1020D00086957105610508940895E894BB276627E5
:1020E0007727CB0197F908950E94FF0F08F48FEF2F
:1020F00008950E948C100C943A100E942C1038F015
:102100000E94331020F0952311F00C9423100C94AE
:10211000291011240C946E100E944B1070F3959F9F
:10212000C1F3950F50E0551F629FF001729FBB27CE
:10213000F00DB11D639FAA27F00DB11DAA1F649F6A
:102140006627B00DA11D661F829F2227B00DA11D1D
:10215000621F739FB00DA11D621F839FA00D611DA3
:10216000221F749F3327A00D611D231F849F600DC4
:10217000211D822F762F6A2F11249F5750409AF0ED
:10218000F1F088234AF0EE0FFF1FBB1F661F771F79
:10219000881F91505040A9F79E3F510580F00C9444
:1021A00023100C946E105F3FE4F3983ED4F38695B1
:1021B00077956795B795F795E7959F5FC1F7FE2BE4
:1021C000880F911D9695879597F9089597FB072E8F
:1021D00016F4009407D077FD09D00E94FA1007FC8E
:1021E00005D03EF4909581959F4F08957095619527
:1021F0007F4F0895AA1BBB1B51E107C0AA1FBB1F3D
:10220000A617B70710F0A61BB70B881F991F5A9582
:10221000A9F780959095BC01CD010895EE0FFF1FA1
:102220000590F491E02D099481E090E0F8940C94ED
:102230002411FB01DC010D900020E9F711970190BA
:102240000D920020E1F7089510E0CCEDD0E004C03D
:10225000FE010E940E112196CD3DD107C9F7F894D9
:02226000FFCFAE
:10226200C401C40101000600007A4400000000F726
:0E2272000211017A02EA01EB010202D2010020
:00000001FF
