:100000000C940D010C9401050C94DA040C94340545
:100010000C9434050C9434050C9435010C94350182
:100020000C9435010C9435010C9435010C94350178
:100030000C9435010C9435010C9435010C94350168
:100040000C9490040C9435010C9435010C943501FA
:100050000C9435010C9435010C9435010C94350148
:100060000C9435010C9435016D0E720EB90EC40E50
:10007000ED0E1D0F400F560F00000000240027005A
:100080002A0000000000250028002B0025005265F2
:100090006D61696E696E67006D6C2F6D00466C6FE7
:1000A00077205370656564006D6C00436F6E7375E7
:1000B0006D7074696F6E00524354204675656C0014
:1000C00020204675656C2053656E736F7200205258
:1000D0004354204A65746920546F6F6C73000000AC
:1000E000000023002600290004040404040404047E
:1000F00002020202020203030303030301020408D3
:100100001020408001020408102001020408102081
:1001100000000008000201000003040700000000C6
:100120000000000020204675656C2053656E736FDB
:10013000720020524354204A65746920546F6F6CDA
:100140007300527374205570446E2053617665209D
:100150003E005265736574206F72205361766500AE
:100160004368616E676520446E204E657874203E5A
:1001700000596573004E6F004469672E52657365C0
:10018000743A200052737420446E2020204E65780B
:1001900074203E00446F6E65210043616C69627299
:1001A0002E3A2000527374204C655269204E6578B7
:1001B00074203E006D6C0054616E6B206361703A78
:1001C000200052737420446E2020204E65787420E5
:1001D0003E00526573657420436F6E73756D707465
:1001E0002E006D6C2F6D00466C6F773A20006D6CA1
:1001F00000436F6E733A200020204675656C2053D3
:10020000656E736F720020524354204A65746920F2
:10021000546F6F6C7300C511BB1111241FBECFEF5B
:10022000D8E0DEBFCDBF11E0A0E0B1E0E4E4FAE247
:1002300002C005900D92AC31B107D9F722E0ACE1D4
:10024000B1E001C01D92A134B207E1F711E0CCE0AA
:10025000D1E004C02197FE010E94C914CB30D10720
:10026000C9F70E941B0B0C9415150C94000080918B
:10027000650190916601A0916701B09168010196B6
:10028000A11DB11D8093650190936601A093670144
:10029000B09368010895CF92DF92EF92FF920F938F
:1002A0001F93CF93DF936C017A018B01C0E0D0E004
:1002B000CE15DF0589F0D8016D918D01D601ED9144
:1002C000FC910190F081E02DC6010995892B11F474
:1002D0007E0102C02196ECCFC701DF91CF911F9123
:1002E0000F91FF90EF90DF90CF900895833081F0D1
:1002F00028F4813099F08230A1F008958730A9F078
:100300008830B9F08430D1F4809180008F7D03C0B3
:10031000809180008F7780938000089584B58F77D7
:1003200002C084B58F7D84BD08958091B0008F7721
:1003300003C08091B0008F7D8093B00008951F931B
:10034000CF93DF93282F30E0F901E05FFE4F8491D7
:10035000F901E450FF4FD491F901E851FF4FC491E6
:10036000CC23C9F0162F81110E947601EC2FF0E00A
:10037000EE0FFF1FEE57FF4FA591B4918FB7F89482
:10038000111105C09C91ED2FE095E92302C0EC917D
:10039000ED2BEC938FBFDF91CF911F910895CF93F9
:1003A000DF9390E0FC01E450FF4F2491FC01E85101
:1003B000FF4F8491882361F190E0880F991FFC0121
:1003C000E858FF4FC591D491FC01EE57FF4FA5911E
:1003D000B491611109C09FB7F89488812095822358
:1003E0008883EC912E230BC0623061F49FB7F894A0
:1003F0003881822F809583238883EC912E2B2C9338
:100400009FBF06C08FB7F894E8812E2B28838FBF3B
:10041000DF91CF9108953FB7F89480913301909187
:100420003401A0913501B091360126B5A89B05C0D5
:100430002F3F19F00196A11DB11D3FBFBA2FA92F63
:10044000982F8827820F911DA11DB11DBC01CD01E0
:1004500042E0660F771F881F991F4A95D1F70895CC
:100460008F929F92AF92BF92CF92DF92EF92FF92C4
:100470000E940B024B015C0188ECC82ED12CE12CB0
:10048000F12C0E940B02DC01CB0188199909AA0901
:10049000BB09883E9340A105B10558F021E0C21A7E
:1004A000D108E108F10888EE880E83E0981EA11CAF
:1004B000B11CC114D104E104F10419F7FF90EF90CD
:1004C000DF90CF90BF90AF909F908F900895089548
:1004D0000895DC015196ED91FC91529790815096D0
:1004E0008C91809589238083089520916B013091B0
:1004F0006C012817390771F49091690180916A01A4
:10050000981741F0E0916901F0E0E25EFE4F8081D2
:1005100090E008958FEF9FEF0895089520916B016B
:1005200030916C012817390769F480916A01209194
:10053000690190E04096821B910960E170E00E94A1
:100540009614089580E090E0089520916B01309119
:100550006C0128173907B9F49091690180916A01FB
:10056000981789F0E0916901F0E0E25EFE4F80812A
:100570002091690130E02F5F3F4F2F703327209388
:10058000690190E008958FEF9FEF0895E0916B016E
:10059000F0916C01E817F90769F4A389B4899C917B
:1005A0008589809589238C9310926C0110926B0140
:1005B00081E0089580E00895CF93DF938DE691E088
:1005C0000E94C602CDE6D1E061E08C850E94CF0199
:1005D00061E08C85DF91CF910C949F0180918A011D
:1005E00090918B01892B31F180916B0190916C017D
:1005F00021E08D369207F1F0009711F00E94C602BB
:10060000809184018E7F8093840110926A01109200
:1006100069018DE691E090936C0180936B01E0910C
:100620008001F0918101908180918201892B8083EA
:1006300081E0089580E00895089580E090E00895B5
:100640000F931F93CF93DF938C01EB010E94041251
:10065000A8E1B2E090E020E2981740F4A8014F5FD3
:100660005F4FF80104910C938A0101C02C939F5FA6
:100670001196903189F7CE010E940412A8E2B2E0EF
:1006800090E020E2981740F4AE014F5F5F4FFE010B
:10069000C491CC93EA0101C02C939F5F11969031D5
:1006A00089F7DF91CF911F910F910895CF93DF9339
:1006B000FC0101900020E9F73197E81B20E030E0D1
:1006C000F0E2A90148575F4F2E1748F4EA01C057DE
:1006D000DE4FDC01A20FB31FAC91A88304C0DA0186
:1006E000A057BE4FFC932F5F3F4F2031310549F794
:1006F000FB0101900020E9F73197E61B80E090E0D4
:1007000040E29C0128563F4F8E1748F4E901C0573C
:10071000DE4FDB01A80FB91F5C91588304C0D901DB
:10072000A057BE4F4C9301968031910551F7DF9150
:10073000CF910895CF92DF92EF92FF920F931F9384
:10074000CF93DF93EB017B0124E0E20EF11C8B01E0
:100750006C01C61AD70AC601800F911F0E9442126F
:10076000F80181938F01EE15FF05A9F7CE01DF9106
:10077000CF911F910F91FF90EF90DF90CF90089550
:10078000CF92DF92EF92FF920F931F93CF93DF935D
:10079000EC0189A19AA1009729F421E030E03B8384
:1007A0002A8371C00FB7F8948F8D98A1892B91F08F
:1007B00028E030E090E081E0482F462309F09F5F79
:1007C000880F21503109C1F7888D81119F5F192F42
:1007D000109501C010E0F62ECE010E94690289A199
:1007E0009AA10197F1F788E0C82ED12CEE24E3946A
:1007F0008E2D8F2139F0E989FA8990818889892B9A
:10080000808303C0CE010E94690289A19AA1019749
:10081000F1F7EE0C81E0C81AD10851F78E898823D0
:1008200089F0888D882339F0E989FA89908188894F
:10083000892B808303C0CE010E94690289A19AA1FD
:100840000197F1F78F8D98A1892B81F010FF07C0D8
:10085000E989FA8990818889892B808303C0CE0138
:100860000E9469028F8D98A10197F1F7E989FA89B1
:1008700090818889892B80830FBF8D8D9E8D0197F4
:10088000F1F781E090E0DF91CF911F910F91FF9000
:10089000EF90DF90CF9008950E940515AF92BF9220
:1008A000CF92DF92EF92FF920F931F93CF93DF933C
:1008B0001F92CDB7DEB75C017B018B016C0184E038
:1008C000C80ED11CF80161918F01C50169830E9496
:1008D00042126981681719F0C5010E944A12FFEFA0
:1008E000AF1ABF0AAC14BD0469F7C7010F90DF91BE
:1008F000CF911F910F91FF90EF90DF90CF90BF901D
:10090000AF9008950C944A122FB7F89460912F017C
:100910007091300180913101909132012FBF089583
:100920001F920F920FB60F9211242F933F938F9324
:100930009F93AF93BF9380912F0190913001A0912D
:100940003101B091320130912E0123E0230F2D3778
:1009500020F40196A11DB11D05C026E8230F0296C3
:10096000A11DB11D20932E0180932F019093300182
:10097000A0933101B0933201809133019091340101
:10098000A0913501B09136010196A11DB11D809352
:10099000330190933401A0933501B0933601BF9198
:1009A000AF919F918F913F912F910F900FBE0F901C
:1009B0001F9018951F920F920FB60F9211242F932C
:1009C0003F934F935F936F937F938F939F93AF93D7
:1009D000BF93EF93FF93E0910201F091030109951A
:1009E000FF91EF91BF91AF919F918F917F916F9107
:1009F0005F914F913F912F910F900FBE0F901F90DD
:100A000018951F920F920FB60F9211242F933F93B8
:100A10004F935F936F937F938F939F93AF93BF9306
:100A2000EF93FF93E0910001F09101010995FF918F
:100A3000EF91BF91AF919F918F917F916F915F9156
:100A40004F913F912F910F900FBE0F901F901895CF
:100A5000862798E027E087FF03C0880F822701C020
:100A6000880F9150C1F708951F920F920FB60F9201
:100A700011242F933F934F935F936F937F938F93A3
:100A80009F93AF93BF93CF93DF93EF93FF93E09147
:100A90006B01F0916C01309709F467C0C685D7856A
:100AA00088812585822309F060C0818D928D019710
:100AB000F1F7438D548D68E070E030E081E0DA01B9
:100AC0001197F1F79881922311F0382B03C0982FDA
:100AD00090953923880F6150710989F780916A01D7
:100AE00090E001968F70992760916901681749F02D
:100AF000A0916A01B0E0A25EBE4F3C9380936A0170
:100B000003C087898160878B86898823F1F0CA01B9
:100B10000197F1F78881282381E090E0A0E0B0E020
:100B200004C0880F991FAA1FBB1F2A95D2F74091B6
:100B30001C0150911D0160E070E0842B952BA62BC9
:100B4000B72B90931D0180931C01878D90A1009776
:100B500011F00197F1F7858D968D0197F1F7A38933
:100B6000B4899C918589892B8C93FF91EF91DF91BA
:100B7000CF91BF91AF919F918F917F916F915F9135
:100B80004F913F912F910F900FBE0F901F9018958E
:100B90000F931F93CF93C82F0DE611E0F801608FDC
:100BA000682FC8010E94C003F801108E8C2FCF91CE
:100BB0001F910F910895AF92BF92CF92DF92EF9263
:100BC000FF920F931F93CF93DF931F92CDB7DEB7A2
:100BD0005C017B018B016C0182E0C80ED11CF80125
:100BE00061918F01C50169830E9442126981681772
:100BF00019F0C5010E944A12FFEFAF1ABF0AAC14E8
:100C0000BD0469F7C7010F90DF91CF911F910F913C
:100C1000FF90EF90DF90CF90BF90AF9008952F920C
:100C20003F924F925F926F927F928F929F92AF927C
:100C3000BF92CF92DF92EF92FF920F931F93CF93C9
:100C4000DF9300D000D01F92CDB7DEB75C012A0140
:100C50003B0120E030E0A901C301B2010E94C512AE
:100C600087FF05C020E030E040E05FEB04C020E0FB
:100C700030E040E05FE3C301B2010E9459126B0112
:100C80007C0120E030E0A901C301B2010E94C5123D
:100C900087FF04C0F7FAF094F7F8F094812C912CB8
:100CA0008DEC89839CEC9A838CEC282E9DE3392E65
:100CB00020E030E040E251E469817A81C1010E9484
:100CC00029146D837B83182F092FA7019601902F7C
:100CD0000E94C512181654F0EFEF8E1A9E0AFD817D
:100CE000F9838B818A83212E302EE2CF20E030E001
:100CF000A901C301B2010E94C51287FF08C08DE29D
:100D0000F501808381E090E09C838B8302C01C828C
:100D10001B828114910459F4EB81FC81EA0DFB1DC7
:100D200080E38083EB81FC813196FC83EB8300E0E0
:100D300010E008151905B9F129813A81A101C7010F
:100D4000B6010E94CA120E943C132B013C016B8128
:100D50007C81600F711F6A0D7B1D4AE0C2010E94F9
:100D60000D12B201550C880B990B0E947413298146
:100D70003A81A1010E9429149B01AC01C701B6016F
:100D80000E9458126B017C0120E030E040E251E407
:100D900069817A81C1010E94CA1269837A831C0128
:100DA0000F5F1F4FC6CF0A0D1B1DEB81FC81E00FAB
:100DB000F11F1082C5010F900F900F900F900F90B0
:100DC000DF91CF911F910F91FF90EF90DF90CF9027
:100DD000BF90AF909F908F907F906F905F904F905B
:100DE0003F902F9008952F923F924F925F926F9273
:100DF0007F928F929F92AF92BF92CF92DF92EF92AB
:100E0000FF920F931F93CF93DF93C0903A02D0903D
:100E10003B02E0903C02F0903D020E94840420914D
:100E200012022223E9F060E08EE70E94C80561E02B
:100E300082E90E94C80561E083E20E94C80561E082
:100E4000809112020E94C80580910801882311F048
:100E5000815003C01092120286E08093080170C393
:100E600024EFC20E21E0D21EE11CF11C11E0C616D7
:100E7000D706E806F90608F010E060E08EE70E9469
:100E8000C80561E08FE90E94C805111170C080910A
:100E90001302A0919001B0919101E82FF0E0EE0FC4
:100EA000FF1FEE50FE4F20813181232B49F48F5FCD
:100EB000282F30E02A173B0784F31092130202C058
:100EC0008093130260911302F6E0E0E026E030E048
:100ED000E12C40E050E070E0CA01860F971F8A17AE
:100EE0009B07A4F5009709F1E394880F991FFC0173
:100EF000EE52FE4F80818F718830A1F0813019F45D
:100F0000C901039615C0811103C0C901029610C022
:100F1000853019F4C90104960BC0893019F0C90154
:100F2000019606C0C901059603C0C9012F2F3E2FA7
:100F30004F5F5F4F4031510551F08B31910514F0F7
:100F4000EA9404C0F22FE32F9C01C6CFC901C82F39
:100F5000C06481E0809385016C2F8DE691E00E9452
:100F6000C00360E08C2F0E942805C82F1DC0E091AF
:100F70004002F0E0EE0FFF1FED52FE4F8081C82FC0
:100F8000CF71829586958770C80FC85F81E0809386
:100F900085016C2F8DE691E00E94C00360E08C2FEC
:100FA0000E942805C82FE12CD1E0D093850161E192
:100FB0008DE691E00E94C0036C2F81E10E9428051C
:100FC000C82FD093850164EA8DE691E00E94C003AA
:100FD0006C2F84EA0E942805C82FD093850162E017
:100FE0008DE691E00E94C0036C2F82E00E942805EC
:100FF000C82FD093850166E08DE691E00E94C00382
:101000006C2F86E00E942805C82FD093850160E0F0
:101010008DE691E00E94C003109285016C2F80E064
:101020000E942805F82E1111EAC1C09113026E2CFE
:101030006C0E2091900130919101C61551F07724EA
:1010400073947C0E709213020C2F10E0021713079A
:1010500054F08091130290E0821793070CF46CC255
:101060001092130269C2CC2309F4C7C1E0913E0279
:10107000F0913F020995C295C07F680131E2C30E2D
:10108000D11CC601880F991FFC01E057FE4F5F017C
:1010900080818F7190E08530910509F4BEC0F4F530
:1010A000009709F495C0019709F0A7C1000F111F1F
:1010B000F801EE50FE4F0190F081E02D008111818A
:1010C000C160D09385016C2F8DE691E00E94C00332
:1010D0006F2D8C2F0E942805C82F1F79F5012081C4
:1010E00022952695277030E0322F22273295330F34
:1010F000307E022B132BD0938501602F8DE691E07B
:101100000E94C0036C2F802F0E942805082F912F6A
:101110009F79F501C081C07EC92B74C088309105CC
:1011200021F0099709F4C2C068C1C860D093850155
:101130006C2F8DE691E00E94C0036F2D8C2F0E94D2
:101140002805C82F000F111FF801EE50FE4F019027
:10115000F081E02D80819181A281B3816C017D01BC
:10116000FFE9FF22D09385016C2D8DE691E00E946E
:10117000C0036C2F8C2D0E942805C82F2D2C3E2CCF
:101180004F2C552447FC5A94D0938501622D8DE64F
:1011900091E00E94C0036C2F822D0E942805C82F69
:1011A0001701552437FC5094452CD0938501622DAE
:1011B0008DE691E00E94C0036C2F822D0E942805CD
:1011C000182F9F2D9F79F501C081C07EC92B62C069
:1011D000000F111FF801EE50FE4F0190F081E02D3D
:1011E0001081D09385016C2F8DE691E00E94C003A1
:1011F0006F2D8C2F0E942805082F1F79F501C081C3
:10120000C07EC12BD09385016C2F8DE691E00E94AA
:10121000C00310928501602F47C0C560D09385013F
:101220006C2F8DE691E00E94C003109285016F2D16
:101230008C2F0E942805F82E000F111FF801EE5088
:10124000FE4F0190F081E02D118102819081F50126
:101250002081229526952770213011F0C0E001C031
:10126000C0E4C92BD0938501602F8DE691E00E94E8
:10127000C0036F2D802F0E942805082FD093850171
:10128000612F8DE691E00E94C003602F812F0E94A4
:101290002805182FD09385016C2F8DE691E00E94D0
:1012A000C00310928501612F8C2FA4C0C960D09318
:1012B00085016C2F8DE691E00E94C0036F2D8C2F6D
:1012C0000E942805C82F000F111FF801EE50FE4F95
:1012D0000190F081E02D80809180A280B38020E099
:1012E00030E0A901C501B4010E94241418161CF4B1
:1012F000C501B40103C0C501B40190580E94431355
:101300008B0180E090E00E9472139B01AC01C5014B
:10131000B4010E9458122AE939E949E15FE30E94C9
:10132000291420E030E543EC57E40E9429141B0106
:101330002C0120E030E0A9010E94241418161CF4AE
:10134000C201B10103C0C201B10190580E94431310
:10135000562EF72E812F8170F601EE0FFF1FE057FA
:10136000FE4F9081929596959770913011F090E094
:1013700001C090E2192F182B20E030E0A901C5012F
:10138000B4010E94C512881F8827881F8295880F84
:10139000880F807C182BD0938501652D8DE691E018
:1013A0000E94C0036C2F852D0E942805C82FD09362
:1013B00085016F2D8DE691E00E94C0036C2F8F2D6B
:1013C0000E942805C82FD0938501602F8DE691E0FB
:1013D0000E94C0036C2F802F0E942805C82FD09335
:1013E0008501612F8DE691E00E94C0031092850176
:1013F0006C2F812F0E942805F82EC72D1ACEC09180
:101400004002D09385016C2F8DE691E00E94C003CD
:101410006F2D8C2F0E942805B82E0C2F10E068012C
:10142000CC0CDD1C96012D523E4F4901F901208163
:10143000922F9F71F8E09F9F7001112422952695AD
:101440002770E22AD09385016E2D8DE691E00E94EF
:10145000C003109285016B2D8E2D0E942805F82E59
:10146000F601EE56FE4FD081AD2EB18077247394F5
:101470002A2D2D1B30E0F40180818F7190E0281718
:101480003907A4F4F501E490709285016E2D8DE684
:1014900091E00E94C003109285016F2D8E2D0E9455
:1014A0002805F82EFFEFAF1ABF0AE2CF000F111F79
:1014B000D801AE54BE4FDC910D2F11961C919601B0
:1014C0002D523E4F6901BB24B394202F2D1B30E0D9
:1014D000F601808182958695877090E028173907FC
:1014E0009CF4F801E490B09285016E2D8DE691E0B8
:1014F0000E94C003109285016F2D8E2D0E94280539
:10150000F82E0F5F1F4FE1CFCF5FC09340028C2FAB
:1015100090E020919001309191018217930714F08F
:10152000109240020E94840460933A0270933B023E
:1015300080933C0290933D0261E08F2D0E94C8058C
:10154000E0913E02F0913F02099560E08EEF0E942B
:10155000C805C8E1D2E01C2F105E61E089910E94AD
:10156000C8051C13FACF60E08FEF0E94C80581E028
:10157000DF91CF911F910F91FF90EF90DF90CF906F
:10158000BF90AF909F908F907F906F905F904F90A3
:101590003F902F900895CF92DF92FF920F931F9369
:1015A000CF93DF932091900130919101203131054B
:1015B000CCF56B0189010F5F1F4FF801EE0FFF1F84
:1015C000E057FE4F91838083F901EE0FFF1FEE5429
:1015D000FE4F71836083F901EE0FFF1FEE50FE4F47
:1015E00011821082220F331FE901CE52DE4F188282
:1015F0000E940412982F9F718981807EF82EF92A0B
:10160000C6010E9404128295880F807E9F2D9F71D3
:10161000F92EF82AF98210939101009390018FEF2F
:10162000800F01C08FEFDF91CF911F910F91FF903D
:10163000DF90CF900895CF93DF93CDB7DEB7E797D4
:101640000FB6F894DEBF0FBECDBF789484B582602C
:1016500084BD84B5816084BD85B5826085BD85B556
:10166000816085BD80916E00816080936E001092D4
:10167000810080918100826080938100809181004F
:1016800081608093810080918000816080938000E0
:101690008091B10084608093B1008091B00081603E
:1016A0008093B00080917A00846080937A0080916A
:1016B0007A00826080937A0080917A0081608093C2
:1016C0007A0080917A00806880937A001092C1003D
:1016D00061E08DE00E94CF0161E08DE00E949F01FA
:1016E00061E083E00E94CF0160E083E00E949F01FF
:1016F00080913B0190913C019093050180930401FE
:1017000060EC70E08EEC90E00E94200387EB90E0AC
:1017100090939301809392011092B3011092B201C1
:101720001092F3011092F2011092D20188E080939E
:10173000D30181E090E0909391018093900161E06A
:1017400083E00E949F0161E083E00E94CF011FEFD0
:10175000E12E10E0F12EF701849180937D010BEED4
:1017600010E0F801849190E0880F991F8E579F4FE9
:10177000FC012591349130937F0120937E0160E03C
:1017800083E00E94CF0161E083E00E949F0183E03B
:1017900080937901F701E490E0927A01F8010491D5
:1017A000E02FF0E0EE0FFF1FE252FF4F8591949182
:1017B00090937C0180937B0181E08093830185E994
:1017C00091E090938F0180938E0129EB30E030936C
:1017D00087012093860123E931E03093890120932A
:1017E000880146E554E050938B0140938A01309381
:1017F0008D0120938C012091680024602093680063
:101800002DE630E0309381012093800128E0209381
:1018100082010197F1F70E94EE020E94DC0262E071
:1018200082E00E94CF0187E391E0909301018093D1
:101830000001809169008C7F816080936900E89A43
:1018400062E085E00E94CF0180E090E00E944212B9
:10185000813051F161E080E090E00E94820460E01C
:1018600081E090E00E94820460E082E090E00E94CB
:1018700082041A821982BE016F5F7F4F8AE090E076
:101880000E94DB051A821982BE016F5F7F4F84E1DF
:1018900090E00E94DB051A821982BE016F5F7F4FC4
:1018A0008EE190E00E94DB0581E090E00E94421210
:1018B00090E0909338018093370182E090E00E949D
:1018C0004212082F10E010934C0100934B0169E580
:1018D00071E08AE090E00E949A0361E671E084E1A1
:1018E00090E00E949A030130110531F465E671E041
:1018F0008EE190E00E949A0368EA70E08BEA90E043
:101900000E94CB0A803188F490E0FC01EE0FFF1FAB
:10191000EE50FE4F2DE531E031832083880F991F73
:10192000FC01EE52FE4F88E0808368E970E08DE9AB
:1019300090E00E94CB0A803188F490E0FC01EE0F29
:10194000FF1FEE50FE4F2DE431E031832083880FDE
:10195000991FFC01EE52FE4F88E080836CE870E036
:101960008EE890E00E94CB0A803188F490E0FC0180
:10197000EE0FFF1FEE50FE4F26E031E03183208353
:10198000880F991FFC01EE52FE4F81E080830E9478
:10199000F30660E08DE00E949F0138EE832E33E075
:1019A000932EA12CB12C24E6222E312C01E010E044
:1019B0006091650170916601809167019091680165
:1019C0000E9474136B017C0160916101709162014E
:1019D0008091630190916401A50194010E94AA1471
:1019E000CA01B9010E9474139B01AC01C701B60181
:1019F0000E94CA120E943C1397FD09C060935D01CA
:101A000070935E0180935F019093600108C0109213
:101A10005D0110925E0110925F0110926001609171
:101A2000590170915A0180915B0190915C011616E9
:101A3000170618061906C4F540905D0150905E0126
:101A400060905F017090600114141504160417046F
:101A50005CF50E9474136B017C01C301B2010E940A
:101A600074139B01AC01C701B6010E94CA129B010D
:101A7000AC0160E070E088EC92E40E94CA129B0125
:101A8000AC0160E070E088EC92E40E9458120E9481
:101A90003C1377FD05C0709307016093060104C0F5
:101AA00010920701109206010E948404C090550113
:101AB000D0905601E0905701F0905801260137016F
:101AC000F8EE4F0EF3E05F1E611C711C46165706C0
:101AD0006806790640F40E948404693873418105E0
:101AE000910508F0B6C380914D0190914E01A091EF
:101AF0004F01B0915001B7FF08C010924D011092F4
:101B00004E0110924F0110925001E0904B01F09065
:101B10004C0181E0E816F10499F580914D01909116
:101B20004E01A0914F01B0915001181619061A06E6
:101B30001B0634F580915D0190915E01A0915F01DB
:101B4000B0916001181619061A061B06CCF4F09223
:101B50004A01E092490110924801109247010E9407
:101B60008404DC01CB018856954CAF4FBF4F809366
:101B7000430190934401A0934501B093460104C0F2
:101B800010924A01109249010E94840460933F011F
:101B9000709340018093410190934201E1E0EE1681
:101BA000F10419F52091490130914A01232BE9F400
:101BB0002091470130914801232BB9F44090430113
:101BC00050904401609045017090460146165706BA
:101BD0006806790654F465E671E08EE190E00E94B3
:101BE0004E04F0924801E092470180914B019091A0
:101BF0004C01019709F053C0E5E1F1E08491E1E087
:101C0000F1E0F490EDEEF0E0E490EE20A1F081112F
:101C10000E947601EE2DF0E0EE0FFF1FE252FF4F23
:101C2000A591B4918C91F82231E020E009F430E0E4
:101C3000832F922F02C080E090E090933E0180932A
:101C40003D012091490130914A01232B41F5892B17
:101C500031F51092650110926601109267011092A1
:101C6000680110925101109252011092530110928A
:101C7000540110925D0110925E0110925F0110926A
:101C80006001309207012092060165E671E08EE165
:101C900090E00E944E041093480100934701E091A8
:101CA0003B01F0913C01E730F10521F010923A013F
:101CB0001092390180910401909105018E179F07C0
:101CC00021F0F0930501E0930401E830F10508F0FC
:101CD000F3C0EC5CFF4F0C94C91468EF71E086E030
:101CE00092E0E8C01A8A198261EF71E0CE01429653
:101CF0000E94F9111BA260915D0170915E018091BB
:101D00005F01909160010E947413AB01BC01CE0190
:101D100083960E940F06BE016D5D7F4FCE014296F5
:101D20000E940A156EEE71E0CE0142960E94F911F2
:101D300067EE71E0CE0101960E94F9111BA260913D
:101D40004D0170914E0180914F01909150010E9480
:101D50007413AB01BC01CE0183960E940F06BE0135
:101D60006D5D7F4FCE0101960E940A1562EE71E013
:101D700091C01A8A198262ED71E0CE0142960E94EA
:101D8000F91162EC71E086C01A8A198267EB71E082
:101D9000CE0142960E94F9111BA2609159017091E7
:101DA0005A0180915B0190915C010E947413AB0118
:101DB000BC01CE0183960E940F06BE016D5D7F4F70
:101DC000CE0142960E940A1564EB71E0CE01429664
:101DD0000E94F91164EA71E05DC01A8A19826AE909
:101DE00071E0CE0142960E94F9111BA28091370149
:101DF00090913801892BC1F4609165017091660161
:101E000080916701909168010E947413AB01BC013D
:101E1000CE0183960E940F06BE016D5D7F4FCE01FD
:101E200042960E940A1506C064E971E0CE0142960E
:101E30000E94F91164E871E02DC01A8A198268E7DE
:101E400071E0CE0142960E94F91180914B01909170
:101E50004C01892B31F465E771E0CE0142960E9476
:101E6000F91180914B0190914C01019731F461E798
:101E700071E0CE0142960E94F91160E671E00AC05D
:101E80001A8A198262E571E0CE0142960E94F91128
:101E900062E471E0CE0101960E94F911BE016F5F0C
:101EA0007F4FCE0142960E94560306C064E271E065
:101EB00082E391E00E9420038DE691E00E94C60239
:101EC0000E94DC020E94F30660E0809179010E948A
:101ED000CF0161E0809179010E949F010E94EE0292
:101EE0000E94EE020E9484042B013C01F4E64F0E96
:101EF000511C611C711CE12CF12C0E94840464159E
:101F000075058605970590F58DE691E00E948E0295
:101F10001816190694F78DE691E00E948E021816A5
:101F2000190614F020E01CC08DE691E00E94A50285
:101F3000282F809139028213FDC1C0901402D090E5
:101F40001502E0901602F09017022FAB0E94840455
:101F50002FA9C616D706E806F90608F4EBC1E2CFAA
:101F6000E22EF12CE114F10441F2FFC120EFE21660
:101F7000F10409F466C1E114F10409F462C180E9D5
:101F8000E816F10409F427C15CF4E0E6EE16F1046A
:101F900009F449C1F0E7EF16F10409F462C051C138
:101FA00020EDE216F10409F470C080EEE816F104A9
:101FB00031F090EBE916F10409F043C17AC0809149
:101FC0003B0190913C018730910509F43AC186307C
:101FD000910509F044C08091650190916601A0913E
:101FE0006701B09168018093610190936201A093B1
:101FF0006301B093640161E080E090E00E9482049C
:1020000061E081E090E00E94820460914B0182E0F7
:1020100090E00E94820469E571E08AE090E00E940D
:102020004E048091370190913801892B09F0F5C059
:102030008091650190916601A0916701B09168015E
:102040008093610190936201A0936301B093640156
:1020500061E671E084E190E00E944E04DEC00196EA
:10206000B5C080913B0190913C018336910521F4EC
:1020700010923C0110923B0180913B0190913C01F8
:10208000009709F4DEC00197A1C080913B019091B7
:102090003C01039709F0D5C08091590190915A01F4
:1020A000A0915B01B0915C018C599F4FAF4FBF4F26
:1020B000A4C080913B0190913C01029791F48091E2
:1020C0004B0190914C01892B61F4109265011092A3
:1020D0006601109267011092680110933C01009311
:1020E0003B0180913B0190913C010297C1F5E0904A
:1020F0004B01F0904C01F1E0EF16F10481F5809175
:10210000490190914A01892B51F510926501109275
:1021100066011092670110926801109251011092AD
:102120005201109253011092540110925D011092CD
:102130005E0110925F0110926001309207012092BF
:10214000060165E671E08EE190E00E944E04F09297
:102150004801E0924701F0923C01E0923B018091FE
:102160003B0190913C018330910569F480915901C4
:1021700090915A01A0915B01B0915C0188519C4FF4
:10218000AF4FBF4F3AC08430910569F4109265019A
:102190001092660110926701109268011092380146
:1021A000109237014EC08530910509F04AC0209148
:1021B0004B0130914C01232B29F410934C010093D7
:1021C0004B0104C010924C0110924B0190933C01C2
:1021D00080933B0136C080913B0190913C0183305C
:1021E0009105A1F48091590190915A01A0915B0150
:1021F000B0915C01C296A11DB11D809359019093CD
:102200005A01A0935B01B0935C011BC00697C9F40F
:1022100060E080E090E00E9482040E943002E0E0F2
:10222000F0E009950EC080913B0190913C0103972D
:1022300041F41092590110925A0110925B011092D0
:102240005C0180E090E0892B09F4B2CB0E94000091
:10225000AACB0E9484046BAB7CAB8DAB9EAB609130
:102260006501709166018091510190915201681B46
:10227000790B072E000C880B990B0E9474132B010D
:102280003C016091610170916201809163019091C4
:102290006401A50194010E94AA14CA01B9010E9417
:1022A00074139B01AC01C301B2010E94CA1220E069
:1022B00030E040E752E40E9429142B013C016BA955
:1022C0007CA96C197D09072E000C880B990B0E94C4
:1022D000741320E030E04AE754E40E94CA129B01E4
:1022E000AC01C301B2010E94CA120E943C13609368
:1022F0004D0170934E0180934F01909350010E94C5
:102300008404609355017093560180935701909314
:1023100058018091650190916601A0916701B0918B
:1023200068018093510190935201A0935301B0939F
:102330005401D9CB2FAB0E948404DC01CB01805720
:102340009E4FAF4FBF4F8093140290931502A093FE
:102350001602B09317022FA920933902203F09F0EB
:10236000FFCD80EFE82EF12CC8CD90EFE916F104F7
:1023700009F005CE66CF8DE091E090936E018093D9
:102380006D018DE691E00C94C602EDE6F1E013825A
:10239000128288EE93E0A0E0B0E084839583A68368
:1023A000B7838DE091E091838083A4E8B1E08C91C4
:1023B0008E7F8C93128E118E148E138E168E158E28
:1023C00012A211A21092140210921502109216027B
:1023D0001092170210921202109291011092900125
:1023E0001092130288E692E090933F0280933E029F
:1023F0000895FB01DC010D900020E9F7119705908D
:102400000D920020E1F70895FC0105900020E9F706
:10241000809590958E0F9F1F0895BB274A3031F409
:10242000992322F4BDE2909581959F4F0C94191247
:10243000BB27FB015527AA27880F991FAA1FA4179E
:1024400010F0A41B83955051B9F7A05DAA3308F092
:10245000A95DA193009779F7B111B1931192CB01C6
:102460000C943212DC01FC01672F71917723E1F7A4
:10247000329704C07C916D9370836291AE17BF0751
:10248000C8F30895F999FECF92BD81BDF89A9927B6
:1024900080B50895262FF999FECF1FBA92BD81BD50
:1024A00020BD0FB6F894FA9AF99A0FBE01960895D6
:1024B0005058BB27AA270E9470120C94EA130E945E
:1024C000DC1338F00E94E31320F039F49F3F19F435
:1024D00026F40C94D9130EF4E095E7FB0C94D31377
:1024E000E92F0E94FB1358F3BA176207730784079A
:1024F000950720F079F4A6F50C941D140EF4E095E0
:102500000B2EBA2FA02D0B01B90190010C01CA01AD
:10251000A0011124FF27591B99F0593F50F4503E58
:1025200068F11A16F040A22F232F342F4427585F4A
:10253000F3CF469537952795A795F0405395C9F762
:102540007EF41F16BA0B620B730B840BBAF091501A
:10255000A1F0FF0FBB1F661F771F881FC2F70EC0B9
:10256000BA0F621F731F841F48F48795779567958C
:10257000B795F7959E3F08F0B0CF9395880F08F078
:102580009927EE0F9795879508950E94AF1308F449
:1025900081E008950E94DE120C94EA130E94E31376
:1025A00058F00E94DC1340F029F45F3F29F00C94AE
:1025B000D31351110C941E140C94D9130E94FB13C5
:1025C00068F39923B1F3552391F3951B550BBB2762
:1025D000AA2762177307840738F09F5F5F4F220FA7
:1025E000331F441FAA1FA9F335D00E2E3AF0E0E89E
:1025F00032D091505040E695001CCAF72BD0FE2FE8
:1026000029D0660F771F881FBB1F2617370748077B
:10261000AB07B0E809F0BB0B802DBF01FF27935833
:102620005F4F3AF09E3F510578F00C94D3130C9411
:102630001E145F3FE4F3983ED4F386957795679533
:10264000B795F7959F5FC9F7880F911D9695879568
:1026500097F90895E1E0660F771F881FBB1F621787
:1026600073078407BA0720F0621B730B840BBA0B45
:10267000EE1F88F7E09508950E9443136894B11106
:102680000C941E1408950E94031488F09F5798F02C
:10269000B92F9927B751B0F0E1F0660F771F881F67
:1026A000991F1AF0BA95C9F714C0B13091F00E9481
:1026B0001D14B1E008950C941D14672F782F8827FE
:1026C000B85F39F0B93FCCF3869577956795B395A8
:1026D000D9F73EF490958095709561957F4F8F4F17
:1026E0009F4F0895E89409C097FB3EF4909580951C
:1026F000709561957F4F8F4F9F4F9923A9F0F92FC8
:1027000096E9BB279395F695879577956795B79545
:10271000F111F8CFFAF4BB0F11F460FF1BC06F5F2B
:102720007F4F8F4F9F4F16C0882311F096E911C03D
:10273000772321F09EE8872F762F05C0662371F05E
:1027400096E8862F70E060E02AF09A95660F771F72
:10275000881FDAF7880F9695879597F90895990F4E
:102760000008550FAA0BE0E8FEEF16161706E8075B
:10277000F907C0F012161306E407F50798F0621B7C
:10278000730B840B950B39F40A2661F0232B242B51
:10279000252B21F408950A2609F4A140A6958FEF70
:1027A000811D811D089597F99F6780E870E060E0C2
:1027B00008959FEF80EC089500240A9416161706DA
:1027C00018060906089500240A9412161306140622
:1027D00005060895092E0394000C11F4882352F085
:1027E000BB0F40F4BF2B11F460FF04C06F5F7F4F3D
:1027F0008F4F9F4F089557FD9058440F551F59F024
:102800005F3F71F04795880F97FB991F61F09F3FDD
:1028100079F087950895121613061406551FF2CF06
:102820004695F1DF08C0161617061806991FF1CF56
:1028300086957105610508940895E894BB2766277D
:102840007727CB0197F908950E94AF1308F48FEF13
:1028500008950E943C140C94EA130E94DC1338F093
:102860000E94E31320F0952311F00C94D3130C94E1
:10287000D91311240C941E140E94FB1370F3959F1E
:10288000C1F3950F50E0551F629FF001729FBB2767
:10289000F00DB11D639FAA27F00DB11DAA1F649F03
:1028A0006627B00DA11D661F829F2227B00DA11DB6
:1028B000621F739FB00DA11D621F839FA00D611D3C
:1028C000221F749F3327A00D611D231F849F600D5D
:1028D000211D822F762F6A2F11249F5750409AF086
:1028E000F1F088234AF0EE0FFF1FBB1F661F771F12
:1028F000881F91505040A9F79E3F510580F00C94DD
:10290000D3130C941E145F3FE4F3983ED4F38695E2
:1029100077956795B795F795E7959F5FC1F7FE2B7C
:10292000880F911D9695879597F9089597FB072E27
:1029300016F4009407D077FD09D00E94CF1407FC4D
:1029400005D03EF4909581959F4F089570956195BF
:102950007F4F0895052E97FB1EF400940E94C1142A
:1029600057FD07D00E94E31407FC03D04EF40C94EB
:10297000C11450954095309521953F4F4F4F5F4F73
:10298000089590958095709561957F4F8F4F9F4FDB
:102990000895EE0FFF1F0590F491E02D0994AA1BF6
:1029A000BB1B51E107C0AA1FBB1FA617B70710F03A
:1029B000A61BB70B881F991F5A95A9F7809590956C
:1029C000BC01CD010895A1E21A2EAA1BBB1BFD017B
:1029D0000DC0AA1FBB1FEE1FFF1FA217B307E407FE
:1029E000F50720F0A21BB30BE40BF50B661F771F56
:1029F000881F991F1A9469F7609570958095909536
:102A00009B01AC01BD01CF01089581E090E0F894F5
:102A10000C941515FB01DC010D900020E9F71197CE
:102A200001900D920020E1F7089511E0CCE0D1E093
:102A300004C0FE010E94C9142196CD30D107C9F708
:042A4000F894FFCF38
:102A440067026702010064000600000000C0034B37
:0C2A5400011D038D028E02A50275020018
:00000001FF
