:100000000C9400010C9427040C9400040C945A04E2
:100010000C945A040C945A040C9428010C94280152
:100020000C9428010C9428010C9428010C942801AC
:100030000C9428010C9428010C9428010C9428019C
:100040000C94B6030C9428010C9428010C942801FC
:100050000C9428010C9428010C9428010C9428017C
:100060000C9428010C9428010000000024002700B3
:100070002A0000000008000201000003040700003D
:1000800000000000000000000000230026002900FE
:1000900000000000250028002B00040404040404D0
:1000A0000404020202020202030303030303010227
:1000B00004081020408001020408102001020408F6
:1000C00010206D6C2F6D00466C6F77205370656546
:1000D00064006D6C00436F6E73756D7074696F6E44
:1000E00000524354204675656C0020204675656CAF
:1000F0002053656E736F720020524354204A65741A
:100100006920546F6F6C730020204675656C205316
:10011000656E736F720020524354204A65746920E3
:10012000546F6F6C73005072657373203C20546F72
:1001300020457869740053657474696E6773205341
:10014000746F7265642100527374205570446E2080
:1001500053617665203E0052657365742044656680
:1001600061756C74730043686720446E204E657837
:1001700074203E0035302D333030300031352D388D
:1001800030300053656E736F723A200020202020BB
:1001900020202020204E657874203E006D6C0043A6
:1001A000616C6962722E3A2000507265737320553B
:1001B00070202620446E00526573657420436F6E74
:1001C00073756D70742E006D6C2F7300466C6F77B5
:1001D0003A20006D6C00436F6E733A200020204679
:1001E00075656C2053656E736F7200205243542006
:1001F0004A65746920546F6F6C730000CE0EC40E94
:1002000011241FBECFEFD8E0DEBFCDBF11E0A0E0CC
:10021000B1E0E4EDF3E202C005900D92A032B10727
:10022000D9F722E0A0E2B1E001C01D92A932B207E5
:10023000E1F710E0CFEFD0E004C02197FE010E946B
:10024000C711CE3FD107C9F70E94390A0C94DD11BE
:100250000C94000080914D0190914E010196909375
:100260004E0180934D010895CF92DF92EF92FF925D
:100270000F931F93CF93DF936C017A018B01C0E042
:10028000D0E0CE15DF0589F0D8016D918D01D60142
:10029000ED91FC910190F081E02DC6010995892B2B
:1002A00011F47E0102C02196ECCFC701DF91CF91FE
:1002B0001F910F91FF90EF90DF90CF90089590E005
:1002C000FC01EE58FF4F3491FC01E255FF4F2491A1
:1002D000FC01E656FF4FE491EE2309F43BC03323C3
:1002E00039F1333091F038F43130A9F0323001F582
:1002F00084B58F7D12C0373091F03830A1F03430A2
:10030000B9F4809180008F7D03C0809180008F7749
:10031000809380000DC084B58F7784BD09C0809123
:10032000B0008F7703C08091B0008F7D8093B000C4
:10033000F0E0EE0FFF1FE057FF4FA591B4918FB78C
:10034000F894EC91611103C020952E2301C02E2B4F
:100350002C938FBF0895CF93DF9390E0FC01E2557B
:10036000FF4F2491FC01E656FF4F8491882361F1F1
:1003700090E0880F991FFC01E859FF4FC591D49177
:10038000FC01E057FF4FA591B491611109C09FB7DF
:10039000F8948881209582238883EC912E230BC0CA
:1003A000623061F49FB7F8943881822F809583235F
:1003B0008883EC912E2B2C939FBF06C08FB7F894A7
:1003C000E8812E2B28838FBFDF91CF910895089568
:1003D0000895DC015196ED91FC91529790815096D1
:1003E0008C918095892380830895209153013091C9
:1003F00054012817390771F49091510180915201ED
:10040000981741F0E0915101F0E0EE5DFE4F8081E0
:1004100090E008958FEF9FEF089508952091530184
:10042000309154012817390769F4809152012091C5
:10043000510190E04096821B910960E170E00E94BA
:100440009F11089580E090E008952091530130912C
:10045000540128173907B9F4909151018091520144
:10046000981789F0E0915101F0E0EE5DFE4F808138
:100470002091510130E02F5F3F4F2F7033272093A1
:10048000510190E008958FEF9FEF0895E09153019F
:10049000F0915401E817F90769F4A389B4899C9194
:1004A0008589809589238C93109254011092530171
:1004B00081E0089580E00895CF93DF9385E591E092
:1004C0000E944602C5E5D1E061E08C850E94AB0147
:1004D00061E08C85DF91CF910C945F018091720176
:1004E00090917301892B31F18091530190915401C6
:1004F00021E085359207F1F0009711F00E94460245
:1005000080916C018E7F80936C0110925201109249
:10051000510185E591E09093540180935301E0915E
:100520006801F0916901908180916A01892B808333
:1005300081E0089580E00895089580E090E00895B6
:100540000F931F93CF93DF938C01EB010E940D0F4C
:10055000A0E0B2E090E020E2981740F4A8014F5FDD
:100560005F4FF80104910C938A0101C02C939F5FA7
:100570001196903189F7CE010E940D0FA0E1B2E0F3
:1005800090E020E2981740F4AE014F5F5F4FFE010C
:10059000C491CC93EA0101C02C939F5F11969031D6
:1005A00089F7DF91CF911F910F910895CF93DF933A
:1005B000FC0101900020E9F73197E81B20E030E0D2
:1005C000F0E2A90148575F4F2E1748F4EA01C858D6
:1005D000DE4FDC01A20FB31FAC91A88304C0DA0187
:1005E000A858BE4FFC932F5F3F4F2031310549F78C
:1005F000FB0101900020E9F73197E61B80E090E0D5
:1006000040E29C0128563F4F8E1748F4E901C85834
:10061000DE4FDB01A80FB91F5C91588304C0D901DC
:10062000A858BE4F4C9301968031910551F7DF9148
:10063000CF910895CF92DF92EF92FF920F931F9385
:10064000CF93DF93EC0189A19AA1009729F421E0CF
:1006500030E03B832A8371C00FB7F8948F8D98A147
:10066000892B91F028E030E090E081E0482F46238C
:1006700009F09F5F880F21503109C1F7888D8111E2
:100680009F5F192F109501C010E0F62ECE010E9439
:10069000E90189A19AA10197F1F788E0C82ED12C30
:1006A000EE24E3948E2D8F2139F0E989FA89908127
:1006B0008889892B808303C0CE010E94E90189A12A
:1006C0009AA10197F1F7EE0C81E0C81AD10851F711
:1006D0008E89882389F0888D882339F0E989FA8901
:1006E00090818889892B808303C0CE010E94E90113
:1006F00089A19AA10197F1F78F8D98A1892B81F09B
:1007000010FF07C0E989FA8990818889892B808345
:1007100003C0CE010E94E9018F8D98A10197F1F7E6
:10072000E989FA8990818889892B80830FBF8D8D13
:100730009E8D0197F1F781E090E0DF91CF911F91BD
:100740000F91FF90EF90DF90CF9008950E94CD1110
:100750000C94530F2FB7F8946091370170913801C2
:100760008091390190913A012FBF08951F920F9205
:100770000FB60F9211242F933F938F939F93AF93B4
:10078000BF938091370190913801A0913901B091C8
:100790003A013091360123E0230F2D3720F40196E2
:1007A000A11DB11D05C026E8230F0296A11DB11D94
:1007B000209336018093370190933801A09339013B
:1007C000B0933A018091320190913301A0913401AC
:1007D000B09135010196A11DB11D80933201909316
:1007E0003301A0933401B0933501BF91AF919F9134
:1007F0008F913F912F910F900FBE0F901F901895E2
:100800001F920F920FB60F9211242F933F934F9385
:100810005F936F937F938F939F93AF93BF93EF9368
:10082000FF93E0910201F09103010995FF91EF918F
:10083000BF91AF919F918F917F916F915F914F91F8
:100840003F912F910F900FBE0F901F9018951F9200
:100850000F920FB60F9211242F933F934F935F93F4
:100860006F937F938F939F93AF93BF93EF93FF9378
:10087000E0910001F09101010995FF91EF91BF9185
:10088000AF919F918F917F916F915F914F913F9128
:100890002F910F900FBE0F901F901895862798E00C
:1008A00027E087FF03C0880F822701C0880F91507F
:1008B000C1F708951F920F920FB60F9211242F9334
:1008C0003F934F935F936F937F938F939F93AF93D8
:1008D000BF93CF93DF93EF93FF93E0915301F09198
:1008E0005401309709F467C0C685D785888125856E
:1008F000822309F060C0818D928D0197F1F7438DBD
:10090000548D68E070E030E081E0DA011197F1F792
:100910009881922311F0382B03C0982F909539239A
:10092000880F6150710989F78091520190E001961A
:100930008F70992760915101681749F0A091520179
:10094000B0E0AE5DBE4F3C938093520103C08789F7
:100950008160878B86898823F1F0CA010197F1F7BE
:100960008881282381E090E0A0E0B0E004C0880FF7
:10097000991FAA1FBB1F2A95D2F7409120015091C1
:10098000210160E070E0842B952BA62BB72B909370
:10099000210180932001878D90A1009711F001978C
:1009A000F1F7858D968D0197F1F7A389B4899C9114
:1009B0008589892B8C93FF91EF91DF91CF91BF9126
:1009C000AF919F918F917F916F915F914F913F91E7
:1009D0002F910F900FBE0F901F9018950F931F939C
:1009E000CF93C82F05E511E0F801608F682FC8018B
:1009F0000E941A03F801108E8C2FCF911F910F9136
:100A00000895EF92FF920F931F93CF93DF931F925E
:100A1000CDB7DEB709E011E082E0E82EF12CF80155
:100A200061918F01C70169830E944B0F698168172B
:100A300019F0C7010E94530FFFEFEF1AFF0A86E07B
:100A4000E816F10461F789E091E00F90DF91CF9112
:100A50001F910F91FF90EF9008952F923F924F9228
:100A60005F926F927F928F929F92AF92BF92CF923E
:100A7000DF92EF92FF920F931F93CF93DF9300D0FB
:100A800000D01F92CDB7DEB75C012A013B0120E008
:100A900030E0A901C301B2010E94CE0F87FF05C05B
:100AA00020E030E040E05FEB04C020E030E040E0D8
:100AB0005FE3C301B2010E94620F6B017C0120E081
:100AC00030E0A901C301B2010E94CE0F87FF04C02C
:100AD000F7FAF094F7F8F094812C912C8DEC89833F
:100AE0009CEC9A838CEC282E9DE3392E20E030E09C
:100AF00040E251E469817A81C1010E9432116D8323
:100B00007B83182F092FA7019601902F0E94CE0FEB
:100B1000181654F0EFEF8E1A9E0AFD81F9838B812F
:100B20008A83212E302EE2CF20E030E0A901C301DC
:100B3000B2010E94CE0F87FF08C08DE2F5018083CD
:100B400081E090E09C838B8302C01C821B82811415
:100B5000910459F4EB81FC81EA0DFB1D80E3808355
:100B6000EB81FC813196FC83EB8300E010E00815FB
:100B70001905B9F129813A81A101C701B6010E9485
:100B8000D30F0E9445102B013C016B817C81600FCB
:100B9000711F6A0D7B1D4AE0C2010E94160FB2014F
:100BA000550C880B990B0E947D1029813A81A10177
:100BB0000E9432119B01AC01C701B6010E94610F76
:100BC0006B017C0120E030E040E251E469817A81F0
:100BD000C1010E94D30F69837A831C010F5F1F4FED
:100BE000C6CF0A0D1B1DEB81FC81E00FF11F1082A7
:100BF000C5010F900F900F900F900F90DF91CF9144
:100C00001F910F91FF90EF90DF90CF90BF90AF902A
:100C10009F908F907F906F905F904F903F902F901C
:100C200008952F923F924F925F926F927F928F9290
:100C30009F92AF92BF92CF92DF92EF92FF920F936B
:100C40001F93CF93DF93C0902202D0902302E090B5
:100C50002402F09025020E94AA032091FA01222387
:100C6000E9F060E08EE70E94EE0461E082E90E9414
:100C7000EE0461E083E20E94EE0461E08091FA01FB
:100C80000E94EE0480910801882311F0815003C076
:100C90001092FA0186E08093080170C324EFC20E1F
:100CA00021E0D21EE11CF11C11E0C616D706E806B1
:100CB000F90608F010E060E08EE70E94EE0461E0C3
:100CC0008FE90E94EE04111170C08091FB01A09188
:100CD0007801B0917901E82FF0E0EE0FFF1FE652A6
:100CE000FE4F20813181232B49F48F5F282F30E084
:100CF0002A173B0784F31092FB0102C08093FB018B
:100D00006091FB01F6E0E0E026E030E0E12C40E01D
:100D100050E070E0CA01860F971F8A179B07A4F561
:100D2000009709F1E394880F991FFC01E654FE4FE8
:100D300080818F718830A1F0813019F4C901039648
:100D400015C0811103C0C901029610C0853019F485
:100D5000C90104960BC0893019F0C901019606C07B
:100D6000C901059603C0C9012F2F3E2F4F5F5F4F6A
:100D70004031510551F08B31910514F0EA9404C0D3
:100D8000F22FE32F9C01C6CFC901C82FC06481E0B8
:100D900080936D016C2F85E591E00E941A0360E05D
:100DA0008C2F0E944E04C82F1DC0E0912802F0E055
:100DB000EE0FFF1FE554FE4F8081C82FCF71829543
:100DC00086958770C80FC85F81E080936D016C2F96
:100DD00085E591E00E941A0360E08C2F0E944E048A
:100DE000C82FE12CD1E0D0936D0161E185E591E060
:100DF0000E941A036C2F81E10E944E04C82FD093E9
:100E00006D0164EA85E591E00E941A036C2F84EA83
:100E10000E944E04C82FD0936D0162E085E591E0F9
:100E20000E941A036C2F82E00E944E04C82FD093B8
:100E30006D0166E085E591E00E941A036C2F86E063
:100E40000E944E04C82FD0936D0160E085E591E0CB
:100E50000E941A0310926D016C2F80E00E944E04D4
:100E6000F82E1111EAC1C091FB016E2C6C0E20917D
:100E7000780130917901C61551F0772473947C0E76
:100E80007092FB010C2F10E00217130754F08091B1
:100E9000FB0190E0821793070CF46CC21092FB01E7
:100EA00069C2CC2309F4C7C1E0912602F091270260
:100EB0000995C295C07F680131E2C30ED11CC601FD
:100EC000880F991FFC01E858FE4F5F0180818F71E8
:100ED00090E08530910509F4BEC0F4F5009709F45F
:100EE00095C0019709F0A7C1000F111FF801E65244
:100EF000FE4F0190F081E02D00811181C160D093FF
:100F00006D016C2F85E591E00E941A036F2D8C2FE7
:100F10000E944E04C82F1F79F50120812295269545
:100F2000277030E0322F22273295330F307E022B8C
:100F3000132BD0936D01602F85E591E00E941A0379
:100F40006C2F802F0E944E04082F912F9F79F5015E
:100F5000C081C07EC92B74C08830910521F00997EB
:100F600009F4C2C068C1C860D0936D016C2F85E5DB
:100F700091E00E941A036F2D8C2F0E944E04C82FFF
:100F8000000F111FF801E652FE4F0190F081E02D95
:100F900080819181A281B3816C017D01FFE9FF22F3
:100FA000D0936D016C2D85E591E00E941A036C2FA2
:100FB0008C2D0E944E04C82F2D2C3E2C4F2C5524D6
:100FC00047FC5A94D0936D01622D85E591E00E9413
:100FD0001A036C2F822D0E944E04C82F170155242E
:100FE00037FC5094452CD0936D01622D85E591E03E
:100FF0000E941A036C2F822D0E944E04182F9F2DE1
:101000009F79F501C081C07EC92B62C0000F111FFE
:10101000F801E652FE4F0190F081E02D1081D0934F
:101020006D016C2F85E591E00E941A036F2D8C2FC6
:101030000E944E04082F1F79F501C081C07EC12B8C
:10104000D0936D016C2F85E591E00E941A031092F8
:101050006D01602F47C0C560D0936D016C2F85E591
:1010600091E00E941A0310926D016F2D8C2F0E9447
:101070004E04F82E000F111FF801E652FE4F0190AA
:10108000F081E02D118102819081F501208122956E
:1010900026952770213011F0C0E001C0C0E4C92BB3
:1010A000D0936D01602F85E591E00E941A036F2DAA
:1010B000802F0E944E04082FD0936D01612F85E58B
:1010C00091E00E941A03602F812F0E944E04182F76
:1010D000D0936D016C2F85E591E00E941A03109268
:1010E0006D01612F8C2FA4C0C960D0936D016C2F4E
:1010F00085E591E00E941A036F2D8C2F0E944E040B
:10110000C82F000F111FF801E652FE4F0190F08129
:10111000E02D80809180A280B38020E030E0A901A2
:10112000C501B4010E942D1118161CF4C501B401AB
:1011300003C0C501B40190580E944C108B0180E09F
:1011400090E00E947B109B01AC01C501B4010E949C
:10115000610F2AE939E949E15FE30E94321120E099
:1011600030E543EC57E40E9432111B012C0120E0D2
:1011700030E0A9010E942D1118161CF4C201B10122
:1011800003C0C201B10190580E944C10562EF72E98
:10119000812F8170F601EE0FFF1FE858FE4F9081FE
:1011A000929596959770913011F090E001C090E281
:1011B000192F182B20E030E0A901C501B4010E94CD
:1011C000CE0F881F8827881F8295880F880F807C04
:1011D000182BD0936D01652D85E591E00E941A03CF
:1011E0006C2F852D0E944E04C82FD0936D016F2D5A
:1011F00085E591E00E941A036C2F8F2D0E944E040A
:10120000C82FD0936D01602F85E591E00E941A03ED
:101210006C2F802F0E944E04C82FD0936D01612F38
:1012200085E591E00E941A0310926D016C2F812FC9
:101230000E944E04F82EC72D1ACEC0912802D093DA
:101240006D016C2F85E591E00E941A036F2D8C2FA4
:101250000E944E04B82E0C2F10E06801CC0CDD1C4F
:10126000960125543E4F4901F9012081922F9F712B
:10127000F8E09F9F70011124229526952770E22A9D
:10128000D0936D016E2D85E591E00E941A031092B6
:101290006D016B2D8E2D0E944E04F82EF601E6583E
:1012A000FE4FD081AD2EB180772473942A2D2D1B53
:1012B00030E0F40180818F7190E028173907A4F4A1
:1012C000F501E49070926D016E2D85E591E00E942C
:1012D0001A0310926D016F2D8E2D0E944E04F82E70
:1012E000FFEFAF1ABF0AE2CF000F111FD801A656B9
:1012F000BE4FDC910D2F11961C91960125543E4F47
:101300006901BB24B394202F2D1B30E0F6018081AE
:1013100082958695877090E0281739079CF4F8012C
:10132000E490B0926D016E2D85E591E00E941A0364
:1013300010926D016F2D8E2D0E944E04F82E0F5FBE
:101340001F4FE1CFCF5FC09328028C2F90E02091F8
:101350007801309179018217930714F010922802D6
:101360000E94AA03609322027093230280932402B6
:101370009093250261E08F2D0E94EE04E0912602F9
:10138000F0912702099560E08EEF0E94EE04C0E024
:10139000D2E01C2F105E61E089910E94EE041C13C4
:1013A000FACF60E08FEF0E94EE0481E0DF91CF91F1
:1013B0001F910F91FF90EF90DF90CF90BF90AF9073
:1013C0009F908F907F906F905F904F903F902F9065
:1013D0000895CF92DF92FF920F931F93CF93DF93E5
:1013E000209178013091790120313105CCF56B01E4
:1013F00089010F5F1F4FF801EE0FFF1FE858FE4FE6
:1014000091838083F901EE0FFF1FE656FE4F718333
:101410006083F901EE0FFF1FE652FE4F118210822A
:10142000220F331FE901C654DE4F18820E940D0FB0
:10143000982F9F718981807EF82EF92AC6010E941B
:101440000D0F8295880F807E9F2D9F71F92EF82AAF
:10145000F98210937901009378018FEF800F01C01A
:101460008FEFDF91CF911F910F91FF90DF90CF9081
:101470000895CF93DF93CDB7DEB7E0970FB6F8941A
:10148000DEBF0FBECDBF789484B5826084BD84B5C5
:10149000816084BD85B5826085BD85B5816085BD6F
:1014A00080916E00816080936E0010928100809127
:1014B00081008260809381008091810081608093AF
:1014C0008100809180008160809380008091B100D4
:1014D00084608093B1008091B00081608093B000FF
:1014E00080917A00846080937A0080917A00826093
:1014F00080937A0080917A00816080937A00809155
:101500007A00806880937A001092C10061E08DE0DB
:101510000E94AB0161E08DE00E945F0161E083E029
:101520000E94AB0160E083E00E945F0180913D0179
:1015300090913E0190930501809304016AEE70E062
:1015400088EF90E00E94A00281EE90E090937B01F2
:1015500080937A0110929B0110929A011092DB0104
:101560001092DA011092BA0188E08093BB0181E009
:1015700090E0909379018093780161E083E00E948C
:101580005F0161E083E00E94AB0171EBE72E70E048
:10159000F72EF7018491809365010DE910E0F801C1
:1015A000849190E0880F991F80579F4FFC012591EF
:1015B0003491309367012093660160E083E00E94DC
:1015C000AB0161E083E00E945F0183E080936101F1
:1015D000F701E490E0926201F8010491E02FF0E05D
:1015E000EE0FFF1FEA57FF4F85919491909364018E
:1015F0008093630181E080936B0185E991E0909392
:1016000077018093760129EB30E030936F012093CE
:101610006E0123E931E0309371012093700146E5BA
:1016200054E05093730140937201309375012093FD
:101630007401209168002460209368002DE630E05A
:10164000309369012093680128E020936A01019793
:10165000F1F70E946E020E945C0262E082E00E944A
:10166000AB018AE291E090930101809300018091A7
:1016700069008C7F816080936900E89A80E090E047
:101680000E944B0F813069F061E080E090E00E94A1
:10169000A80360914F0181E090E00E94A8030E949E
:1016A000010581E090E00E944B0F90E09093500183
:1016B00080934F0169E0E62E61E0F62E02E010E033
:1016C000C8010E944B0FF70181937F010F5F1F4FED
:1016D00006301105A9F762ED70E085ED90E00E94FB
:1016E000E909803188F490E0FC01EE0FFF1FE6521B
:1016F000FE4F29E431E031832083880F991FFC01DC
:10170000E654FE4F88E0808362EC70E087EC90E066
:101710000E94E909803188F490E0FC01EE0FFF1F80
:10172000E652FE4F2FE331E031832083880F991F6B
:10173000FC01E654FE4F88E080830E94110660E0C1
:101740008DE00E945F0183E6282E312C80914F01AD
:1017500090915001019739F486E090E09093070151
:101760008093060106C0E8E1F0E0F0930701E09302
:10177000060100914D0110914E016091060170919A
:101780000701072E000C880B990B0E947D102B017E
:101790003C01B801012E000C880B990B0E947D10B2
:1017A000A30192010E94D30F6B017C0120910901DA
:1017B00030910A0140910B0150910C0160E070E002
:1017C0008AE794E40E94D30F9B01AC01C701B601E4
:1017D0000E9432110E9445106093490170934A01A2
:1017E00080934B0190934C010E94AA038090450185
:1017F00090904601A0904701B090480175016401A6
:10180000F8EECF0EF3E0DF1EE11CF11CC616D70682
:10181000E806F90640F40E94AA036938734181057D
:10182000910508F033C280913D0190913E018630D0
:10183000910521F010923C0110923B01209104018E
:10184000309105012817390721F090930501809305
:1018500004018330910509F479C06CF4813091055D
:1018600019F10CF068C0892B09F0D4C06DED71E05E
:101870008BEE91E0CDC08530910509F4AFC00CF43A
:101880008AC08630910509F4BFC08336910509F0FE
:10189000C1C019A2198A66E371E0CE0181960E9447
:1018A000020F66E271E0A4C019A2198A66ED71E028
:1018B000CE0181960E94020F1982609149017091B8
:1018C0004A0180914B0190914C010E947D10AB0127
:1018D000BC01CE0101960E942D05BE016F5F7F4FB6
:1018E000CE0181960E94D21163ED71E0CE01819606
:1018F0000E94020F6CEC71E0CE0141960E94020F33
:10190000198260913F017091400180914101909155
:1019100042010E947D10AB01BC01CE0101960E94E4
:101920002D05BE016F5F7F4FCE0141960E94D211FF
:1019300067EC71E05DC019A2198A67EB71E0CE0116
:1019400081960E94020F69EA71E052C019A2198AB9
:101950006FE971E0CE0181960E94020F19824091D9
:10196000090150910A0160910B0170910C01CE01A7
:1019700001960E942D05BE016F5F7F4FCE018196BB
:101980000E94D2116CE971E0CE0181960E94020F93
:101990006CE871E02DC019A2198A63E871E0CE01EC
:1019A00081960E94020F80914F0190915001892BE6
:1019B00031F46CE771E0CE0181960E94020F8091B4
:1019C0004F0190915001019731F464E771E0CE012D
:1019D00081960E94020F66E671E00AC019A2198A78
:1019E00067E571E0CE0181960E94020F67E471E025
:1019F000CE0141960E94020FBE016F5E7F4FCE0165
:101A000081960E94D60206C068E071E086E191E00E
:101A10000E94A00285E591E00E9446020E945C02BD
:101A20000E94110660E0809161010E94AB0161E0BB
:101A3000809161010E945F010E946E020E946E020D
:101A40000E94AA036B017C01E4E6CE0ED11CE11CCE
:101A5000F11C00E010E00E94AA036C157D058E05C4
:101A60009F0578F585E591E00E940E02181619068B
:101A700094F785E591E00E940E021816190614F0FD
:101A800000E01AC085E591E00E942502082F8091B0
:101A9000210280135CC18090FC019090FD01A09018
:101AA000FE01B090FF010E94AA0386169706A806C1
:101AB000B90608F44CC1E4CF10E00115110559F244
:101AC0005EC1003F110509F4D9C00115110509F4E3
:101AD000D5C00039110509F46DC044F40036110574
:101AE00009F4B0C000371105D1F0C8C0003D1105A0
:101AF00071F1003E110529F0003B110509F0BEC04F
:101B000032C080913D0190913E018630910509F4EB
:101B1000B5C08530910509F488C0019613C0809145
:101B20003D0190913E018336910521F410923E01D2
:101B300010923D0180913D0190913E01009709F482
:101B40009DC0019790933E0180933D0197C0809185
:101B50003D0190913E01039709F090C020E030E0F4
:101B600040E85FE340C080913D0190913E018330A9
:101B7000910529F420E030E040E85FE36DC0049770
:101B800009F07CC080914F0190915001019741F480
:101B90001092500110924F0160E081E090E007C088
:101BA00081E090E09093500180934F0161E00E94AA
:101BB000A80364C080913D0190913E01029741F4D9
:101BC00010924E0110924D0130923E0120923D0143
:101BD00080913D0190913E018330910579F420E0A0
:101BE00030E040E251E46091090170910A01809176
:101BF0000B0190910C010E94620F38C00597F1F51E
:101C00001092500110924F0180E090E0AAE7B4E4F6
:101C10008093090190930A01A0930B01B0930C01EA
:101C200061E080E090E00E94A80360914F0181E0B4
:101C300090E00E94A8030E94010530923E0120928C
:101C40003D011CC080913D0190913E010397B1F48C
:101C500020E030E040E251E46091090170910A0116
:101C600080910B0190910C010E94610F609309011A
:101C700070930A0180930B0190930C0180E090E037
:101C8000892B09F463CD0E94000060CD0E94AA0355
:101C90006B017C018091430190914401B801681B64
:101CA000790B072E000C880B990B0E947D10A30165
:101CB00092010E94D30F20E030E040E752E40E94FE
:101CC00032112B013C01B60168197909072E000C6D
:101CD000880B990B0E947D1020E030E04AE754E425
:101CE0000E94D30F9B01AC01C301B2010E94D30F2C
:101CF0006B017C012091090130910A0140910B0197
:101D000050910C0160E070E08AE794E40E94D30FE8
:101D10009B01AC01C701B6010E9432110E9445101F
:101D200060933F0170934001809341019093420181
:101D30000E94AA0360934501709346018093470176
:101D40009093480110934401009343016CCD0E948D
:101D5000AA03DC01CB0180579E4FAF4FBF4F80934A
:101D6000FC019093FD01A093FE01B093FF0100934D
:101D70002102003F09F0A0CE00EF10E06CCE003F42
:101D8000110509F0A6CE7ACF81E191E0909356013A
:101D90008093550185E591E00C944602E5E5F1E07C
:101DA0001382128288EE93E0A0E0B0E084839583F2
:101DB000A683B78381E191E091838083ACE6B1E0B3
:101DC0008C918E7F8C93128E118E148E138E168EA4
:101DD000158E12A211A21092FC011092FD01109218
:101DE000FE011092FF011092FA01109279011092F7
:101DF00078011092FB0188EE91E090932702809386
:101E000026020895FB01DC010D900020E9F71197EF
:101E100005900D920020E1F70895FC010590002047
:101E2000E9F7809590958E0F9F1F0895BB274A3044
:101E300031F4992322F4BDE2909581959F4F0C9443
:101E4000220FBB27FB015527AA27880F991FAA1F1E
:101E5000A41710F0A41B83955051B9F7A05DAA33C5
:101E600008F0A95DA193009779F7B111B193119290
:101E7000CB010C943B0FDC01FC01672F71917723A0
:101E8000E1F7329704C07C916D9370836291AE1735
:101E9000BF07C8F30895F999FECF92BD81BDF89AA6
:101EA000992780B50895262FF999FECF1FBA92BDC4
:101EB00081BD20BD0FB6F894FA9AF99A0FBE01962B
:101EC00008955058BB27AA270E94790F0C94F3104D
:101ED0000E94E51038F00E94EC1020F039F49F3F8A
:101EE00019F426F40C94E2100EF4E095E7FB0C9440
:101EF000DC10E92F0E94041158F3BA176207730728
:101F00008407950720F079F4A6F50C9426110EF4B9
:101F1000E0950B2EBA2FA02D0B01B90190010C01F9
:101F2000CA01A0011124FF27591B99F0593F50F411
:101F3000503E68F11A16F040A22F232F342F442769
:101F4000585FF3CF469537952795A795F040539561
:101F5000C9F77EF41F16BA0B620B730B840BBAF031
:101F60009150A1F0FF0FBB1F661F771F881FC2F79C
:101F70000EC0BA0F621F731F841F48F487957795B0
:101F80006795B795F7959E3F08F0B0CF9395880F6A
:101F900008F09927EE0F9795879508950E94B8103D
:101FA00008F481E008950E94E70F0C94F3100E945A
:101FB000EC1058F00E94E51040F029F45F3F29F042
:101FC0000C94DC1051110C9427110C94E2100E9417
:101FD000041168F39923B1F3552391F3951B550B25
:101FE000BB27AA2762177307840738F09F5F5F4FEC
:101FF000220F331F441FAA1FA9F335D00E2E3AF02B
:10200000E0E832D091505040E695001CCAF72BD042
:10201000FE2F29D0660F771F881FBB1F2617370793
:102020004807AB07B0E809F0BB0B802DBF01FF27C5
:1020300093585F4F3AF09E3F510578F00C94DC10B6
:102040000C9427115F3FE4F3983ED4F3869577957F
:102050006795B795F7959F5FC9F7880F911D96957E
:10206000879597F90895E1E0660F771F881FBB1FDA
:10207000621773078407BA0720F0621B730B840B87
:10208000BA0BEE1F88F7E09508950E944C106894F3
:10209000B1110C94271108950E940C1188F09F57DC
:1020A00098F0B92F9927B751B0F0E1F0660F771F7C
:1020B000881F991F1AF0BA95C9F714C0B13091F072
:1020C0000E942611B1E008950C942611672F782FF5
:1020D0008827B85F39F0B93FCCF386957795679537
:1020E000B395D9F73EF490958095709561957F4FA3
:1020F0008F4F9F4F0895E89409C097FB3EF4909549
:102100008095709561957F4F8F4F9F4F9923A9F0D0
:10211000F92F96E9BB279395F6958795779567955F
:10212000B795F111F8CFFAF4BB0F11F460FF1BC0A3
:102130006F5F7F4F8F4F9F4F16C0882311F096E936
:1021400011C0772321F09EE8872F762F05C06623E4
:1021500071F096E8862F70E060E02AF09A95660F9D
:10216000771F881FDAF7880F9695879597F9089556
:10217000990F0008550FAA0BE0E8FEEF1616170698
:10218000E807F907C0F012161306E407F50798F000
:10219000621B730B840B950B39F40A2661F0232B19
:1021A000242B252B21F408950A2609F4A140A69595
:1021B0008FEF811D811D089597F99F6780E870E07A
:1021C00060E008959FEF80EC089500240A941616AD
:1021D000170618060906089500240A941216130615
:1021E000140605060895092E0394000C11F48823A3
:1021F00052F0BB0F40F4BF2B11F460FF04C06F5FBF
:102200007F4F8F4F9F4F089557FD9058440F551F94
:1022100059F05F3F71F04795880F97FB991F61F068
:102220009F3F79F087950895121613061406551FDF
:10223000F2CF4695F1DF08C0161617061806991F4B
:10224000F1CF86957105610508940895E894BB2740
:1022500066277727CB0197F908950E94B81008F4F4
:102260008FEF08950E9445110C94F3100E94E51021
:1022700038F00E94EC1020F0952311F00C94DC1043
:102280000C94E21011240C9427110E94041170F395
:10229000959FC1F3950F50E0551F629FF001729F0B
:1022A000BB27F00DB11D639FAA27F00DB11DAA1F1A
:1022B000649F6627B00DA11D661F829F2227B00D67
:1022C000A11D621F739FB00DA11D621F839FA00DF2
:1022D000611D221F749F3327A00D611D231F849F42
:1022E000600D211D822F762F6A2F11249F57504099
:1022F0009AF0F1F088234AF0EE0FFF1FBB1F661F14
:10230000771F881F91505040A9F79E3F510580F0DC
:102310000C94DC100C9427115F3FE4F3983ED4F347
:10232000869577956795B795F795E7959F5FC1F780
:10233000FE2B880F911D9695879597F9089597FB29
:10234000072E16F4009407D077FD09D00E94B31130
:1023500007FC05D03EF4909581959F4F08957095A8
:1023600061957F4F0895AA1BBB1B51E107C0AA1FAF
:10237000BB1FA617B70710F0A61BB70B881F991F26
:102380005A95A9F780959095BC01CD010895EE0F5F
:10239000FF1F0590F491E02D099481E090E0F894FE
:1023A0000C94DD11FB01DC010D900020E9F7119781
:1023B00001900D920020E1F7089511E0CFEFD0E0F9
:1023C00004C0FE010E94C7112196C030D107C9F791
:0423D000F894FFCFAF
:1023D400E701E701010018000600007A440000004C
:1023E400001A0334019D020D020E022502F50100BC
:00000001FF
