:100000000C940A010C94DD040C94B6040C941005B5
:100010000C9410050C9410050C9432010C943201D0
:100020000C9432010C9432010C9432010C94320184
:100030000C9432010C9432010C9432010C94320174
:100040000C946C040C9432010C9432010C94320127
:100050000C9432010C9432010C9432010C94320154
:100060000C9432010C943201330D380D7F0D8A0D42
:10007000B30DD80DFB0D110E000000002400270069
:100080002A0000000008000201000003040700002D
:1000900000000000000000000000230026002900EE
:1000A00000000000250028002B00040404040404C0
:1000B0000404020202020202030303030303010217
:1000C00004081020408001020408102001020408E6
:1000D000102025004761756765006D6C2F6D004627
:1000E0006C6F77205370656564006D6C00436F6EB4
:1000F00073756D7074696F6E005243542046756558
:100100006C0020204675656C2053656E736F72001D
:1001100020524354204A65746920546F6F6C7300F9
:1001200020204675656C2053656E736F72002052F7
:100130004354204A65746920546F6F6C7300527386
:1001400074205570446E2053617665203E005265E0
:10015000736574206F722053617665004368672071
:10016000446E204E657874203E0035302D3330309B
:10017000300031352D3830300053656E736F723A70
:1001800020002020202020202020204E6578742070
:100190003E006D6C0043616C6962722E3A20002053
:1001A00020202020202020204E657874203E006DE5
:1001B0006C0054616E6B206361703A200050726570
:1001C0007373205570202620446E00526573657449
:1001D00020436F6E73756D70742E006D6C2F7300FD
:1001E000466C6F773A20006D6C00436F6E733A2057
:1001F0000020204675656C2053656E736F72002079
:10020000524354204A65746920546F6F6C73000028
:1002100044103A1011241FBECFEFD8E0DEBFCDBF8F
:1002200011E0A0E0B1E0E2E4F7E202C005900D9237
:10023000A232B107D9F722E0A2E2B1E001C01D92DB
:10024000AF32B207E1F711E0C9E0D1E004C0219775
:10025000FE010E944813C830D107C9F70E94CB0A9B
:100260000C9494130C9400008091510190915201D0
:10027000019690935201809351010895CF92DF929D
:10028000EF92FF920F931F93CF93DF936C017A014C
:100290008B01C0E0D0E0CE15DF0589F0D8016D916B
:1002A0008D01D601ED91FC910190F081E02DC60108
:1002B0000995892B11F47E0102C02196ECCFC7016C
:1002C000DF91CF911F910F91FF90EF90DF90CF9032
:1002D000089590E0FC01EE57FF4F3491FC01E25489
:1002E000FF4F2491FC01E655FF4FE491EE2309F402
:1002F0003BC0332339F1333091F038F43130A9F079
:10030000323001F584B58F7D12C0373091F038302E
:10031000A1F03430B9F4809180008F7D03C08091CA
:1003200080008F77809380000DC084B58F7784BD67
:1003300009C08091B0008F7703C08091B0008F7D9D
:100340008093B000F0E0EE0FFF1FE056FF4FA59145
:10035000B4918FB7F894EC91611103C020952E23CE
:1003600001C02E2B2C938FBF0895CF93DF9390E085
:10037000FC01E254FF4F2491FC01E655FF4F8491AC
:10038000882361F190E0880F991FFC01E858FF4F26
:10039000C591D491FC01E056FF4FA591B491611134
:1003A00009C09FB7F8948881209582238883EC91B7
:1003B0002E230BC0623061F49FB7F8943881822FEE
:1003C000809583238883EC912E2B2C939FBF06C0AE
:1003D0008FB7F894E8812E2B28838FBFDF91CF91C0
:1003E00008953FB7F8948091390190913A01A09116
:1003F0003B01B0913C0126B5A89B05C02F3F19F0E9
:100400000196A11DB11D3FBFBA2FA92F982F882794
:10041000820F911DA11DB11DBC01CD0142E0660FEF
:10042000771F881F991F4A95D1F708958F929F9241
:10043000AF92BF92CF92DF92EF92FF920E94F101B2
:100440004B015C0188ECC82ED12CE12CF12C0E94D0
:10045000F101DC01CB0188199909AA09BB09883E81
:100460009340A105B10558F021E0C21AD108E10876
:10047000F10888EE880E83E0981EA11CB11CC114FF
:10048000D104E104F10419F7FF90EF90DF90CF90D1
:10049000BF90AF909F908F90089508950895DC01CC
:1004A0005196ED91FC915297908150968C91809548
:1004B0008923808308952091550130915601281792
:1004C000390771F49091530180915401981741F0CC
:1004D000E0915301F0E0EC5DFE4F808190E00895E3
:1004E0008FEF9FEF089508952091550130915601A7
:1004F0002817390769F4809154012091530190E045
:100500004096821B910960E170E00E9415130895E6
:1005100080E090E008952091550130915601281710
:100520003907B9F49091530180915401981789F0DB
:10053000E0915301F0E0EC5DFE4F8081209153018A
:1005400030E02F5F3F4F2F7033272093530190E00F
:1005500008958FEF9FEF0895E0915501F0915601B6
:10056000E817F90769F4A389B4899C918589809576
:1005700089238C93109256011092550181E00895C1
:1005800080E00895CF93DF938BE591E00E94AC0269
:10059000CBE5D1E061E08C850E94B50161E08C85FE
:1005A000DF91CF910C94690180917801909179014C
:1005B000892B31F1809155019091560121E08B35C5
:1005C0009207F1F0009711F00E94AC028091720145
:1005D0008E7F8093720110925401109253018BE52B
:1005E00091E09093560180935501E0916E01F09156
:1005F0006F01908180917001892B808381E0089543
:1006000080E00895089580E090E00895CF92DF9211
:10061000FF920F931F93CF93DF9320917E01309130
:100620007F0120313105CCF56B0189010F5F1F4F30
:10063000F801EE0FFF1FE258FE4F91838083F9010E
:10064000EE0FFF1FE056FE4F71836083F901EE0F3E
:10065000FF1FE052FE4F11821082220F331FE9016B
:10066000C054DE4F18820E948310982F9F71898199
:10067000807EF82EF92AC6010E9483108295880F89
:10068000807E9F2D9F71F92EF82AF98210937F01A9
:1006900000937E018FEF800F01C08FEFDF91CF912C
:1006A0001F910F91FF90DF90CF9008950F931F93AC
:1006B000CF93DF938C01EB010E948310A6E0B2E0A0
:1006C00090E020E2981740F4A8014F5F5F4FF801D7
:1006D00004910C938A0101C02C939F5F1196903175
:1006E00089F7CE010E948310A6E1B2E090E020E2FB
:1006F000981740F4AE014F5F5F4FFE01C491CC9359
:10070000EA0101C02C939F5F1196903189F7DF9128
:10071000CF911F910F910895CF93DF93FC0101902A
:100720000020E9F73197E81B20E030E0F0E2A90172
:1007300048575F4F2E1748F4EA01C258DE4FDC01DC
:10074000A20FB31FAC91A88304C0DA01A258BE4F18
:10075000FC932F5F3F4F2031310549F7FB0101909A
:100760000020E9F73197E61B80E090E040E29C0131
:1007700028563F4F8E1748F4E901C258DE4FDB017F
:10078000A80FB91F5C91588304C0D901A258BE4F6D
:100790004C9301968031910551F7DF91CF910895E7
:1007A000CF92DF92EF92FF920F931F93CF93DF933D
:1007B000EC0189A19AA1009729F421E030E03B8364
:1007C0002A8371C00FB7F8948F8D98A1892B91F06F
:1007D00028E030E090E081E0482F462309F09F5F59
:1007E000880F21503109C1F7888D81119F5F192F22
:1007F000109501C010E0F62ECE010E944F0289A193
:100800009AA10197F1F788E0C82ED12CEE24E39449
:100810008E2D8F2139F0E989FA8990818889892B79
:10082000808303C0CE010E944F0289A19AA1019743
:10083000F1F7EE0C81E0C81AD10851F78E898823B0
:1008400089F0888D882339F0E989FA89908188892F
:10085000892B808303C0CE010E944F0289A19AA1F7
:100860000197F1F78F8D98A1892B81F010FF07C0B8
:10087000E989FA8990818889892B808303C0CE0118
:100880000E944F028F8D98A10197F1F7E989FA89AB
:1008900090818889892B80830FBF8D8D9E8D0197D4
:1008A000F1F781E090E0DF91CF911F910F91FF90E0
:1008B000EF90DF90CF9008950E9484130C94C9109C
:1008C0002FB7F8946091350170913601809137010E
:1008D000909138012FBF08951F920F920FB60F927B
:1008E00011242F933F938F939F93AF93BF93809146
:1008F000350190913601A0913701B09138013091C6
:10090000340123E0230F2D3720F40196A11DB11DE2
:1009100005C026E8230F0296A11DB11D20933401C6
:100920008093350190933601A0933701B09338013D
:100930008091390190913A01A0913B01B0913C0125
:100940000196A11DB11D8093390190933A01A093A6
:100950003B01B0933C01BF91AF919F918F913F912B
:100960002F910F900FBE0F901F9018951F920F920E
:100970000FB60F9211242F933F934F935F936F9372
:100980007F938F939F93AF93BF93EF93FF93E091E8
:100990000201F09103010995FF91EF91BF91AF9191
:1009A0009F918F917F916F915F914F913F912F9187
:1009B0000F900FBE0F901F9018951F920F920FB6B9
:1009C0000F9211242F933F934F935F936F937F93D5
:1009D0008F939F93AF93BF93EF93FF93E0910001A9
:1009E000F09101010995FF91EF91BF91AF919F9116
:1009F0008F917F916F915F914F913F912F910F90C8
:100A00000FBE0F901F901895862798E027E087FF6C
:100A100003C0880F822701C0880F9150C1F7089545
:100A20001F920F920FB60F9211242F933F934F9363
:100A30005F936F937F938F939F93AF93BF93CF9366
:100A4000DF93EF93FF93E0915501F09156013097BA
:100A500009F467C0C685D78588812585822309F07A
:100A600060C0818D928D0197F1F7438D548D68E0C0
:100A700070E030E081E0DA011197F1F7988192237C
:100A800011F0382B03C0982F90953923880F6150AF
:100A9000710989F78091540190E001968F70992730
:100AA00060915301681749F0A0915401B0E0AC5D2A
:100AB000BE4F3C938093540103C087898160878B2C
:100AC00086898823F1F0CA010197F1F788812823EC
:100AD00081E090E0A0E0B0E004C0880F991FAA1F59
:100AE000BB1F2A95D2F7409122015091230160E06B
:100AF00070E0842B952BA62BB72B9093230180932A
:100B00002201878D90A1009711F00197F1F7858D53
:100B1000968D0197F1F7A389B4899C918589892BDA
:100B20008C93FF91EF91DF91CF91BF91AF919F9106
:100B30008F917F916F915F914F913F912F910F9086
:100B40000FBE0F901F9018950F931F93CF93C82F30
:100B50000BE511E0F801608F682FC8010E94D003F7
:100B6000F801108E8C2FCF911F910F910895EF9265
:100B7000FF920F931F93CF93DF931F92CDB7DEB7F2
:100B80000BE011E08AE0E82EF12CF80161918F0171
:100B9000C70169830E94C1106981681719F0C701F4
:100BA0000E94C910FFEFEF1AFF0A8EE0E816F10469
:100BB00061F78BE091E00F90DF91CF911F910F9142
:100BC000FF90EF900895EF92FF920F931F93CF93B2
:100BD000DF931F92CDB7DEB707E511E084E1E82E81
:100BE000F12CF80161918F01C70169830E94C11046
:100BF0006981681719F0C7010E94C910FFEFEF1A49
:100C0000FF0A88E1E816F10461F787E591E00F90AB
:100C1000DF91CF911F910F91FF90EF9008952F9248
:100C20003F924F925F926F927F928F929F92AF927C
:100C3000BF92CF92DF92EF92FF920F931F93CF93C9
:100C4000DF9300D000D01F92CDB7DEB75C012A0140
:100C50003B0120E030E0A901C301B2010E94441130
:100C600087FF05C020E030E040E05FEB04C020E0FB
:100C700030E040E05FE3C301B2010E94D8106B0195
:100C80007C0120E030E0A901C301B2010E944411BF
:100C900087FF04C0F7FAF094F7F8F094812C912CB8
:100CA0008DEC89839CEC9A838CEC282E9DE3392E65
:100CB00020E030E040E251E469817A81C1010E9484
:100CC000A8126D837B83182F092FA7019601902FFF
:100CD0000E944411181654F0EFEF8E1A9E0AFD81FF
:100CE000F9838B818A83212E302EE2CF20E030E001
:100CF000A901C301B2010E94441187FF08C08DE21F
:100D0000F501808381E090E09C838B8302C01C828C
:100D10001B828114910459F4EB81FC81EA0DFB1DC7
:100D200080E38083EB81FC813196FC83EB8300E0E0
:100D300010E008151905B9F129813A81A101C7010F
:100D4000B6010E9449110E94BB112B013C016B812D
:100D50007C81600F711F6A0D7B1D4AE0C2010E94F9
:100D60008C10B201550C880B990B0E94F31129814C
:100D70003A81A1010E94A8129B01AC01C701B601F2
:100D80000E94D7106B017C0120E030E040E251E48A
:100D900069817A81C1010E94491169837A831C01AA
:100DA0000F5F1F4FC6CF0A0D1B1DEB81FC81E00FAB
:100DB000F11F1082C5010F900F900F900F900F90B0
:100DC000DF91CF911F910F91FF90EF90DF90CF9027
:100DD000BF90AF909F908F907F906F905F904F905B
:100DE0003F902F9008952F923F924F925F926F9273
:100DF0007F928F929F92AF92BF92CF92DF92EF92AB
:100E0000FF920F931F93CF93DF93C0902802D0904F
:100E10002902E0902A02F0902B020E9460042091A7
:100E200000022223E9F060E08EE70E94A40561E061
:100E300082E90E94A40561E083E20E94A40561E0CA
:100E4000809100020E94A40580910A01882311F07C
:100E5000815003C01092000286E080930A0170C3A3
:100E600024EFC20E21E0D21EE11CF11C11E0C616D7
:100E7000D706E806F90608F010E060E08EE70E9469
:100E8000A40561E08FE90E94A405111170C0809152
:100E90000102A0917E01B0917F01E82FF0E0EE0FFA
:100EA000FF1FE052FE4F20813181232B49F48F5FD9
:100EB000282F30E02A173B0784F31092010202C06A
:100EC0008093010260910102F6E0E0E026E030E06C
:100ED000E12C40E050E070E0CA01860F971F8A17AE
:100EE0009B07A4F5009709F1E394880F991FFC0173
:100EF000E054FE4F80818F718830A1F0813019F469
:100F0000C901039615C0811103C0C901029610C022
:100F1000853019F4C90104960BC0893019F0C90154
:100F2000019606C0C901059603C0C9012F2F3E2FA7
:100F30004F5F5F4F4031510551F08B31910514F0F7
:100F4000EA9404C0F22FE32F9C01C6CFC901C82F39
:100F5000C06481E0809373016C2F8BE591E00E9467
:100F6000D00360E08C2F0E940405C82F1DC0E091C3
:100F70002E02F0E0EE0FFF1FEF53FE4F8081C82FCF
:100F8000CF71829586958770C80FC85F81E0809386
:100F900073016C2F8BE591E00E94D00360E08C2FF1
:100FA0000E940405C82FE12CD1E0D093730161E1C8
:100FB0008BE591E00E94D0036C2F81E10E94040533
:100FC000C82FD093730164EA8BE591E00E94D003AF
:100FD0006C2F84EA0E940405C82FD093730162E04D
:100FE0008BE591E00E94D0036C2F82E00E94040503
:100FF000C82FD093730166E08BE591E00E94D00387
:101000006C2F86E00E940405C82FD093730160E026
:101010008BE591E00E94D003109273016C2F80E069
:101020000E940405F82E1111EAC1C09101026E2C34
:101030006C0E20917E0130917F01C61551F077240E
:1010400073947C0E709201020C2F10E002171307AC
:1010500054F08091010290E0821793070CF46CC267
:101060001092010269C2CC2309F4C7C1E0912C029D
:10107000F0912D020995C295C07F680131E2C30E3F
:10108000D11CC601880F991FFC01E258FE4F5F0179
:1010900080818F7190E08530910509F4BEC0F4F530
:1010A000009709F495C0019709F0A7C1000F111F1F
:1010B000F801E052FE4F0190F081E02D0081118196
:1010C000C160D09373016C2F8BE591E00E94D00337
:1010D0006F2D8C2F0E940405C82F1F79F5012081E8
:1010E00022952695277030E0322F22273295330F34
:1010F000307E022B132BD0937301602F8BE591E090
:101100000E94D0036C2F802F0E940405082F912F7E
:101110009F79F501C081C07EC92B74C088309105CC
:1011200021F0099709F4C2C068C1C860D093730167
:101130006C2F8BE591E00E94D0036F2D8C2F0E94C5
:101140000405C82F000F111FF801E052FE4F019057
:10115000F081E02D80819181A281B3816C017D01BC
:10116000FFE9FF22D09373016C2D8BE591E00E9483
:10117000D0036C2F8C2D0E940405C82F2D2C3E2CE3
:101180004F2C552447FC5A94D0937301622D8BE564
:1011900091E00E94D0036C2F822D0E940405C82F7D
:1011A0001701552437FC5094452CD0937301622DC0
:1011B0008BE591E00E94D0036C2F822D0E940405E4
:1011C000182F9F2D9F79F501C081C07EC92B62C069
:1011D000000F111FF801E052FE4F0190F081E02D49
:1011E0001081D09373016C2F8BE591E00E94D003A6
:1011F0006F2D8C2F0E940405082F1F79F501C081E7
:10120000C07EC12BD09373016C2F8BE591E00E94BF
:10121000D00310927301602F47C0C560D093730153
:101220006C2F8BE591E00E94D003109273016F2D1B
:101230008C2F0E940405F82E000F111FF801E052B8
:10124000FE4F0190F081E02D118102819081F50126
:101250002081229526952770213011F0C0E001C031
:10126000C0E4C92BD0937301602F8BE591E00E94FD
:10127000D0036F2D802F0E940405082FD093730197
:10128000612F8BE591E00E94D003602F812F0E9497
:101290000405182FD09373016C2F8BE591E00E9409
:1012A000D00310927301612F8C2FA4C0C960D0931A
:1012B00073016C2F8BE591E00E94D0036F2D8C2F72
:1012C0000E940405C82F000F111FF801E052FE4FC5
:1012D0000190F081E02D80809180A280B38020E099
:1012E00030E0A901C501B4010E94A31218161CF434
:1012F000C501B40103C0C501B40190580E94C211D8
:101300008B0180E090E00E94F1119B01AC01C501CE
:10131000B4010E94D7102AE939E949E15FE30E944C
:10132000A81220E030E543EC57E40E94A8121B010C
:101330002C0120E030E0A9010E94A31218161CF431
:10134000C201B10103C0C201B10190580E94C21193
:10135000562EF72E812F8170F601EE0FFF1FE258F7
:10136000FE4F9081929596959770913011F090E094
:1013700001C090E2192F182B20E030E0A901C5012F
:10138000B4010E944411881F8827881F8295880F06
:10139000880F807C182BD0937301652D8BE591E02D
:1013A0000E94D0036C2F852D0E940405C82FD09376
:1013B00073016F2D8BE591E00E94D0036C2F8F2D70
:1013C0000E940405C82FD0937301602F8BE591E034
:1013D0000E94D0036C2F802F0E940405C82FD09349
:1013E0007301612F8BE591E00E94D003109273018D
:1013F0006C2F812F0E940405F82EC72D1ACEC091A4
:101400002E02D09373016C2F8BE591E00E94D003E4
:101410006F2D8C2F0E940405B82E0C2F10E0680150
:10142000CC0CDD1C96012F533E4F4901F901208160
:10143000922F9F71F8E09F9F7001112422952695AD
:101440002770E22AD09373016E2D8BE591E00E9404
:10145000D003109273016B2D8E2D0E940405F82E7F
:10146000F601E058FE4FD081AD2EB1807724739401
:101470002A2D2D1B30E0F40180818F7190E0281718
:101480003907A4F4F501E490709273016E2D8BE599
:1014900091E00E94D003109273016F2D8E2D0E9457
:1014A0000405F82EFFEFAF1ABF0AE2CF000F111F9D
:1014B000D801A056BE4FDC910D2F11961C919601BC
:1014C0002F533E4F6901BB24B394202F2D1B30E0D6
:1014D000F601808182958695877090E028173907FC
:1014E0009CF4F801E490B09273016E2D8BE591E0CD
:1014F0000E94D003109273016F2D8E2D0E9404055F
:10150000F82E0F5F1F4FE1CFCF5FC0932E028C2FBD
:1015100090E020917E0130917F018217930714F0B3
:1015200010922E020E946004609328027093290298
:1015300080932A0290932B0261E08F2D0E94A405D4
:10154000E0912C02F0912D02099560E08EEF0E944F
:10155000A405C6E0D2E01C2F105E61E089910E94D4
:10156000A4051C13FACF60E08FEF0E94A40581E070
:10157000DF91CF911F910F91FF90EF90DF90CF906F
:10158000BF90AF909F908F907F906F905F904F90A3
:101590003F902F900895CF93DF93CDB7DEB7E097BC
:1015A0000FB6F894DEBF0FBECDBF789484B58260CD
:1015B00084BD84B5816084BD85B5826085BD85B5F7
:1015C000816085BD80916E00816080936E00109275
:1015D00081008091810082608093810080918100F0
:1015E0008160809381008091800081608093800081
:1015F0008091B10084608093B1008091B0008160DF
:101600008093B00080917A00846080937A0080910A
:101610007A00826080937A0080917A008160809362
:101620007A0080917A00806880937A001092C100DD
:1016300061E08DE00E94B50161E08DE00E946901EA
:1016400061E083E00E94B50160E083E00E946901EF
:101650008091410190914201909305018093040192
:1016600062E071E080E191E00E94560389EF90E032
:1016700090938101809380011092A1011092A001AA
:101680001092E1011092E0011092C00188E0809375
:10169000C10181E090E090937F0180937E0161E041
:1016A00083E00E94690161E083E00E94B501A1EC42
:1016B000EA2EA0E0FA2EF701849180936B010DEAE7
:1016C00010E0F801849190E0880F991F80569F4F99
:1016D000FC012591349130936D0120936C0160E001
:1016E00083E00E94B50161E083E00E94690183E02C
:1016F00080936701F701E490E0926801F80104919A
:10170000E02FF0E0EE0FFF1FEA56FF4F8591949116
:1017100090936A018093690181E08093710185E96A
:1017200091E090937D0180937C0129EB30E0309330
:1017300075012093740123E931E030937701209300
:10174000760146E554E05093790140937801309357
:101750007B0120937A012091680024602093680027
:101760002DE630E030936F0120936E0128E0209346
:1017700070010197F1F70E94D4020E94C20262E058
:1017800082E00E94B50184E391E09093010180938F
:101790000001809169008C7F816080936900E89AE4
:1017A00080E090E00E94C110813079F061E080E03B
:1017B00090E00E945E0460913D0181E090E00E9413
:1017C0005E040E94B7050E94E30581E090E00E945C
:1017D000C110E82EF12CF0923E01E0923D01FBE0B9
:1017E000CF2EF1E0DF2E0AE010E0C8010E94C11008
:1017F000F60181936F010F5F1F4F0E301105A9F79E
:10180000E7E5CE2EE1E0DE2E04E110E0C8010E9403
:10181000C110F60181936F010F5F1F4F0831110551
:10182000A9F7EA94EF2839F484E090E09093090155
:101830008093080104C010930901009308016AEE27
:1018400070E08DEE90E00E940603803188F490E015
:10185000FC01EE0FFF1FE052FE4F2DE431E031831B
:101860002083880F991FFC01E054FE4F88E080839D
:101870006AED70E08FED90E00E940603803188F4FD
:1018800090E0FC01EE0FFF1FE052FE4F23E431E039
:1018900031832083880F991FFC01E054FE4F88E0BC
:1018A000808362ED70E084ED90E00E940603803159
:1018B00088F490E0FC01EE0FFF1FE052FE4F26E09F
:1018C00031E031832083880F991FFC01E054FE4FE3
:1018D00081E080830E94F30660E08DE00E94690150
:1018E00080E0282E80E0382E0091510110915201A5
:1018F000B801012E000C880B990B0E94F3116B01AB
:101900007C016091080170910901072E000C880B81
:10191000990B0E94F3119B01AC01C701B6010E9413
:1019200049116B017C0120910B0130910C01409118
:101930000D0150910E0160E070E08AE794E40E948E
:1019400049119B01AC01C701B6010E94A8120E9477
:10195000BB1197FD09C060934D0170934E018093B8
:101960004F019093500108C010924D0110924E010A
:1019700010924F01109250016091570170915801DF
:101980008091590190915A011616170618061906EA
:10199000DCF420914D0130914E0140914F01509166
:1019A0005001121613061406150674F40E9429132A
:1019B0006CE97FEF8FEF9FEF0E9429132C593F4F67
:1019C00030930701209306010E9460048090490132
:1019D00090904A01A0904B01B0904C0175016401B8
:1019E00028EEC20E23E0D21EE11CF11CC616D7065B
:1019F000E806F90640F40E946004693873418105E5
:101A0000910508F0A8C28091430190914401A091F2
:101A10004501B0914601B7FF08C0109243011092F2
:101A200044011092450110924601E0914101F0916C
:101A30004201E730F10521F01092400110923F0180
:101A400080910401909105018E179F0721F0F0937A
:101A50000501E0930401E830F10508F0E8C0EC5C12
:101A6000FF4F0C94481361EF71E08FEF91E0DDC000
:101A700019A2198A6AEE71E0CE0181960E9478104F
:101A8000198260914D0170914E0180914F019091AA
:101A900050010E94F311AB01BC01CE0101960E94DE
:101AA0000F06BE016F5F7F4FCE0181960E948913A2
:101AB00067EE71E0CE0181960E94781060EE71E0D1
:101AC000CE0141960E947810198260914301709175
:101AD000440180914501909146010E94F311AB01B0
:101AE000BC01CE0101960E940F06BE016F5F7F4FC1
:101AF000CE0141960E9489136BED71E086C019A258
:101B0000198A6BEC71E0CE0181960E9478106DEB22
:101B100071E07BC019A2198A62EB71E0CE01819657
:101B20000E9478101982609157017091580180913C
:101B3000590190915A010E94F311AB01BC01CE01F1
:101B400001960E940F06BE016F5F7F4FCE01819606
:101B50000E9489136FEA71E0CE0181960E9478108D
:101B60006FE971E052C019A2198A65E971E0CE01EE
:101B700081960E947810198240910B0150910C01BE
:101B800060910D0170910E01CE0101960E940F0629
:101B9000BE016F5F7F4FCE0181960E94891362E97B
:101BA00071E0CE0181960E94781062E871E02DC04C
:101BB00019A2198A69E771E0CE0181960E94781016
:101BC00080913D0190913E01892B31F462E771E0F3
:101BD000CE0181960E94781080913D0190913E0146
:101BE000019731F46AE671E0CE0181960E94781087
:101BF0006CE571E00AC019A2198A6EE471E0CE01A9
:101C000081960E9478106EE371E0CE0141960E94A9
:101C10007810BE016F5E7F4FCE0181960E948C03CB
:101C200006C060E271E08EE291E00E9456038BE50F
:101C300091E00E94AC020E94C2020E94F30660E0A2
:101C4000809167010E94B50161E0809167010E9467
:101C500069010E94D4020E94D4020E9460046B01B8
:101C60007C01F4E6CF0ED11CE11CF11C00E010E079
:101C70000E9460046C157D058E059F0578F58BE547
:101C800091E00E9474021816190694F78BE591E012
:101C90000E9474021816190614F000E01AC08BE5B1
:101CA00091E00E948B02082F809127028013C5C10A
:101CB0008090020290900302A0900402B09005026E
:101CC0000E94600486169706A806B90608F4B5C1F6
:101CD000E4CF10E00115110559F2C7C1003F11050D
:101CE00009F432C10115110509F42EC1003911059D
:101CF00009F495C044F40036110509F4FDC000371D
:101D00001105D1F021C1003D110571F1003E110511
:101D100029F0003B110509F017C142C08091410133
:101D2000909142018730910509F40EC186309105EA
:101D300009F4D2C0019613C08091410190914201F3
:101D40008336910521F41092420110924101809155
:101D5000410190914201009709F4F6C001979093D8
:101D6000420180934101F0C0809141019091420174
:101D70008330910569F48091570190915801A091A9
:101D80005901B0915A018C599F4FAF4FBF4F1BC0A3
:101D9000049709F0D9C020E030E040E85FE371C06B
:101DA000809141019091420183309105A9F4809185
:101DB000570190915801A0915901B0915A01885151
:101DC0009C4FAF4FBF4F8093570190935801A09302
:101DD0005901B0935A01B8C08430910529F420E02C
:101DE00030E040E85FE39EC0059709F0ADC0809108
:101DF0003D0190913E01019741F410923E011092F5
:101E00003D0160E081E090E007C081E090E09093C8
:101E10003E0180933D0161E00E945E0495C0809187
:101E200041019091420183309105A1F480915701C5
:101E300090915801A0915901B0915A01C296A11DEB
:101E4000B11D8093570190935801A0935901B0930D
:101E50005A010CC0029751F4109252011092510194
:101E600081E090E090934201809341018091410193
:101E7000909142018430910579F420E030E040E215
:101E800051E460910B0170910C0180910D019091D2
:101E90000E010E94D81050C0069709F055C010924C
:101EA0003E0110923D0180E090E0AAE7B4E4809307
:101EB0000B0190930C01A0930D01B0930E011092B1
:101EC0005701109258011092590110925A0161E085
:101ED00080E090E00E945E0460913D0181E090E02E
:101EE0000E945E040E94B7050E94E3050E9416024C
:101EF000E0E0F0E0099528C0809141019091420115
:101F00008330910549F410925701109258011092B4
:101F1000590110925A0118C00497B1F420E030E042
:101F200040E251E460910B0170910C0180910D0130
:101F300090910E010E94D71060930B0170930C01D9
:101F400080930D0190930E012114310409F4CCCC3F
:101F50000E940000C9CC0E9460046B017C0160916A
:101F60005101709152018091470190914801681B85
:101F7000790B072E000C880B990B0E94F3112B0193
:101F80003C016091080170910901072E000C880B3B
:101F9000990B0E94F3119B01AC01C301B2010E9495
:101FA000491120E030E040E752E40E94A8122B01E2
:101FB0003C01B60168197909072E000C880B990BB2
:101FC0000E94F31120E030E04AE754E40E944911F6
:101FD0009B01AC01C301B2010E9449116B017C015C
:101FE00020910B0130910C0140910D0150910E0197
:101FF00060E070E08AE794E40E9449119B01AC0123
:10200000C701B6010E94A8120E94BB116093430150
:102010007093440180934501909346010E946004AF
:102020006093490170934A0180934B0190934C0156
:102030001093480100934701E6CC0E946004DC0144
:10204000CB0180579E4FAF4FBF4F809302029093BA
:102050000302A0930402B093050200932702003FFD
:1020600009F037CE00EF10E003CE003F110509F074
:102070003DCE6ACF83E191E090935C0180935B0158
:102080008BE591E00C94AC02EBE5F1E01382128257
:1020900088EE93E0A0E0B0E084839583A683B783C5
:1020A00083E191E091838083A2E7B1E08C918E7F00
:1020B0008C93128E118E148E138E168E158E12A284
:1020C00011A21092020210920302109204021092C6
:1020D00005021092000210927F0110927E01109270
:1020E00001028EE492E090932D0280932C020895D9
:1020F000FB01DC010D900020E9F7119705900D928E
:102100000020E1F70895FC0105900020E9F7809593
:1021100090958E0F9F1F0895BB274A3031F4992365
:1021200022F4BDE2909581959F4F0C949810BB27A7
:10213000FB015527AA27880F991FAA1FA41710F083
:10214000A41B83955051B9F7A05DAA3308F0A95D8F
:10215000A193009779F7B111B1931192CB010C942F
:10216000B110DC01FC01672F71917723E1F7329701
:1021700004C07C916D9370836291AE17BF07C8F362
:102180000895F999FECF92BD81BDF89A992780B53F
:102190000895262FF999FECF1FBA92BD81BD20BDAB
:1021A0000FB6F894FA9AF99A0FBE0196089550580E
:1021B000BB27AA270E94EF100C9469120E945B12A1
:1021C00038F00E94621220F039F49F3F19F426F48F
:1021D0000C9458120EF4E095E7FB0C945212E92F80
:1021E0000E947A1258F3BA1762077307840795079B
:1021F00020F079F4A6F50C949C120EF4E0950B2EC9
:10220000BA2FA02D0B01B90190010C01CA01A00148
:102210001124FF27591B99F0593F50F4503E68F1A3
:102220001A16F040A22F232F342F4427585FF3CFE4
:10223000469537952795A795F0405395C9F77EF4B5
:102240001F16BA0B620B730B840BBAF09150A1F0FE
:10225000FF0FBB1F661F771F881FC2F70EC0BA0F84
:10226000621F731F841F48F4879577956795B7950C
:10227000F7959E3F08F0B0CF9395880F08F0992707
:10228000EE0F9795879508950E942E1208F481E02D
:1022900008950E945D110C9469120E94621258F018
:1022A0000E945B1240F029F45F3F29F00C94521217
:1022B00051110C949D120C9458120E947A1268F3DA
:1022C0009923B1F3552391F3951B550BBB27AA27EF
:1022D00062177307840738F09F5F5F4F220F331F29
:1022E000441FAA1FA9F335D00E2E3AF0E0E832D0F1
:1022F00091505040E695001CCAF72BD0FE2F29D0F4
:10230000660F771F881FBB1F261737074807AB07C5
:10231000B0E809F0BB0B802DBF01FF2793585F4F3A
:102320003AF09E3F510578F00C9452120C949D1295
:102330005F3FE4F3983ED4F3869577956795B7951C
:10234000F7959F5FC9F7880F911D9695879597F927
:102350000895E1E0660F771F881FBB1F62177307A0
:102360008407BA0720F0621B730B840BBA0BEE1FB5
:1023700088F7E09508950E94C2116894B1110C94F9
:102380009D1208950E94821288F09F5798F0B92FED
:102390009927B751B0F0E1F0660F771F881F991F9A
:1023A0001AF0BA95C9F714C0B13091F00E949C128E
:1023B000B1E008950C949C12672F782F8827B85F9E
:1023C00039F0B93FCCF3869577956795B395D9F7F2
:1023D0003EF490958095709561957F4F8F4F9F4FFC
:1023E0000895E89409C097FB3EF490958095709508
:1023F00061957F4F8F4F9F4F9923A9F0F92F96E951
:10240000BB279395F695879577956795B795F111C5
:10241000F8CFFAF4BB0F11F460FF1BC06F5F7F4F62
:102420008F4F9F4F16C0882311F096E911C0772374
:1024300021F09EE8872F762F05C0662371F096E87D
:10244000862F70E060E02AF09A95660F771F881F4C
:10245000DAF7880F9695879597F90895990F0008F0
:10246000550FAA0BE0E8FEEF16161706E807F90766
:10247000C0F012161306E407F50798F0621B730B01
:10248000840B950B39F40A2661F0232B242B252B82
:1024900021F408950A2609F4A140A6958FEF811D25
:1024A000811D089597F99F6780E870E060E00895C6
:1024B0009FEF80EC089500240A941616170618065C
:1024C0000906089500240A94121613061406050638
:1024D0000895092E0394000C11F4882352F0BB0FC9
:1024E00040F4BF2B11F460FF04C06F5F7F4F8F4F2C
:1024F0009F4F089557FD9058440F551F59F05F3F67
:1025000071F04795880F97FB991F61F09F3F79F015
:1025100087950895121613061406551FF2CF469597
:10252000F1DF08C0161617061806991FF1CF869519
:102530007105610508940895E894BB2766277727FD
:10254000CB0197F908950E942E1208F48FEF089599
:102550000E94BB120C9469120E945B1238F00E9418
:10256000621220F0952311F00C9452120C94581220
:1025700011240C949D120E947A1270F3959FC1F35E
:10258000950F50E0551F629FF001729FBB27F00D21
:10259000B11D639FAA27F00DB11DAA1F649F662776
:1025A000B00DA11D661F829F2227B00DA11D621FC5
:1025B000739FB00DA11D621F839FA00D611D221F7F
:1025C000749F3327A00D611D231F849F600D211D63
:1025D000822F762F6A2F11249F5750409AF0F1F0E6
:1025E00088234AF0EE0FFF1FBB1F661F771F881F4F
:1025F00091505040A9F79E3F510580F00C94521223
:102600000C949D125F3FE4F3983ED4F38695779542
:102610006795B795F795E7959F5FC1F7FE2B880FF4
:10262000911D9695879597F9089597FB072E16F4B7
:10263000009407D077FD09D00E944E1307FC05D007
:102640003EF4909581959F4F0895709561957F4FC9
:102650000895052E97FB1EF400940E94401357FD29
:1026600007D00E94621307FC03D04EF40C94401371
:1026700050954095309521953F4F4F4F5F4F0895AE
:1026800090958095709561957F4F8F4F9F4F0895DE
:10269000EE0FFF1F0590F491E02D0994AA1BBB1BC0
:1026A00051E107C0AA1FBB1FA617B70710F0A61B52
:1026B000B70B881F991F5A95A9F780959095BC0173
:1026C000CD010895A1E21A2EAA1BBB1BFD010DC06E
:1026D000AA1FBB1FEE1FFF1FA217B307E407F507D2
:1026E00020F0A21BB30BE40BF50B661F771F881FAE
:1026F000991F1A9469F760957095809590959B0144
:10270000AC01BD01CF01089581E090E0F8940C94F4
:102710009413FB01DC010D900020E9F71197019063
:102720000D920020E1F7089511E0C9E0D1E004C066
:10273000FE010E9448132196CA30D107C9F7F894C8
:02274000FFCFC9
:102742004D024D020100640018000600007A4400A8
:10275200000000D0033E010303730274028B025B8C
:02276200020073
:00000001FF
