:100000000C94FB000C948C040C9465040C94BF04B9
:100010000C94BF040C94BF040C9423010C94230192
:100020000C9423010C9423010C9423010C942301C0
:100030000C9423010C9423010C9423010C942301B0
:100040000C941B040C9423010C9423010C942301A5
:100050000C9423010C9423010C9423010C94230190
:100060000C9423010C9423012A0D2F0D760D810D84
:10007000AA0DDA0DF60DF00D000000002400270097
:100080002A0000000008000201000003040700002D
:1000900000000000000000000000230026002900EE
:1000A00000000000250028002B00040404040404C0
:1000B0000404020202020202030303030303010217
:1000C00004081020408001020408102001020408E6
:1000D0001020250052656D61696E696E67006D6C58
:1000E0002F6D00466C6F77205370656564006D6CF2
:1000F00000436F6E73756D7074696F6E0052435478
:10010000204675656C0020204675656C2053656E31
:10011000736F720020524354204A65746920546FF3
:100120006F6C730020204675656C2053656E736F8D
:10013000720020524354204A65746920546F6F6CDA
:100140007300527374205570446E2053617665209D
:100150003E005265736574206F72205361766500AE
:1001600052737420446E2020204E657874203E0027
:10017000446F6E65210043616C6962722E3A200003
:10018000527374204C655269204E657874203E008D
:100190006D6C0054616E6B206361703A2000527385
:1001A0007420446E2020204E657874203E005265F5
:1001B00073657420436F6E73756D70742E006D6C73
:1001C0002F6D00466C6F773A20006D6C00436F6EA8
:1001D000733A200020204675656C2053656E736F5E
:1001E000720020524354204A65746920546F6F6C2A
:1001F0007300EC0FC80A11241FBECFEFD8E0DEBF9A
:10020000CDBF11E0A0E0B1E0E2E9F6E202C0059066
:100210000D92AC31B107D9F722E0ACE1B1E001C0F9
:100220001D92A133B207E1F710E0CAEFD0E004C09D
:100230002197FE010E94F012C93FD107C9F70E9421
:10024000D20A0C943C130C940000809155019091BB
:100250005601A0915701B09158010196A11DB11D01
:100260008093550190935601A0935701B093580184
:100270000895CF92DF92EF92FF920F931F93CF9347
:10028000DF936C017A018B01C0E0D0E0CE15DF0571
:1002900089F0D8016D918D01D601ED91FC9101900D
:1002A000F081E02DC6010995892B11F47E0102C071
:1002B0002196ECCFC701DF91CF911F910F91FF9055
:1002C000EF90DF90CF9008953FB7F894809133017D
:1002D00090913401A0913501B091360126B5A89BCB
:1002E00005C02F3F19F00196A11DB11D3FBFBA2FC8
:1002F000A92F982F8827820F911DA11DB11DBC0128
:10030000CD0142E0660F771F881F991F4A95D1F7EC
:1003100008958F929F92AF92BF92CF92DF92EF9209
:10032000FF920E9464014B015C0188ECC82ED12C25
:10033000E12CF12C0E946401DC01CB0188199909A0
:10034000AA09BB09883E9340A105B10558F021E0F8
:10035000C21AD108E108F10888EE880E83E0981EE1
:10036000A11CB11CC114D104E104F10419F7FF90E0
:10037000EF90DF90CF90BF90AF909F908F900895B7
:1003800008950895DC015196ED91FC91529790816A
:1003900050968C91809589238083089520915B01EC
:1003A00030915C012817390771F4909159018091BF
:1003B0005A01981741F0E0915901F0E0E25EFE4FDA
:1003C000808190E008958FEF9FEF08950895209128
:1003D0005B0130915C012817390769F480915A015B
:1003E0002091590190E04096821B910960E170E0F4
:1003F0000E94BD12089580E090E0089520915B0175
:1004000030915C0128173907B9F490915901809116
:100410005A01981789F0E0915901F0E0E25EFE4F31
:1004200080812091590130E02F5F3F4F2F7033279B
:100430002093590190E008958FEF9FEF089508955C
:1004400080E090E008950F931F93CF93DF938C018A
:10045000EB010E942B10A8E0B2E090E020E2981798
:1004600040F4A8014F5F5F4FF80104910C938A019B
:1004700001C02C939F5F1196903189F7CE010E94A5
:100480002B10A8E1B2E090E020E2981740F4AE0112
:100490004F5F5F4FFE01C491CC93EA0101C02C93E2
:1004A0009F5F1196903189F7DF91CF911F910F9146
:1004B0000895CF93DF93FC0101900020E9F7319775
:1004C000E81B20E030E0F0E2A90148575F4F2E170B
:1004D00048F4EA01C058DE4FDC01A20FB31FAC9113
:1004E000A88304C0DA01A058BE4FFC932F5F3F4F92
:1004F0002031310549F7FB0101900020E9F73197E0
:10050000E61B80E090E040E29C0128563F4F8E17AA
:1005100048F4E901C058DE4FDB01A80FB91F5C9118
:10052000588304C0D901A058BE4F4C930196803126
:10053000910551F7DF91CF910895CF92DF92EF921D
:10054000FF920F931F93CF93DF93EB017B0124E086
:10055000E20EF11C8B016C01C61AD70AC601800F8E
:10056000911F0E946910F80181938F01EE15FF051C
:10057000A9F7CE01DF91CF911F910F91FF90EF90DE
:10058000DF90CF900895CF92DF92EF92FF920F937A
:100590001F93CF93DF93EC0189A19AA1009729F4CF
:1005A00021E030E03B832A8371C00FB7F8948F8D30
:1005B00098A1892B91F028E030E090E081E0482F6D
:1005C000462309F09F5F880F21503109C1F7888DBC
:1005D00081119F5F192F109501C010E0F62ECE01FA
:1005E0000E94C20189A19AA10197F1F788E0C82E63
:1005F000D12CEE24E3948E2D8F2139F0E989FA89EC
:1006000090818889892B808303C0CE010E94C2011A
:1006100089A19AA10197F1F7EE0C81E0C81AD108DF
:1006200051F78E89882389F0888D882339F0E989EC
:10063000FA8990818889892B808303C0CE010E942A
:10064000C20189A19AA10197F1F78F8D98A1892BF9
:1006500081F010FF07C0E989FA8990818889892B88
:10066000808303C0CE010E94C2018F8D98A10197A3
:10067000F1F7E989FA8990818889892B80830FBFF6
:100680008D8D9E8D0197F1F781E090E0DF91CF9104
:100690001F910F91FF90EF90DF90CF9008950E94EF
:1006A0002C13AF92BF92CF92DF92EF92FF920F93F3
:1006B0001F93CF93DF931F92CDB7DEB75C017B0111
:1006C0008B016C0184E0C80ED11CF80161918F018F
:1006D000C50169830E9469106981681719F0C50115
:1006E0000E947110FFEFAF1ABF0AAC14BD0469F786
:1006F000C7010F90DF91CF911F910F91FF90EF9065
:10070000DF90CF90BF90AF9008950C94711090E05F
:10071000FC01EE57FF4F3491FC01E254FF4F24914E
:10072000FC01E655FF4FE491EE2309F43BC033236F
:1007300039F1333091F038F43130A9F0323001F52D
:1007400084B58F7D12C0373091F03830A1F034304D
:10075000B9F4809180008F7D03C0809180008F77F5
:10076000809380000DC084B58F7784BD09C08091CF
:10077000B0008F7703C08091B0008F7D8093B00070
:10078000F0E0EE0FFF1FE056FF4FA591B4918FB739
:10079000F894EC91611103C020952E2301C02E2BFB
:1007A0002C938FBF0895CF93DF9390E0FC01E25428
:1007B000FF4F2491FC01E655FF4F8491882361F19E
:1007C00090E0880F991FFC01E858FF4FC591D49124
:1007D000FC01E056FF4FA591B491611109C09FB78C
:1007E000F8948881209582238883EC912E230BC076
:1007F000623061F49FB7F8943881822F809583230B
:100800008883EC912E2B2C939FBF06C08FB7F89452
:10081000E8812E2B28838FBFDF91CF9108952FB7CA
:10082000F89460912F017091300180913101909185
:1008300032012FBF08951F920F920FB60F9211240D
:100840002F933F938F939F93AF93BF9380912F01EB
:1008500090913001A0913101B091320130912E017F
:1008600023E0230F2D3720F40196A11DB11D05C0F3
:1008700026E8230F0296A11DB11D20932E0180931F
:100880002F0190933001A0933101B09332018091F8
:10089000330190913401A0913501B0913601019658
:1008A000A11DB11D8093330190933401A0933501B4
:1008B000B0933601BF91AF919F918F913F912F914E
:1008C0000F900FBE0F901F9018951F920F920FB6AA
:1008D0000F9211242F933F934F935F936F937F93C6
:1008E0008F939F93AF93BF93EF93FF93E091020198
:1008F000F09103010995FF91EF91BF91AF919F9105
:100900008F917F916F915F914F913F912F910F90B8
:100910000FBE0F901F9018951F920F920FB60F9257
:1009200011242F933F934F935F936F937F938F93F4
:100930009F93AF93BF93EF93FF93E0910001F091EA
:1009400001010995FF91EF91BF91AF919F918F9117
:100950007F916F915F914F913F912F910F900FBEBB
:100960000F901F901895862798E027E087FF03C017
:10097000880F822701C0880F9150C1F708951F92F8
:100980000F920FB60F9211242F933F934F935F93C3
:100990006F937F938F939F93AF93BF93CF93DF9387
:1009A000EF93FF93E0915B01F0915C01309709F4C4
:1009B00067C0C685D78588812585822309F060C0F8
:1009C000818D928D0197F1F7438D548D68E070E031
:1009D00030E081E0DA011197F1F79881922311F06C
:1009E000382B03C0982F90953923880F61507109D7
:1009F00089F780915A0190E001968F709927609154
:100A00005901681749F0A0915A01B0E0A25EBE4FAB
:100A10003C9380935A0103C087898160878B8689C4
:100A20008823F1F0CA010197F1F78881282381E03A
:100A300090E0A0E0B0E004C0880F991FAA1FBB1F80
:100A40002A95D2F740911C0150911D0160E070E0A1
:100A5000842B952BA62BB72B90931D0180931C0103
:100A6000878D90A1009711F00197F1F7858D968DF4
:100A70000197F1F7A389B4899C918589892B8C937F
:100A8000FF91EF91DF91CF91BF91AF919F918F91A6
:100A90007F916F915F914F913F912F910F900FBE7A
:100AA0000F901F901895E0915B01F0915C01E817A1
:100AB000F90769F4A389B4899C9185898095892374
:100AC0008C9310925C0110925B0181E0089580E0AC
:100AD000089580917A0190917B01892B31F1809169
:100AE0005B0190915C0121E08D359207F1F0009758
:100AF00011F00E945305809174018E7F80937401E0
:100B000010925A01109259018DE591E090935C0189
:100B100080935B01E0917001F0917101908180916F
:100B20007201892B808381E0089580E008950F93FE
:100B30001F93CF93C82F0DE511E0F801608F682F48
:100B4000C8010E94C302F801108E8C2FCF911F9113
:100B50000F9108952F923F924F925F926F927F92E2
:100B60008F929F92AF92BF92CF92DF92EF92FF92BD
:100B70000F931F93CF93DF9300D000D01F92CDB778
:100B8000DEB75C012A013B0120E030E0A901C3018E
:100B9000B2010E94EC1087FF05C020E030E040E089
:100BA0005FEB04C020E030E040E05FE3C301B2014E
:100BB0000E9480106B017C0120E030E0A901C3019C
:100BC000B2010E94EC1087FF04C0F7FAF094F7F826
:100BD000F094812C912C8DEC89839CEC9A838CEC85
:100BE000282E9DE3392E20E030E040E251E4698177
:100BF0007A81C1010E9450126D837B83182F092FC7
:100C0000A7019601902F0E94EC10181654F0EFEFF8
:100C10008E1A9E0AFD81F9838B818A83212E302EC4
:100C2000E2CF20E030E0A901C301B2010E94EC1044
:100C300087FF08C08DE2F501808381E090E09C830E
:100C40008B8302C01C821B828114910459F4EB81B6
:100C5000FC81EA0DFB1D80E38083EB81FC813196F2
:100C6000FC83EB8300E010E008151905B9F1298138
:100C70003A81A101C701B6010E94F1100E946311DF
:100C80002B013C016B817C81600F711F6A0D7B1D04
:100C90004AE0C2010E943410B201550C880B990B36
:100CA0000E949B1129813A81A1010E9450129B014F
:100CB000AC01C701B6010E947F106B017C0120E0EE
:100CC00030E040E251E469817A81C1010E94F11073
:100CD00069837A831C010F5F1F4FC6CF0A0D1B1D4E
:100CE000EB81FC81E00FF11F1082C5010F900F9086
:100CF0000F900F900F90DF91CF911F910F91FF9068
:100D0000EF90DF90CF90BF90AF909F908F907F90AB
:100D10006F905F904F903F902F9008952F923F9249
:100D20004F925F926F927F928F929F92AF92BF92FB
:100D3000CF92DF92EF92FF920F931F93CF93DF93A7
:100D4000C0902A02D0902B02E0902C02F0902D024D
:100D50000E940F04209102022223E9F060E08EE756
:100D60000E94970561E082E90E94970561E083E2B5
:100D70000E94970561E0809102020E949705809190
:100D80000801882311F0815003C01092020286E00E
:100D90008093080170C324EFC20E21E0D21EE11C33
:100DA000F11C11E0C616D706E806F90608F010E0B7
:100DB00060E08EE70E94970561E08FE90E94970549
:100DC000111170C080910302A0918001B091810146
:100DD000E82FF0E0EE0FFF1FEE51FE4F2081318132
:100DE000232B49F48F5F282F30E02A173B0784F329
:100DF0001092030202C08093030260910302F6E0A6
:100E0000E0E026E030E0E12C40E050E070E0CA0194
:100E1000860F971F8A179B07A4F5009709F1E394A3
:100E2000880F991FFC01EE53FE4F80818F7188302F
:100E3000A1F0813019F4C901039615C0811103C0D6
:100E4000C901029610C0853019F4C90104960BC07F
:100E5000893019F0C901019606C0C901059603C081
:100E6000C9012F2F3E2F4F5F5F4F4031510551F089
:100E70008B31910514F0EA9404C0F22FE32F9C010A
:100E8000C6CFC901C82FC06481E0809375016C2F63
:100E90008DE591E00E94C30260E08C2F0E94B304B4
:100EA000C82F1DC0E0913002F0E0EE0FFF1FED53A0
:100EB000FE4F8081C82FCF71829586958770C80FAD
:100EC000C85F81E0809375016C2F8DE591E00E94F1
:100ED000C30260E08C2F0E94B304C82FE12CD1E044
:100EE000D093750161E18DE591E00E94C3026C2F02
:100EF00081E10E94B304C82FD093750164EA8DE5A7
:100F000091E00E94C3026C2F84EA0E94B304C82FB0
:100F1000D093750162E08DE591E00E94C3026C2FD1
:100F200082E00E94B304C82FD093750166E08DE57E
:100F300091E00E94C3026C2F86E00E94B304C82F88
:100F4000D093750160E08DE591E00E94C30210929C
:100F500075016C2F80E00E94B304F82E1111EAC1D4
:100F6000C09103026E2C6C0E2091800130918101A2
:100F7000C61551F0772473947C0E709203020C2FE7
:100F800010E00217130754F08091030290E08217DB
:100F900093070CF46CC21092030269C2CC2309F4CB
:100FA000C7C1E0912E02F0912F020995C295C07F32
:100FB000680131E2C30ED11CC601880F991FFC01E4
:100FC000E058FE4F5F0180818F7190E08530910580
:100FD00009F4BEC0F4F5009709F495C0019709F033
:100FE000A7C1000F111FF801EE51FE4F0190F081D3
:100FF000E02D00811181C160D09375016C2F8DE5CA
:1010000091E00E94C3026F2D8C2F0E94B304C82F61
:101010001F79F501208122952695277030E0322F27
:1010200022273295330F307E022B132BD09375017C
:10103000602F8DE591E00E94C3026C2F802F0E94EB
:10104000B304082F912F9F79F501C081C07EC92B71
:1010500074C08830910521F0099709F4C2C068C1B5
:10106000C860D09375016C2F8DE591E00E94C3029A
:101070006F2D8C2F0E94B304C82F000F111FF80191
:10108000EE51FE4F0190F081E02D80819181A2818F
:10109000B3816C017D01FFE9FF22D09375016C2DB6
:1010A0008DE591E00E94C3026C2F8C2D0E94B30449
:1010B000C82F2D2C3E2C4F2C552447FC5A94D093EE
:1010C0007501622D8DE591E00E94C3026C2F822D87
:1010D0000E94B304C82F1701552437FC5094452CA7
:1010E000D0937501622D8DE591E00E94C3026C2FB3
:1010F000822D0E94B304182F9F2D9F79F501C08186
:10110000C07EC92B62C0000F111FF801EE51FE4FC7
:101110000190F081E02D1081D09375016C2F8DE549
:1011200091E00E94C3026F2D8C2F0E94B304082F00
:101130001F79F501C081C07EC12BD09375016C2F42
:101140008DE591E00E94C30210927501602F47C0A7
:10115000C560D09375016C2F8DE591E00E94C302AC
:10116000109275016F2D8C2F0E94B304F82E000F82
:10117000111FF801EE51FE4F0190F081E02D118119
:1011800002819081F50120812295269527702130DA
:1011900011F0C0E001C0C0E4C92BD0937501602FED
:1011A0008DE591E00E94C3026F2D802F0E94B30451
:1011B000082FD0937501612F8DE591E00E94C30245
:1011C000602F812F0E94B304182FD09375016C2FCC
:1011D0008DE591E00E94C30210927501612F8C2F62
:1011E000A4C0C960D09375016C2F8DE591E00E9479
:1011F000C3026F2D8C2F0E94B304C82F000F111F44
:10120000F801EE51FE4F0190F081E02D8080918039
:10121000A280B38020E030E0A901C501B4010E94A2
:101220004B1218161CF4C501B40103C0C501B4016A
:1012300090580E946A118B0180E090E00E94991101
:101240009B01AC01C501B4010E947F102AE939E974
:1012500049E15FE30E94501220E030E543EC57E49F
:101260000E9450121B012C0120E030E0A9010E94D5
:101270004B1218161CF4C201B10103C0C201B10126
:1012800090580E946A11562EF72E812F8170F60118
:10129000EE0FFF1FE058FE4F908192959695977044
:1012A000913011F090E001C090E2192F182B20E04E
:1012B00030E0A901C501B4010E94EC10881F882705
:1012C000881F8295880F880F807C182BD09375011A
:1012D000652D8DE591E00E94C3026C2F852D0E9443
:1012E000B304C82FD09375016F2D8DE591E00E9456
:1012F000C3026C2F8F2D0E94B304C82FD0937501A9
:10130000602F8DE591E00E94C3026C2F802F0E9418
:10131000B304C82FD0937501612F8DE591E00E9431
:10132000C302109275016C2F812F0E94B304F82E16
:10133000C72D1ACEC0913002D09375016C2F8DE568
:1013400091E00E94C3026F2D8C2F0E94B304B82E2F
:101350000C2F10E06801CC0CDD1C96012D533E4F84
:101360004901F9012081922F9F71F8E09F9F700140
:101370001124229526952770E22AD09375016E2DAF
:101380008DE591E00E94C302109275016B2D8E2DA8
:101390000E94B304F82EF601EE57FE4FD081AD2E19
:1013A000B180772473942A2D2D1B30E0F4018081C5
:1013B0008F7190E028173907A4F4F501E49070923A
:1013C00075016E2D8DE591E00E94C30210927501AA
:1013D0006F2D8E2D0E94B304F82EFFEFAF1ABF0AB7
:1013E000E2CF000F111FD801AE55BE4FDC910D2F7B
:1013F00011961C9196012D533E4F6901BB24B39465
:10140000202F2D1B30E0F601808182958695877014
:1014100090E0281739079CF4F801E490B092750128
:101420006E2D8DE591E00E94C302109275016F2D23
:101430008E2D0E94B304F82E0F5F1F4FE1CFCF5FB8
:10144000C09330028C2F90E0209180013091810177
:101450008217930714F0109230020E940F046093D9
:101460002A0270932B0280932C0290932D0261E04C
:101470008F2D0E949705E0912E02F0912F02099581
:1014800060E08EEF0E949705C8E0D2E01C2F105E4E
:1014900061E089910E9497051C13FACF60E08FEFFD
:1014A0000E94970581E0DF91CF911F910F91FF90EE
:1014B000EF90DF90CF90BF90AF909F908F907F90F4
:1014C0006F905F904F903F902F900895CF92DF9252
:1014D000FF920F931F93CF93DF9320918001309160
:1014E000810120313105CCF56B0189010F5F1F4F60
:1014F000F801EE0FFF1FE058FE4F91838083F90142
:10150000EE0FFF1FEE55FE4F71836083F901EE0F62
:10151000FF1FEE51FE4F11821082220F331FE9018F
:10152000CE53DE4F18820E942B10982F9F71898115
:10153000807EF82EF92AC6010E942B108295880F12
:10154000807E9F2D9F71F92EF82AF98210938101D8
:10155000009380018FEF800F01C08FEFDF91CF915B
:101560001F910F91FF90DF90CF900895CF93DF935D
:101570008DE591E00E945305CDE5D1E061E08C85D9
:101580000E94D30361E08C85DF91CF910C94870397
:101590008DE091E090935E0180935D018DE591E097
:1015A0000C945305CF93DF93CDB7DEB7E6970FB614
:1015B000F894DEBF0FBECDBF789484B5826084BD41
:1015C00084B5816084BD85B5826085BD85B5816047
:1015D00085BD80916E00816080936E0010928100C5
:1015E0008091810082608093810080918100816080
:1015F0008093810080918000816080938000809141
:10160000B10084608093B1008091B00081608093CC
:10161000B00080917A00846080937A0080917A0093
:10162000826080937A0080917A00816080937A0052
:1016300080917A00806880937A001092C10061E006
:101640008DE00E94D30361E08DE00E94870361E09A
:1016500083E00E94D30360E083E00E9487038091CF
:101660003B0190913C01909305018093040166E059
:1016700071E084E191E00E9423028DEF90E090936D
:101680008301809382011092A3011092A201109213
:10169000E3011092E2011092C20188E08093C3013D
:1016A00081E090E0909381018093800161E083E08C
:1016B0000E94870361E083E00E94D303E1ECEE2EF9
:1016C000E0E0FE2EF701849180936D010DEA10E0B9
:1016D000F801849190E0880F991F80569F4FFC017C
:1016E0002591349130936F0120936E0160E083E087
:1016F0000E94D30361E083E00E94870383E080932C
:101700006901F701E490E0926A01F8010491E02F89
:10171000F0E0EE0FFF1FEA56FF4F859194919093F2
:101720006C0180936B0181E08093730185E991E006
:1017300090937F0180937E0129EB30E03093770115
:101740002093760123E931E03093790120937801E9
:1017500046E554E050937B0140937A0130937D013C
:1017600020937C01209168002460209368002DE67E
:1017700030E0309371012093700128E020937201D2
:101780000197F1F70E9469050E94B60A62E082E0C3
:101790000E94D30385E291E09093010180930001C0
:1017A000809169008C7F816080936900E89A80E075
:1017B00090E00E9469108130B1F061E080E090E03B
:1017C0000E94850360E081E090E00E94850369E467
:1017D00071E08AE090E00E94510361E571E084E1EC
:1017E00090E00E94510381E090E00E94691090E037
:1017F000909338018093370169E471E08AE090E0CA
:101800000E949D0261E571E084E190E00E949D02EA
:101810006EEE70E081EF90E00E94660A803188F4FD
:1018200090E0FC01EE0FFF1FEE51FE4F2DE431E082
:1018300031832083880F991FFC01EE53FE4F88E00F
:1018400080836EED70E083EE90E00E94660A803146
:1018500088F490E0FC01EE0FFF1FEE51FE4F2DE3E8
:1018600031E031832083880F991FFC01EE53FE4F36
:1018700088E0808362ED70E084ED90E00E94660A6B
:10188000803188F490E0FC01EE0FFF1FEE51FE4F17
:1018900026E031E031832083880F991FFC01EE534D
:1018A000FE4F81E080830E948E0660E08DE00E9402
:1018B000870300E010E08090550190905601A090C1
:1018C0005701B0905801C501B4010E949B116B01F2
:1018D0007C0160915101709152018091530190916E
:1018E000540128EE33E040E050E00E94D112CA01DA
:1018F000B9010E949B119B01AC01C701B6010E9476
:10190000F1100E94631197FD09C060934D0170931F
:101910004E0180934F019093500108C010924D01E9
:1019200010924E0110924F011092500160914901A6
:1019300070914A0180914B0190914C011616170647
:1019400018061906C4F540904D0150904E01609064
:101950004F017090500114141504160417045CF51F
:101960000E949B116B017C01C301B2010E949B117B
:101970009B01AC01C701B6010E94F1109B01AC01B3
:1019800060E070E088EC92E40E94F1109B01AC01F1
:1019900060E070E088EC92E40E947F100E94631186
:1019A00077FD05C0709307016093060104C0109293
:1019B0000701109206010E940F04C0904501D090CB
:1019C0004601E0904701F090480126013701F8EE0A
:1019D0004F0EF3E05F1E611C711C46165706680629
:1019E000790640F40E940F0469387341810591051E
:1019F00008F068C280913D0190913E01A0913F01A5
:101A0000B0914001B7FF08C010923D0110923E0115
:101A100010923F0110924001E0913B01F0913C0196
:101A2000E730F10521F010923A01109239018091CE
:101A30000401909105018E179F0721F0F093050195
:101A4000E0930401E830F10508F0D0C0EC5CFF4FF2
:101A50000C94F01264ED71E082EE91E0C5C01A8A38
:101A600019826DEC71E0CE0142960E9420101BA2FB
:101A700060914D0170914E0180914F019091500104
:101A80000E949B11AB01BC01CE0183960E94AA0566
:101A9000BE016D5D7F4FCE0142960E9431136AEC0C
:101AA00071E0CE0142960E94201063EC71E0CE01FD
:101AB00001960E9420101BA260913D0170913E0191
:101AC00080913F01909140010E949B11AB01BC01AC
:101AD000CE0183960E94AA05BE016D5D7F4FCE01A7
:101AE00001960E9431136EEB71E06EC01A8A198262
:101AF0006EEA71E0CE0142960E9420106EE971E01C
:101B000063C01A8A198263E971E0CE0142960E948D
:101B100020101BA26091490170914A0180914B01F4
:101B200090914C010E949B11AB01BC01CE018396A8
:101B30000E94AA05BE016D5D7F4FCE0142960E94B4
:101B4000311360E971E0CE0142960E94201060E8F6
:101B500071E03AC01A8A198266E771E0CE014296B6
:101B60000E9420101BA28091370190913801892B8F
:101B7000C1F4609155017091560180915701909187
:101B800058010E949B11AB01BC01CE0183960E94BB
:101B9000AA05BE016D5D7F4FCE0142960E943113B2
:101BA00006C060E771E0CE0142960E94201060E618
:101BB00071E00AC01A8A198262E571E0CE0142968C
:101BC0000E94201062E471E0CE0101960E94201074
:101BD000BE016F5F7F4FCE0142960E94590206C040
:101BE00064E271E082E391E00E9423028DE591E0DE
:101BF0000E9453050E94B60A0E948E0660E0809102
:101C000069010E94D30361E0809169010E9487030A
:101C10000E9469050E9469050E940F044B015C0146
:101C2000E4E68E0E911CA11CB11CE12CF12C0E944B
:101C30000F04681579058A059B0578F58DE591E017
:101C40000E94E7011816190694F78DE591E00E94AD
:101C5000E7011816190614F0E12C1AC08DE591E081
:101C60000E94FE01E82E809129028E1196C14090BB
:101C700004025090050260900602709007020E94D4
:101C80000F04461657066806790608F486C1E4CFA5
:101C9000F12CE114F10459F299C1F0EFEF16F104BF
:101CA00009F409C1E114F10409F405C120E9E216BF
:101CB000F10409F4CAC05CF4E0E6EE16F10409F49C
:101CC000ECC0F0E7EF16F10409F45BC0F4C020EDBE
:101CD000E216F10409F46DC080EEE816F10431F06B
:101CE000E0EBEE16F10409F0E6C077C080913B010D
:101CF00090913C018730910509F4DDC08530910554
:101D0000F1F58091550190915601A0915701B09144
:101D100058018093510190935201A0935301B093C5
:101D2000540161E080E090E00E94850361E081E081
:101D300090E00E94850369E471E08AE090E00E94EF
:101D400051038091370190913801892B09F09FC090
:101D50008091550190915601A0915701B091580181
:101D60008093510190935201A0935301B093540179
:101D700061E571E084E190E00E94510388C0019622
:101D800013C080913B0190913C018336910521F471
:101D900010923C0110923B0180913B0190913C01DB
:101DA000009709F488C0019790933C0180933B0110
:101DB00082C080913B0190913C01039709F07BC068
:101DC0008091490190914A01A0914B01B0914C0141
:101DD0008C599F4FAF4FBF4F4AC080913B019091AC
:101DE0003C01029771F41092550110925601109225
:101DF00057011092580181E090E090933C0180934C
:101E00003B0180913B0190913C018330910569F445
:101E10008091490190914A01A0914B01B0914C01F0
:101E200088519C4FAF4FBF4F22C0049709F043C069
:101E300010925501109256011092570110925801BC
:101E4000109238011092370136C080913B01909179
:101E50003C0183309105A1F48091490190914A01A0
:101E6000A0914B01B0914C01C296A11DB11D809370
:101E7000490190934A01A0934B01B0934C011BC0C0
:101E80000597C9F460E080E090E00E9485030E941D
:101E90008901E0E0F0E009950EC080913B0190914E
:101EA0003C01039741F41092490110924A011092AB
:101EB0004B0110924C010115110509F4FCCC0E9454
:101EC0000000F9CC0E940F046BAB7CAB8DAB9EABDA
:101ED00060915501709156018091410190914201AC
:101EE000681B790B072E000C880B990B0E949B1125
:101EF0002B013C016091510170915201809153017D
:101F00009091540128EE33E040E050E00E94D1125D
:101F1000CA01B9010E949B119B01AC01C301B2012E
:101F20000E94F11020E030E040E752E40E9450129D
:101F30002B013C016BA97CA96C197D09072E000CB3
:101F4000880B990B0E949B1120E030E04AE754E493
:101F50000E94F1109B01AC01C301B2010E94F1107B
:101F60000E94631160933D0170933E0180933F0195
:101F7000909340010E940F046093450170934601C5
:101F800080934701909348018092410190924201D1
:101F9000A0924301B09244012DCD0E940F04DC01B8
:101FA000CB0180579E4FAF4FBF4F80930402909359
:101FB0000502A0930602B0930702E0922902F0EF17
:101FC000EF1266CE80EFE82EF12C31CE20EFE21634
:101FD000F10409F06BCE6FCFEDE5F1E013821282D0
:101FE00088EE93E0A0E0B0E084839583A683B78376
:101FF0008DE091E091838083A4E7B1E08C918E7FA6
:102000008C93128E118E148E138E168E158E12A234
:1020100011A2109204021092050210920602109270
:102020000702109202021092810110928001109218
:10203000030281EC91E090932F0280932E02089589
:10204000FB01DC010D900020E9F7119705900D923E
:102050000020E1F70895FC0105900020E9F7809544
:1020600090958E0F9F1F0895BB274A3031F4992316
:1020700022F4BDE2909581959F4F0C944010BB27B0
:10208000FB015527AA27880F991FAA1FA41710F034
:10209000A41B83955051B9F7A05DAA3308F0A95D40
:1020A000A193009779F7B111B1931192CB010C94E0
:1020B0005910DC01FC01672F71917723E1F732970A
:1020C00004C07C916D9370836291AE17BF07C8F313
:1020D0000895F999FECF92BD81BDF89A992780B5F0
:1020E0000895262FF999FECF1FBA92BD81BD20BD5C
:1020F0000FB6F894FA9AF99A0FBE019608955058BF
:10210000BB27AA270E9497100C9411120E94031259
:1021100038F00E940A1220F039F49F3F19F426F497
:102120000C9400120EF4E095E7FB0C94FA11E92FE1
:102130000E94221258F3BA176207730784079507A3
:1021400020F079F4A6F50C9444120EF4E0950B2ED1
:10215000BA2FA02D0B01B90190010C01CA01A001F9
:102160001124FF27591B99F0593F50F4503E68F154
:102170001A16F040A22F232F342F4427585FF3CF95
:10218000469537952795A795F0405395C9F77EF466
:102190001F16BA0B620B730B840BBAF09150A1F0AF
:1021A000FF0FBB1F661F771F881FC2F70EC0BA0F35
:1021B000621F731F841F48F4879577956795B795BD
:1021C000F7959E3F08F0B0CF9395880F08F09927B8
:1021D000EE0F9795879508950E94D61108F481E037
:1021E00008950E9405110C9411120E940A1258F0D1
:1021F0000E94031240F029F45F3F29F00C94FA1179
:1022000051110C9445120C9400120E94221268F392
:102210009923B1F3552391F3951B550BBB27AA279F
:1022200062177307840738F09F5F5F4F220F331FD9
:10223000441FAA1FA9F335D00E2E3AF0E0E832D0A1
:1022400091505040E695001CCAF72BD0FE2F29D0A4
:10225000660F771F881FBB1F261737074807AB0776
:10226000B0E809F0BB0B802DBF01FF2793585F4FEB
:102270003AF09E3F510578F00C94FA110C944512F7
:102280005F3FE4F3983ED4F3869577956795B795CD
:10229000F7959F5FC9F7880F911D9695879597F9D8
:1022A0000895E1E0660F771F881FBB1F6217730751
:1022B0008407BA0720F0621B730B840BBA0BEE1F66
:1022C00088F7E09508950E946A116894B1110C9402
:1022D000451208950E942A1288F09F5798F0B92F4E
:1022E0009927B751B0F0E1F0660F771F881F991F4B
:1022F0001AF0BA95C9F714C0B13091F00E94441297
:10230000B1E008950C944412672F782F8827B85FA6
:1023100039F0B93FCCF3869577956795B395D9F7A2
:102320003EF490958095709561957F4F8F4F9F4FAC
:102330000895E89409C097FB3EF4909580957095B8
:1023400061957F4F8F4F9F4F9923A9F0F92F96E901
:10235000BB279395F695879577956795B795F11176
:10236000F8CFFAF4BB0F11F460FF1BC06F5F7F4F13
:102370008F4F9F4F16C0882311F096E911C0772325
:1023800021F09EE8872F762F05C0662371F096E82E
:10239000862F70E060E02AF09A95660F771F881FFD
:1023A000DAF7880F9695879597F90895990F0008A1
:1023B000550FAA0BE0E8FEEF16161706E807F90717
:1023C000C0F012161306E407F50798F0621B730BB2
:1023D000840B950B39F40A2661F0232B242B252B33
:1023E00021F408950A2609F4A140A6958FEF811DD6
:1023F000811D089597F99F6780E870E060E0089577
:102400009FEF80EC089500240A941616170618060C
:102410000906089500240A941216130614060506E8
:102420000895092E0394000C11F4882352F0BB0F79
:1024300040F4BF2B11F460FF04C06F5F7F4F8F4FDC
:102440009F4F089557FD9058440F551F59F05F3F17
:1024500071F04795880F97FB991F61F09F3F79F0C6
:1024600087950895121613061406551FF2CF469548
:10247000F1DF08C0161617061806991FF1CF8695CA
:102480007105610508940895E894BB2766277727AE
:10249000CB0197F908950E94D61108F48FEF0895A3
:1024A0000E9463120C9411120E94031238F00E94D1
:1024B0000A1220F0952311F00C94FA110C940012DA
:1024C00011240C9445120E94221270F3959FC1F3BF
:1024D000950F50E0551F629FF001729FBB27F00DD2
:1024E000B11D639FAA27F00DB11DAA1F649F662727
:1024F000B00DA11D661F829F2227B00DA11D621F76
:10250000739FB00DA11D621F839FA00D611D221F2F
:10251000749F3327A00D611D231F849F600D211D13
:10252000822F762F6A2F11249F5750409AF0F1F096
:1025300088234AF0EE0FFF1FBB1F661F771F881FFF
:1025400091505040A9F79E3F510580F00C94FA112C
:102550000C9445125F3FE4F3983ED4F3869577954B
:102560006795B795F795E7959F5FC1F7FE2B880FA5
:10257000911D9695879597F9089597FB072E16F468
:10258000009407D077FD09D00E94F61207FC05D011
:102590003EF4909581959F4F0895709561957F4F7A
:1025A0000895052E97FB1EF400940E94E81257FD33
:1025B00007D00E940A1307FC03D04EF40C94E812D3
:1025C00050954095309521953F4F4F4F5F4F08955F
:1025D00090958095709561957F4F8F4F9F4F08958F
:1025E000EE0FFF1F0590F491E02D0994AA1BBB1B71
:1025F00051E107C0AA1FBB1FA617B70710F0A61B03
:10260000B70B881F991F5A95A9F780959095BC0123
:10261000CD010895A1E21A2EAA1BBB1BFD010DC01E
:10262000AA1FBB1FEE1FFF1FA217B307E407F50782
:1026300020F0A21BB30BE40BF50B661F771F881F5E
:10264000991F1A9469F760957095809590959B01F4
:10265000AC01BD01CF01089581E090E0F8940C94A5
:102660003C13FB01DC010D900020E9F7119701906C
:102670000D920020E1F7089510E0CAEFD0E004C009
:10268000FE010E94F0122196CB3FD107C9F7F894C2
:02269000FFCF7A
:10269200C001C001010064000600000000C302394D
:0C26A200012002E601E701FE01CE01006C
:00000001FF
