:100000000C94F6000C9479040C9452040C94AC04F7
:100010000C94AC040C94AC040C941E010C941E01C2
:100020000C941E010C941E010C941E010C941E01D4
:100030000C941E010C941E010C941E010C941E01C4
:100040000C9408040C941E010C941E010C941E01C7
:100050000C941E010C941E010C941E010C941E01A4
:100060000C941E010C941E01830C880CCF0CDA0C2E
:10007000FF0C220D380D00000000240027002A008C
:100080000000000800020100000304070000000057
:1000900000000000000000002300260029000000EE
:1000A0000000250028002B000404040404040404B8
:1000B0000202020202020303030303030102040813
:1000C00010204080010204081020010204081020C2
:1000D0006D6C2F6D00466C6F772053706565640002
:1000E0006D6C00436F6E73756D7074696F6E005246
:1000F0004354204675656C0020204675656C20537E
:10010000656E736F720020524354204A65746920F3
:10011000546F6F6C730020204675656C2053656EBC
:10012000736F720020524354204A65746920546FE3
:100130006F6C7300527374205570446E2053617657
:1001400065203E005265736574206F72205361769E
:10015000650043686720446E204E657874203E0039
:1001600035302D333030300031352D3830300053BC
:10017000656E736F723A20002020202020202020FE
:10018000204E657874203E006D6C0043616C69629E
:10019000722E3A200050726573732055702026200D
:1001A000446E00526573657420436F6E73756D7095
:1001B000742E006D6C2F7300466C6F773A20006DC3
:1001C0006C00436F6E733A200020204675656C20EA
:1001D00053656E736F720020524354204A657469F0
:1001E00020546F6F6C730000160F0C0F11241FBE8C
:1001F000CFEFD8E0DEBFCDBF11E0A0E0B1E0E4E694
:10020000F4E202C005900D92A032B107D9F722E0C6
:10021000A0E2B1E001C01D92A932B207E1F710E0FF
:10022000C5EFD0E004C02197FE010E94FB11C43F3E
:10023000D107C9F70E948B0A0C9425120C94000078
:1002400080914F01909150010196909350018093BD
:100250004F010895CF92DF92EF92FF920F931F9379
:10026000CF93DF936C017A018B01C0E0D0E0CE1513
:10027000DF0589F0D8016D918D01D601ED91FC91DA
:100280000190F081E02DC6010995892B11F47E01C2
:1002900002C02196ECCFC701DF91CF911F910F9142
:1002A000FF90EF90DF90CF90089590E0FC01E05830
:1002B000FF4F3491FC01E454FF4F2491FC01E855B9
:1002C000FF4FE491EE2309F43BC0332339F133307F
:1002D00091F038F43130A9F0323001F584B58F7DDA
:1002E00012C0373091F03830A1F03430B9F4809139
:1002F00080008F7D03C0809180008F778093800085
:100300000DC084B58F7784BD09C08091B0008F7710
:1003100003C08091B0008F7D8093B000F0E0EE0FBD
:10032000FF1FE256FF4FA591B4918FB7F894EC915F
:10033000611103C020952E2301C02E2B2C938FBF5B
:100340000895CF93DF9390E0FC01E454FF4F249194
:10035000FC01E855FF4F8491882361F190E0880FFC
:10036000991FFC01EA58FF4FC591D491FC01E25658
:10037000FF4FA591B491611109C09FB7F89488818E
:10038000209582238883EC912E230BC0623061F488
:100390009FB7F8943881822F809583238883EC91CE
:1003A0002E2B2C939FBF06C08FB7F894E8812E2B7D
:1003B00028838FBFDF91CF9108953FB7F894809144
:1003C000370190913801A0913901B0913A0126B5D9
:1003D000A89B05C02F3F19F00196A11DB11D3FBF7D
:1003E000BA2FA92F982F8827820F911DA11DB11D0B
:1003F000BC01CD0142E0660F771F881F991F4A9507
:10040000D1F708958F929F92AF92BF92CF92DF92D1
:10041000EF92FF920E94DD014B015C0188ECC82E37
:10042000D12CE12CF12C0E94DD01DC01CB018819DB
:100430009909AA09BB09883E9340A105B10558F066
:1004400021E0C21AD108E108F10888EE880E83E0A5
:10045000981EA11CB11CC114D104E104F10419F7C8
:10046000FF90EF90DF90CF90BF90AF909F908F90D4
:10047000089508950895DC015196ED91FC915297ED
:10048000908150968C918095892380830895209146
:100490005301309154012817390771F4909151019B
:1004A00080915201981741F0E0915101F0E0EE5D2A
:1004B000FE4F808190E008958FEF9FEF089508959B
:1004C00020915301309154012817390769F4809124
:1004D00052012091510190E04096821B910960E108
:1004E00070E00E94E711089580E090E00895209167
:1004F00053013091540128173907B9F490915101F3
:1005000080915201981789F0E0915101F0E0EE5D81
:10051000FE4F80812091510130E02F5F3F4F2F70BF
:1005200033272093510190E008958FEF9FEF0895B6
:10053000E0915301F0915401E817F90769F4A38998
:10054000B4899C918589809589238C93109254015C
:100550001092530181E0089580E00895CF93DF93D6
:1005600085E591E00E949802C5E5D1E061E08C85C7
:100570000E94A10161E08C85DF91CF910C9455011F
:100580008091720190917301892B31F18091530117
:100590009091540121E085359207F1F0009711F018
:1005A0000E94980280916C018E7F80936C01109262
:1005B00052011092510185E591E09093540180938E
:1005C0005301E0916801F0916901908180916A0185
:1005D000892B808381E0089580E00895089580E06C
:1005E00090E008950F931F93CF93DF938C01EB015D
:1005F0000E94550FA0E0B2E090E020E2981740F48E
:10060000A8014F5F5F4FF80104910C938A0101C06C
:100610002C939F5F1196903189F7CE010E94550F60
:10062000A0E1B2E090E020E2981740F4AE014F5F05
:100630005F4FFE01C491CC93EA0101C02C939F5FF0
:100640001196903189F7DF91CF911F910F91089505
:10065000CF93DF93FC0101900020E9F73197E81B6D
:1006600020E030E0F0E2A90148575F4F2E1748F430
:10067000EA01C858DE4FDC01A20FB31FAC91A8837A
:1006800004C0DA01A858BE4FFC932F5F3F4F2031C2
:10069000310549F7FB0101900020E9F73197E61B8E
:1006A00080E090E040E29C0128563F4F8E1748F4CE
:1006B000E901C858DE4FDB01A80FB91F5C915883D0
:1006C00004C0D901A858BE4F4C93019680319105C2
:1006D00051F7DF91CF910895CF92DF92EF92FF9281
:1006E0000F931F93CF93DF93EC0189A19AA10097F9
:1006F00029F421E030E03B832A8371C00FB7F894DE
:100700008F8D98A1892B91F028E030E090E081E076
:10071000482F462309F09F5F880F21503109C1F708
:10072000888D81119F5F192F109501C010E0F62E62
:10073000CE010E943B0289A19AA10197F1F788E0BE
:10074000C82ED12CEE24E3948E2D8F2139F0E98927
:10075000FA8990818889892B808303C0CE010E9409
:100760003B0289A19AA10197F1F7EE0C81E0C81A2A
:10077000D10851F78E89882389F0888D882339F034
:10078000E989FA8990818889892B808303C0CE0109
:100790000E943B0289A19AA10197F1F78F8D98A140
:1007A000892B81F010FF07C0E989FA899081888937
:1007B000892B808303C0CE010E943B028F8D98A1BC
:1007C0000197F1F7E989FA8990818889892B8083DB
:1007D0000FBF8D8D9E8D0197F1F781E090E0DF9145
:1007E000CF911F910F91FF90EF90DF90CF900895E0
:1007F0000E9415120C949B0F2FB7F894609133014F
:100800007091340180913501909136012FBF089588
:100810001F920F920FB60F9211242F933F938F9335
:100820009F93AF93BF938091330190913401A09136
:100830003501B09136013091320123E0230F2D377D
:1008400020F40196A11DB11D05C026E8230F0296D4
:10085000A11DB11D20933201809333019093340187
:10086000A0933501B0933601809137019091380102
:10087000A0913901B0913A010196A11DB11D80935B
:10088000370190933801A0933901B0933A01BF9199
:10089000AF919F918F913F912F910F900FBE0F902D
:1008A0001F9018951F920F920FB60F9211242F933D
:1008B0003F934F935F936F937F938F939F93AF93E8
:1008C000BF93EF93FF93E0910201F091030109952B
:1008D000FF91EF91BF91AF919F918F917F916F9118
:1008E0005F914F913F912F910F900FBE0F901F90EE
:1008F00018951F920F920FB60F9211242F933F93CA
:100900004F935F936F937F938F939F93AF93BF9317
:10091000EF93FF93E0910001F09101010995FF91A0
:10092000EF91BF91AF919F918F917F916F915F9167
:100930004F913F912F910F900FBE0F901F901895E0
:10094000862798E027E087FF03C0880F822701C031
:10095000880F9150C1F708951F920F920FB60F9212
:1009600011242F933F934F935F936F937F938F93B4
:100970009F93AF93BF93CF93DF93EF93FF93E09158
:100980005301F0915401309709F467C0C685D785AB
:1009900088812585822309F060C0818D928D019721
:1009A000F1F7438D548D68E070E030E081E0DA01CA
:1009B0001197F1F79881922311F0382B03C0982FEB
:1009C00090953923880F6150710989F78091520100
:1009D00090E001968F70992760915101681749F056
:1009E000A0915201B0E0AE5DBE4F3C9380935201A6
:1009F00003C087898160878B86898823F1F0CA01CB
:100A00000197F1F78881282381E090E0A0E0B0E031
:100A100004C0880F991FAA1FBB1F2A95D2F74091C7
:100A200020015091210160E070E0842B952BA62BD2
:100A3000B72B9093210180932001878D90A100977F
:100A400011F00197F1F7858D968D0197F1F7A38944
:100A5000B4899C918589892B8C93FF91EF91DF91CB
:100A6000CF91BF91AF919F918F917F916F915F9146
:100A70004F913F912F910F900FBE0F901F9018959F
:100A80000F931F93CF93C82F05E511E0F801608FF6
:100A9000682FC8010E946C03F801108E8C2FCF9133
:100AA0001F910F910895EF92FF920F931F93CF9391
:100AB000DF931F92CDB7DEB709E011E082E0E82EA8
:100AC000F12CF80161918F01C70169830E94930F96
:100AD0006981681719F0C7010E949B0FFFEFEF1A99
:100AE000FF0A86E0E816F10461F789E091E00F90D3
:100AF000DF91CF911F910F91FF90EF9008952F926A
:100B00003F924F925F926F927F928F929F92AF929D
:100B1000BF92CF92DF92EF92FF920F931F93CF93EA
:100B2000DF9300D000D01F92CDB7DEB75C012A0161
:100B30003B0120E030E0A901C301B2010E94161080
:100B400087FF05C020E030E040E05FEB04C020E01C
:100B500030E040E05FE3C301B2010E94AA0F6B01E5
:100B60007C0120E030E0A901C301B2010E9416100F
:100B700087FF04C0F7FAF094F7F8F094812C912CD9
:100B80008DEC89839CEC9A838CEC282E9DE3392E86
:100B900020E030E040E251E469817A81C1010E94A5
:100BA0007A116D837B83182F092FA7019601902F4F
:100BB0000E941610181654F0EFEF8E1A9E0AFD814F
:100BC000F9838B818A83212E302EE2CF20E030E022
:100BD000A901C301B2010E94161087FF08C08DE26F
:100BE000F501808381E090E09C838B8302C01C82AE
:100BF0001B828114910459F4EB81FC81EA0DFB1DE9
:100C000080E38083EB81FC813196FC83EB8300E001
:100C100010E008151905B9F129813A81A101C70130
:100C2000B6010E941B100E948D102B013C016B81AC
:100C30007C81600F711F6A0D7B1D4AE0C2010E941A
:100C40005E0FB201550C880B990B0E94C5102981CB
:100C50003A81A1010E947A119B01AC01C701B60142
:100C60000E94A90F6B017C0120E030E040E251E4DA
:100C700069817A81C1010E941B1069837A831C01FA
:100C80000F5F1F4FC6CF0A0D1B1DEB81FC81E00FCC
:100C9000F11F1082C5010F900F900F900F900F90D1
:100CA000DF91CF911F910F91FF90EF90DF90CF9048
:100CB000BF90AF909F908F907F906F905F904F907C
:100CC0003F902F9008952F923F924F925F926F9294
:100CD0007F928F929F92AF92BF92CF92DF92EF92CC
:100CE000FF920F931F93CF93DF93C0902202D09077
:100CF0002302E0902402F09025020E94FC03209140
:100D0000FA012223E9F060E08EE70E94400561E0ED
:100D100082E90E94400561E083E20E94400561E0B3
:100D20008091FA010E94400580910801882311F00A
:100D3000815003C01092FA0186E08093080170C3CD
:100D400024EFC20E21E0D21EE11CF11C11E0C616F8
:100D5000D706E806F90608F010E060E08EE70E948A
:100D6000400561E08FE90E944005111170C080913B
:100D7000FB01A0917801B0917901E82FF0E0EE0F2E
:100D8000FF1FE652FE4F20813181232B49F48F5FF4
:100D9000282F30E02A173B0784F31092FB0102C092
:100DA0008093FB016091FB01F6E0E0E026E030E09B
:100DB000E12C40E050E070E0CA01860F971F8A17CF
:100DC0009B07A4F5009709F1E394880F991FFC0194
:100DD000E654FE4F80818F718830A1F0813019F484
:100DE000C901039615C0811103C0C901029610C044
:100DF000853019F4C90104960BC0893019F0C90176
:100E0000019606C0C901059603C0C9012F2F3E2FC8
:100E10004F5F5F4F4031510551F08B31910514F018
:100E2000EA9404C0F22FE32F9C01C6CFC901C82F5A
:100E3000C06481E080936D016C2F85E591E00E9494
:100E40006C0360E08C2F0E94A004C82F1DC0E091AD
:100E50002802F0E0EE0FFF1FE554FE4F8081C82FFF
:100E6000CF71829586958770C80FC85F81E08093A7
:100E70006D016C2F85E591E00E946C0360E08C2F82
:100E80000E94A004C82FE12CD1E0D0936D0161E154
:100E900085E591E00E946C036C2F81E10E94A00423
:100EA000C82FD0936D0164EA85E591E00E946C0340
:100EB0006C2F84EA0E94A004C82FD0936D0162E0D9
:100EC00085E591E00E946C036C2F82E00E94A004F3
:100ED000C82FD0936D0166E085E591E00E946C0318
:100EE0006C2F86E00E94A004C82FD0936D0160E0B3
:100EF00085E591E00E946C0310926D016C2F80E0FB
:100F00000E94A004F82E1111EAC1C091FB016E2CC1
:100F10006C0E2091780130917901C61551F077243B
:100F200073947C0E7092FB010C2F10E002171307D4
:100F300054F08091FB0190E0821793070CF46CC28F
:100F40001092FB0169C2CC2309F4C7C1E0912602CB
:100F5000F09127020995C295C07F680131E2C30E66
:100F6000D11CC601880F991FFC01E858FE4F5F0194
:100F700080818F7190E08530910509F4BEC0F4F551
:100F8000009709F495C0019709F0A7C1000F111F40
:100F9000F801E652FE4F0190F081E02D00811181B1
:100FA000C160D0936D016C2F85E591E00E946C03C8
:100FB0006F2D8C2F0E94A004C82F1F79F50120816E
:100FC00022952695277030E0322F22273295330F55
:100FD000307E022B132BD0936D01602F85E591E0BD
:100FE0000E946C036C2F802F0E94A004082F912F69
:100FF0009F79F501C081C07EC92B74C088309105EE
:1010000021F0099709F4C2C068C1C860D0936D018E
:101010006C2F85E591E00E946C036F2D8C2F0E9450
:10102000A004C82F000F111FF801E652FE4F0190D7
:10103000F081E02D80819181A281B3816C017D01DD
:10104000FFE9FF22D0936D016C2D85E591E00E94B0
:101050006C036C2F8C2D0E94A004C82F2D2C3E2CCD
:101060004F2C552447FC5A94D0936D01622D85E591
:1010700091E00E946C036C2F822D0E94A004C82F67
:101080001701552437FC5094452CD0936D01622DE7
:1010900085E591E00E946C036C2F822D0E94A004D4
:1010A000182F9F2D9F79F501C081C07EC92B62C08A
:1010B000000F111FF801E652FE4F0190F081E02D64
:1010C0001081D0936D016C2F85E591E00E946C0337
:1010D0006F2D8C2F0E94A004082F1F79F501C0816D
:1010E000C07EC12BD0936D016C2F85E591E00E94ED
:1010F0006C0310926D01602F47C0C560D0936D01E5
:101100006C2F85E591E00E946C0310926D016F2DAC
:101110008C2F0E94A004F82E000F111FF801E65238
:10112000FE4F0190F081E02D118102819081F50147
:101130002081229526952770213011F0C0E001C052
:10114000C0E4C92BD0936D01602F85E591E00E942A
:101150006C036F2D802F0E94A004082FD0936D0187
:10116000612F85E591E00E946C03602F812F0E9422
:10117000A004182FD0936D016C2F85E591E00E949B
:101180006C0310926D01612F8C2FA4C0C960D093A5
:101190006D016C2F85E591E00E946C036F2D8C2F03
:1011A0000E94A004C82F000F111FF801E652FE4F45
:1011B0000190F081E02D80809180A280B38020E0BA
:1011C00030E0A901C501B4010E94751118161CF484
:1011D000C501B40103C0C501B40190580E94941028
:1011E0008B0180E090E00E94C3109B01AC01C5011F
:1011F000B4010E94A90F2AE939E949E15FE30E949D
:101200007A1120E030E543EC57E40E947A111B018B
:101210002C0120E030E0A9010E94751118161CF481
:10122000C201B10103C0C201B10190580E949410E3
:10123000562EF72E812F8170F601EE0FFF1FE85812
:10124000FE4F9081929596959770913011F090E0B5
:1012500001C090E2192F182B20E030E0A901C50150
:10126000B4010E941610881F8827881F8295880F56
:10127000880F807C182BD0936D01652D85E591E05A
:101280000E946C036C2F852D0E94A004C82FD09360
:101290006D016F2D85E591E00E946C036C2F8F2D01
:1012A0000E94A004C82FD0936D01602F85E591E0C6
:1012B0000E946C036C2F802F0E94A004C82FD09333
:1012C0006D01612F85E591E00E946C0310926D0124
:1012D0006C2F812F0E94A004F82EC72D1ACEC0912A
:1012E0002802D0936D016C2F85E591E00E946C037C
:1012F0006F2D8C2F0E94A004B82E0C2F10E06801D7
:10130000CC0CDD1C960125543E4F4901F90120818A
:10131000922F9F71F8E09F9F7001112422952695CE
:101320002770E22AD0936D016E2D85E591E00E9431
:101330006C0310926D016B2D8E2D0E94A004F82E6F
:10134000F601E658FE4FD081AD2EB180772473941C
:101350002A2D2D1B30E0F40180818F7190E0281739
:101360003907A4F4F501E49070926D016E2D85E5C6
:1013700091E00E946C0310926D016F2D8E2D0E94E2
:10138000A004F82EFFEFAF1ABF0AE2CF000F111F23
:10139000D801A656BE4FDC910D2F11961C919601D7
:1013A00025543E4F6901BB24B394202F2D1B30E000
:1013B000F601808182958695877090E0281739071D
:1013C0009CF4F801E490B0926D016E2D85E591E0FA
:1013D0000E946C0310926D016F2D8E2D0E94A0044F
:1013E000F82E0F5F1F4FE1CFCF5FC09328028C2FE5
:1013F00090E020917801309179018217930714F0E1
:10140000109228020E94FC03609322027093230230
:10141000809324029093250261E08F2D0E94400565
:10142000E0912602F0912702099560E08EEF0E947C
:101430004005C0E0D2E01C2F105E61E089910E945F
:1014400040051C13FACF60E08FEF0E94400581E059
:10145000DF91CF911F910F91FF90EF90DF90CF9090
:10146000BF90AF909F908F907F906F905F904F90C4
:101470003F902F900895CF92DF92FF920F931F938A
:10148000CF93DF932091780130917901203131059C
:10149000CCF56B0189010F5F1F4FF801EE0FFF1FA5
:1014A000E858FE4F91838083F901EE0FFF1FE65647
:1014B000FE4F71836083F901EE0FFF1FE652FE4F6E
:1014C00011821082220F331FE901C654DE4F1882A9
:1014D0000E94550F982F9F718981807EF82EF92ADE
:1014E000C6010E94550F8295880F807E9F2D9F71A7
:1014F000F92EF82AF98210937901009378018FEF81
:10150000800F01C08FEFDF91CF911F910F91FF905E
:10151000DF90CF900895CF93DF93CDB7DEB7E097FC
:101520000FB6F894DEBF0FBECDBF789484B582604D
:1015300084BD84B5816084BD85B5826085BD85B577
:10154000816085BD80916E00816080936E001092F5
:101550008100809181008260809381008091810070
:101560008160809381008091800081608093800001
:101570008091B10084608093B1008091B00081605F
:101580008093B00080917A00846080937A0080918B
:101590007A00826080937A0080917A0081608093E3
:1015A0007A0080917A00806880937A001092C1005E
:1015B00061E08DE00E94A10161E08DE00E94550193
:1015C00061E083E00E94A10160E083E00E94550198
:1015D00080913F0190914001909305018093040117
:1015E00068EF70E086E091E00E94F2028FEE90E0FA
:1015F00090937B0180937A0110929B0110929A0143
:101600001092DB011092DA011092BA0188E0809307
:10161000BB0181E090E0909379018093780161E0D3
:1016200083E00E94550161E083E00E94A101EFEB9D
:10163000EE2EE0E0FE2EF7018491809365010BEA27
:1016400010E0F801849190E0880F991F82569F4F17
:10165000FC0125913491309367012093660160E08D
:1016600083E00E94A10161E083E00E94550183E0D4
:1016700080936101F701E490E0926201F801049126
:10168000E02FF0E0EE0FFF1FEC56FF4F8591949195
:10169000909364018093630181E080936B0185E9FD
:1016A00091E0909377018093760129EB30E03093BD
:1016B0006F0120936E0123E931E030937101209393
:1016C000700146E554E050937301409372013093EA
:1016D00075012093740120916800246020936800B4
:1016E0002DE630E0309369012093680128E02093D3
:1016F0006A010197F1F70E94C0020E94AE0262E007
:1017000082E00E94A10180E291E090930101809328
:101710000001809169008C7F816080936900E89A64
:1017200080E090E00E94930F813069F061E080E0FA
:1017300090E00E94FA0360913B0181E090E00E94FA
:10174000FA030E94530581E090E00E94930F082F56
:1017500010E010933C0100933B0169E0C62E61E06C
:10176000D62E72E0E72EF12CC7010E94930FF601EE
:1017700081936F01FFEFEF1AFF0A26E0E216F104F2
:1017800099F70130110519F484E090E002C088E176
:1017900090E0909307018093060160EE70E083EE85
:1017A00090E00E943B0A803188F490E0FC01EE0F4B
:1017B000FF1FE652FE4F2BE431E031832083880F78
:1017C000991FFC01E654FE4F88E0808360ED70E0D5
:1017D00085ED90E00E943B0A803188F490E0FC01A6
:1017E000EE0FFF1FE652FE4F21E431E031832083EC
:1017F000880F991FFC01E654FE4F88E080830E9409
:10180000630660E08DE00E94550180E0282E80E0B4
:10181000382E00914F0110915001B801012E000C9B
:10182000880B990B0E94C5106B017C018091060109
:1018300090910701BC01990F880B990B0E94C5106C
:101840009B01AC01C701B6010E941B106B017C011A
:101850002091090130910A0140910B0150910C0136
:1018600060E070E08AE794E40E941B109B01AC01E9
:10187000C701B6010E947A110E948D1060934B013E
:1018800070934C0180934D0190934E010E94FC0394
:101890008090470190904801A0904901B0904A0182
:1018A00075016401E8EECE0EE3E0DE1EE11CF11CE2
:1018B000C616D706E806F90640F40E94FC0369380C
:1018C00073418105910508F018C2E0913F01F09144
:1018D0004001E630F10521F010923E0110923D01E9
:1018E00080910401909105018E179F0721F0F093DC
:1018F0000501E0930401E730F10508F0BFC0EC5C9E
:10190000FF4F0C94FB1169EC71E087ED91E0B4C0DE
:1019100019A2198A62EC71E0CE0181960E944A0FE9
:10192000198260914B0170914C0180914D01909111
:101930004E010E94C510AB01BC01CE0101960E9470
:101940007F05BE016F5F7F4FCE0181960E941A1204
:101950006FEB71E0CE0181960E944A0F68EB71E057
:10196000CE0141960E944A0F198260914101709107
:10197000420180914301909144010E94C510AB0146
:10198000BC01CE0101960E947F05BE016F5F7F4FB3
:10199000CE0141960E941A1263EB71E05DC019A25C
:1019A000198A63EA71E0CE0181960E944A0F65E9C7
:1019B00071E052C019A2198A6BE871E0CE018196DC
:1019C0000E944A0F19824091090150910A016091C9
:1019D0000B0170910C01CE0101960E947F05BE01A2
:1019E0006F5F7F4FCE0181960E941A1268E871E006
:1019F000CE0181960E944A0F68E771E02DC019A2BE
:101A0000198A6FE671E0CE0181960E944A0F80919B
:101A10003B0190913C01892B31F468E671E0CE01E5
:101A200081960E944A0F80913B0190913C01019761
:101A300031F460E671E0CE0181960E944A0F62E5C2
:101A400071E00AC019A2198A64E471E0CE0181969E
:101A50000E944A0F64E371E0CE0141960E944A0F52
:101A6000BE016F5E7F4FCE0181960E94280306C0A3
:101A700066E171E084E291E00E94F20285E591E086
:101A80000E9498020E94AE020E94630660E080916C
:101A900061010E94A10161E0809161010E945501F4
:101AA0000E94C0020E94C0020E94FC036B017C01E4
:101AB00024E6C20ED11CE11CF11C00E010E00E94E3
:101AC000FC036C157D058E059F0578F585E591E095
:101AD0000E9460021816190694F785E591E00E94AD
:101AE00060021816190614F000E01AC085E591E0AE
:101AF0000E947702082F80912102801370C180908C
:101B0000FC019090FD01A090FE01B090FF010E94A9
:101B1000FC0386169706A806B90608F460C1E4CF50
:101B200010E00115110559F272C1003F110509F4C9
:101B3000DDC00115110509F4D9C00039110509F4FA
:101B40006DC044F40036110509F4B4C00037110526
:101B5000D1F0CCC0003D110571F1003E110529F016
:101B6000003B110509F0C2C032C080913F01909145
:101B700040018630910509F4B9C08530910509F41A
:101B80008BC0019613C080913F0190914001833634
:101B9000910521F41092400110923F0180913F0184
:101BA00090914001009709F4A1C0019790934001E2
:101BB00080933F019BC080913F019091400103972A
:101BC00009F094C020E030E040E85FE342C080913B
:101BD0003F01909140018330910529F420E030E0ED
:101BE00040E85FE371C0049709F080C080913B0139
:101BF00090913C01019741F410923C0110923B01FD
:101C000060E081E090E007C081E090E090933C01CB
:101C100080933B0161E00E94FA0368C080913F011C
:101C200090914001029751F41092500110924F018F
:101C300081E090E09093400180933F0180913F01CB
:101C4000909140018330910579F420E030E040E24A
:101C500051E46091090170910A0180910B0190910A
:101C60000C010E94AA0F3AC0059709F03FC01092DC
:101C70003C0110923B0180E090E0AAE7B4E480933D
:101C8000090190930A01A0930B01B0930C0161E04C
:101C900080E090E00E94FA0360913B0181E090E0D7
:101CA0000E94FA030E9453050E940202E0E0F0E065
:101CB00009951CC080913F01909140010397B1F4B8
:101CC00020E030E040E251E46091090170910A01A6
:101CD00080910B0190910C010E94A90F6093090162
:101CE00070930A0180930B0190930C01211431042D
:101CF00009F48FCD0E9400008CCD0E94FC036B0183
:101D00007C0160914F01709150018091450190914B
:101D10004601681B790B072E000C880B990B0E945B
:101D2000C5102B013C016091060170910701072E3F
:101D3000000C880B990B0E94C5109B01AC01C301DC
:101D4000B2010E941B1020E030E040E752E40E9404
:101D50007A112B013C01B60168197909072E000C94
:101D6000880B990B0E94C51020E030E04AE754E44C
:101D70000E941B109B01AC01C301B2010E941B1009
:101D80006B017C012091090130910A0140910B0106
:101D900050910C0160E070E08AE794E40E941B100F
:101DA0009B01AC01C701B6010E947A110E948D10FF
:101DB00060934101709342018093430190934401E9
:101DC0000E94FC036093470170934801809349018E
:101DD00090934A01109346010093450176CD0E94ED
:101DE000FC03DC01CB0180579E4FAF4FBF4F809368
:101DF000FC019093FD01A093FE01B093FF010093BD
:101E00002102003F09F08CCE00EF10E058CE003FD9
:101E1000110509F092CE6ACF81E191E090935601CD
:101E20008093550185E591E00C949802E5E5F1E099
:101E30001382128288EE93E0A0E0B0E08483958361
:101E4000A683B78381E191E091838083ACE6B1E022
:101E50008C918E7F8C93128E118E148E138E168E13
:101E6000158E12A211A21092FC011092FD01109287
:101E7000FE011092FF011092FA0110927901109266
:101E800078011092FB018AE392E0909327028093FD
:101E900026020895FB01DC010D900020E9F711975F
:101EA00005900D920020E1F70895FC0105900020B7
:101EB000E9F7809590958E0F9F1F0895BB274A30B4
:101EC00031F4992322F4BDE2909581959F4F0C94B3
:101ED0006A0FBB27FB015527AA27880F991FAA1F46
:101EE000A41710F0A41B83955051B9F7A05DAA3335
:101EF00008F0A95DA193009779F7B111B193119200
:101F0000CB010C94830FDC01FC01672F71917723C7
:101F1000E1F7329704C07C916D9370836291AE17A4
:101F2000BF07C8F30895F999FECF92BD81BDF89A15
:101F3000992780B50895262FF999FECF1FBA92BD33
:101F400081BD20BD0FB6F894FA9AF99A0FBE01969A
:101F500008955058BB27AA270E94C10F0C943B112B
:101F60000E942D1138F00E94341120F039F49F3F67
:101F700019F426F40C942A110EF4E095E7FB0C9466
:101F80002411E92F0E944C1158F3BA176207730706
:101F90008407950720F079F4A6F50C946E110EF4E1
:101FA000E0950B2EBA2FA02D0B01B90190010C0169
:101FB000CA01A0011124FF27591B99F0593F50F481
:101FC000503E68F11A16F040A22F232F342F4427D9
:101FD000585FF3CF469537952795A795F0405395D1
:101FE000C9F77EF41F16BA0B620B730B840BBAF0A1
:101FF0009150A1F0FF0FBB1F661F771F881FC2F70C
:102000000EC0BA0F621F731F841F48F4879577951F
:102010006795B795F7959E3F08F0B0CF9395880FD9
:1020200008F09927EE0F9795879508950E94001163
:1020300008F481E008950E942F100C943B110E9437
:10204000341158F00E942D1140F029F45F3F29F01F
:102050000C94241151110C946F110C942A110E94AC
:102060004C1168F39923B1F3552391F3951B550B4C
:10207000BB27AA2762177307840738F09F5F5F4F5B
:10208000220F331F441FAA1FA9F335D00E2E3AF09A
:10209000E0E832D091505040E695001CCAF72BD0B2
:1020A000FE2F29D0660F771F881FBB1F2617370703
:1020B0004807AB07B0E809F0BB0B802DBF01FF2735
:1020C00093585F4F3AF09E3F510578F00C942411DD
:1020D0000C946F115F3FE4F3983ED4F386957795A7
:1020E0006795B795F7959F5FC9F7880F911D9695EE
:1020F000879597F90895E1E0660F771F881FBB1F4A
:10210000621773078407BA0720F0621B730B840BF6
:10211000BA0BEE1F88F7E09508950E94941068941A
:10212000B1110C946F1108950E94541188F09F57BB
:1021300098F0B92F9927B751B0F0E1F0660F771FEB
:10214000881F991F1AF0BA95C9F714C0B13091F0E1
:102150000E946E11B1E008950C946E11672F782FD4
:102160008827B85F39F0B93FCCF3869577956795A6
:10217000B395D9F73EF490958095709561957F4F12
:102180008F4F9F4F0895E89409C097FB3EF49095B8
:102190008095709561957F4F8F4F9F4F9923A9F040
:1021A000F92F96E9BB279395F695879577956795CF
:1021B000B795F111F8CFFAF4BB0F11F460FF1BC013
:1021C0006F5F7F4F8F4F9F4F16C0882311F096E9A6
:1021D00011C0772321F09EE8872F762F05C0662354
:1021E00071F096E8862F70E060E02AF09A95660F0D
:1021F000771F881FDAF7880F9695879597F90895C6
:10220000990F0008550FAA0BE0E8FEEF1616170607
:10221000E807F907C0F012161306E407F50798F06F
:10222000621B730B840B950B39F40A2661F0232B88
:10223000242B252B21F408950A2609F4A140A69504
:102240008FEF811D811D089597F99F6780E870E0E9
:1022500060E008959FEF80EC089500240A9416161C
:10226000170618060906089500240A941216130684
:10227000140605060895092E0394000C11F4882312
:1022800052F0BB0F40F4BF2B11F460FF04C06F5F2E
:102290007F4F8F4F9F4F089557FD9058440F551F04
:1022A00059F05F3F71F04795880F97FB991F61F0D8
:1022B0009F3F79F087950895121613061406551F4F
:1022C000F2CF4695F1DF08C0161617061806991FBB
:1022D000F1CF86957105610508940895E894BB27B0
:1022E00066277727CB0197F908950E94001108F41B
:1022F0008FEF08950E948D110C943B110E942D11B7
:1023000038F00E94341120F0952311F00C94241120
:102310000C942A1111240C946F110E944C1170F32B
:10232000959FC1F3950F50E0551F629FF001729F7A
:10233000BB27F00DB11D639FAA27F00DB11DAA1F89
:10234000649F6627B00DA11D661F829F2227B00DD6
:10235000A11D621F739FB00DA11D621F839FA00D61
:10236000611D221F749F3327A00D611D231F849FB1
:10237000600D211D822F762F6A2F11249F57504008
:102380009AF0F1F088234AF0EE0FFF1FBB1F661F83
:10239000771F881F91505040A9F79E3F510580F04C
:1023A0000C9424110C946F115F3FE4F3983ED4F326
:1023B000869577956795B795F795E7959F5FC1F7F0
:1023C000FE2B880F911D9695879597F9089597FB99
:1023D000072E16F4009407D077FD09D00E94011251
:1023E00007FC05D03EF4909581959F4F0895709518
:1023F00061957F4F0895EE0FFF1F0590F491E02D3A
:102400000994AA1BBB1B51E107C0AA1FBB1FA6173B
:10241000B70710F0A61BB70B881F991F5A95A9F78D
:1024200080959095BC01CD01089581E090E0F894ED
:102430000C942512FB01DC010D900020E9F71197A7
:1024400001900D920020E1F7089510E0C5EFD0E073
:1024500004C0FE010E94FB112196C63FD107C9F7B7
:04246000F894FFCF1E
:1024640039023902010018000600007A4400000015
:10247400006C032A01EF025F026002770247020048
:00000001FF
